:020000040800F2
:1000000088130020C1010008CB3E000865300008BD
:10001000C93E000835080008AD4C0008000000008B
:100020000000000000000000000000006142000825
:10003000A50B000800000000A94100086342000869
:10004000DB010008DB010008DB010008DB01000820
:10005000DB010008DB010008DB010008DB01000810
:10006000DB010008DB010008DB010008DB01000800
:10007000E90A0008DB010008DB010008DB010008D9
:10008000DB010008DB010008DB0100088108000833
:1000900075080008DB010008DB010008DB0100082F
:1000A000DB010008DB010008DB010008DB010008C0
:1000B000DB010008DB010008DB010008DB010008B0
:1000C000DB010008DB010008DB010008DB010008A0
:1000D000DB010008DB010008F14B0008394C000887
:1000E000DB010008DB010008DB010008DB01000880
:1000F000DB010008DB010008DB010008DB01000870
:10010000DB010008DB010008DB010008DB0100085F
:100110008D460008DB0100086D430008DB01000884
:10012000DB010008DB010008F50A0008DB0100081C
:10013000DB010008DB010008DB010008DB0100082F
:10014000DB010008DB010008DB010008DB0100081F
:10015000DB010008DB010008DB010008814C00081E
:10016000DB010008DB010008DB010008DB010008FF
:10017000DB010008DB010008DB01000800000000D3
:10018000DB010008DB010008DB010008DB010008DF
:10019000DB010008DB010008DB010008DB010008CF
:1001A0000000000000000000DB010008DFF80CD0B8
:1001B00000F02EFB00480047E55600088813002099
:1001C0000648804706480047FEE7FEE7FEE7FEE7F1
:1001D000FEE7FEE7FEE7FEE7FEE7FEE7194300085D
:1001E000AD0100082DE9F05F0546002092469B46D0
:1001F00088460646814640241BE02846414647463D
:10020000224600F04EFA53465A46C01A914110D386
:1002100011461846224600F035FA2D1A67EB010800
:100220004F4622460120002100F02CFA17EB00096E
:100230004E41201EA4F10104DFDC484631462A4627
:100240004346BDE8F09F40EA01039B0703D009E065
:1002500008C9121F08C0042AFAD203E011F8013BB2
:1002600000F8013B521EF9D270472DE9FE4F80463F
:1002700081EA0300C00F0C46009021F0004123F0FA
:100280000045B8EB0200A94105D240462146904600
:100290001C460B46024623F00040104347D0270D72
:1002A000C7F30A00C3F30A510290401A0190402894
:1002B0006BDAC3F3130040F4801B0098924620B120
:1002C0000023D2EB030A63EB0B0B01985946C0F1F4
:1002D0004002504600F0D6F906460D4650465946B3
:1002E000019A00F0EEF910EB08006141002487EA62
:1002F000115284EAE7731A4340D0009A62B3019A1C
:10030000012A4FEA075215DC001B61EB02014FF096
:10031000004202EA0752CDE90042001C41F580117B
:1003200032462B4600F025FA03B0BDE8F08F404678
:100330002146F9E7001B61EB0201001C41F5801327
:1003400000185B412018A2F5001747EB030140EAB3
:10035000D570B6196D4111E06D084FEA360645EAD1
:10036000C0754FEA0752001B61EB0201001C41F50A
:10037000801149084FEA30000019514132462B469E
:1003800003B0BDE8F04F00F0E5B90098012240004D
:100390000023D0EB020263EBE073009821464FEAA2
:1003A000E074B8EB000061EB0401E9E783F000437F
:1003B0005BE781F0004158E72DE9FE4F81EA030435
:1003C00004F0004421F0004100944FF0000B23F0B2
:1003D000004350EA01045ED052EA03045BD0C3F349
:1003E0000A54C1F30A552C44A4F2F3340194A0FB3F
:1003F0000254C1F3130141F48011C3F3130343F416
:10040000801301FB024400FB034E840A970A44EA6E
:10041000815447EA8357A4FB076802958D0A05FBC0
:1004200007854FEA932C04FB0C542705029D4FEAE5
:10043000065847EA1637B5EB08056EEB070C870E32
:10044000920E47EA811742EA8312A7FB0201B6EB3C
:100450000B0164EB00042B0D43EA0C335E1844EBF4
:100460001C50DA465146E7FB0201C5F313044FEA7C
:100470000B3343EA14534FEA0432019C43EA060368
:10048000A4F10C040294009CCDE900B400F071F9D1
:1004900003B0BDE8F08F00200146F9E72DE9F04DEB
:1004A00081EA030404F0004B21F0004514464FF0AC
:1004B000000A23F0004150EA050220D054EA01026C
:1004C0001DD0C5F30A570246C5F31303C1F3130049
:1004D000C1F30A5640F4801543F48013A7EB0608D5
:1004E000101BD64608F2FD3873EB050002D308F165
:1004F000010801E092185B41B8F1000F03DA002017
:100500000146BDE8F08D00204FF480110646844678
:100510000EE0171B73EB050705D3121B63EB0503F6
:1005200006434CEA010C49084FEA300092185B413F
:1005300050EA0107EDD152EA030012D082EA04002A
:1005400083EA0501084305D0101BAB4106D2012206
:10055000002306E000224FF0004302E06FF00102AA
:1005600053101AEB06004CEB085110EB0A0041EB5C
:100570000B01BDE8F04D00F0EDB80EB5C10F80EAFB
:10058000E0700844CA07002140F233438DE80E00B2
:100590000A460B4600F0EDF803B000BD0EB540F280
:1005A000334102910021CDE900110A460B4600F0CB
:1005B000E0F803B000BD70B5C1F30A5201F0004588
:1005C0000024C1F3130140F2FF3341F480119A4239
:1005D00001DA002070BD40F233439A42A2F2334266
:1005E00003DC524200F05DF800E090402C43F1D073
:1005F000404270BDC1F30A5210B5C1F3130140F27D
:10060000FF3341F480119A4201DA002010BD40F21C
:1006100033439A42A2F2334203DC524200F041F8E3
:1006200010BD904010BD00F0004230F000400AD0F4
:10063000C10D01F56071C0F3160042EA0151C20814
:1006400040071143704700200146704701F0004306
:1006500030B421F0004150EA010206D00A0DA2F5A3
:100660006072C1F31301002A02DC30BC0020704725
:10067000440F44EAC104C100E01830BC00EBC25092
:1006800000F031B8202A04DB203A00FA02F1002001
:1006900070479140C2F1200320FA03F319439040C0
:1006A0007047202A04DB203A21FA02F0002170472B
:1006B00021FA02F3D040C2F12002914008431946CA
:1006C0007047202A06DBCB17203A41FA02F043EAB2
:1006D000E07306E041FA02F3D040C2F120029140FB
:1006E0000843194670470029A8BF7047401C4900BD
:1006F00008BF20F00100704710B4B0FA80FC00FA87
:100700000CF050EA010404BF10BC704749B1CCF1B1
:10071000200421FA04F411FA0CF118BF012121433D
:100720000843A3EB0C01CB1D4FEA00614FEA1020F8
:1007300042BF002010BC704700EBC350104400299A
:10074000A4BF10BC7047401C490008BF20F0010046
:1007500010BC704710B5141E73F1000408DA401C79
:1007600041F1000192185B411A4301D120F00100D0
:1007700010BD2DE9F04D92469B4611B1B1FA81F2C0
:1007800002E0B0FA80F220329046FFF77BFF044689
:100790000F4640EA0A0041EA0B0153465A46084315
:1007A00013D0114653EA010019D0C8F14002504657
:1007B000FFF777FF05460E46504659464246FFF77B
:1007C00061FF084305D0012004E020463946BDE81A
:1007D000F08D0020054346EAE0762C4337430A9823
:1007E0006305E40AA0EB08000022FD0A44EA47542E
:1007F0000A3002D500200146E9E7010510196941D8
:10080000DDE9084500196941BDE8F04DA2E70000A7
:10081000064C074D06E0E06840F0010394E807004D
:1008200098471034AC42F6D3FFF7C4FCE0590008F7
:10083000005A0008FEE7000000B58BB0002001213F
:10084000CDE9060103900891049000900E210190DB
:100850000290099105906946054800F01DFA0221B1
:10086000034800F0A0F9024800F0F7FC0BB000BD0F
:10087000A0020020014800F013BB0000A0020020ED
:10088000014800F00DBB0000A0020020F0B5026896
:10089000012400230A2526037F48A2F20122072A09
:1008A0002ED2DFE802F0042E67A0D9E2F1000A8818
:1008B000794F52BA02804A8852BA42808A8852BA24
:1008C00012B282808979C180416A8E18466290F89E
:1008D00008C0B97FBCF1010F07EB410103D1B1F9A9
:1008E0000A70F61B46624A81817F491CC9B2817732
:1008F000092901D983770472416A91FBF5F10184DA
:10090000F0BD0A88DFF890C152BAA0F880214A8869
:1009100052BAA0F882218A8852BA12B2A0F8842171
:100920008979A0F88611D0F8A4118E18C0F8A461B6
:1009300090F888719CF89E11012F0CEB410104D1B5
:10094000B1F98A71F61BC0F8A461A1F88A2190F868
:100950009E11491CC9B280F89E11092903D980F85B
:100960009E3180F88841D0F8A41191FBF5F1A0F8F0
:10097000A011F0BD0A88DFF820C152BAA0F8002308
:100980004A8852BAA0F802238A8852BA12B2A0F852
:1009900004238979A0F80613D0F824138E18C0F820
:1009A000246390F808739CF81E13012F0CEB41018F
:1009B00004D1B1F90A73F61BC0F82463A1F80A2325
:1009C00090F81E13491CC9B280F81E13092903D9D7
:1009D00080F81E3380F80843D0F8241391FBF5F11A
:1009E000A0F82013F0BD0A882B4F52BAA0F880243B
:1009F0004A8852BAA0F882248A8852BA12B2A0F861
:100A000084248979A0F88614D0F8A4148E18C0F82C
:100A1000A46490F888C497F89E14BCF1010F07EB0A
:100A2000410104D1B1F98A74F61BC0F8A464A1F89D
:100A30008A2490F89E14491CC9B280F89E14092992
:100A400003D980F89E3480F88844D0F8A41491FB30
:100A5000F5F1A0F8A014F0BD0888104A40BA00B221
:100A600007E0A0F500501080F0BD08880C4A40BA9D
:100A700000B210804B88B0425BBA5380898849BA73
:100A80009180EEDCF0BDFFE7088842BA054802809D
:100A9000498849BA4180F5E754060020540C0020EB
:100AA000D40D0020540F002030B40D4B40F2FF1441
:100AB0001C6000249C60DC6008241C61094B040A53
:100AC0001C705870080A9870D970100A18715A7101
:100AD00003491B1F30BC1A1D01F1180000F077B844
:100AE0008802002020000020014800F0FBBB00002D
:100AF000CC050020014800F0F5BB00006C0500208B
:100B000001681823CAB2103AB2FBF3F2054B6FF337
:100B10000901032A9B5CC36500D9091D816508464C
:100B200070470000A058000810B5014600208B69EE
:100B30008A6A4FF0C07453B1B3F5005F15D072B13B
:100B4000012A0CD0022A0AD0032A09D104E01AB1E2
:100B5000012A06D0022A03D1C96AC90100D50120A1
:100B600010BDC96AA142FAD010BD002AF7D0012AEF
:100B7000F2D0022AF3D0032AF3D010BD30B50468B6
:100B8000256825F480252560046863608368402B10
:100B9000036803D099600068C26030BD9A60006845
:100BA000C16030BD704790F82020012A09D090F82C
:100BB0002020022A05D0416A41F4802141620120AF
:100BC0007047006842690A43426100207047F0B5EF
:100BD00090F82040012C07D090F82040022C03D040
:100BE000416A41F4802153E00468A5686D0105D491
:100BF000A5682D0102D4A568ED0046D5A46801259D
:100C0000C4F30164A5401D608B684FF4C0759BB1AF
:100C1000CE6833434E6843EAC603066805EB041703
:100C2000F3514FF4C273076803EB04130E69FE50CF
:100C3000097D012905D009E00E88CB6843EA4653B7
:100C4000EBE70168CE5846F48076CE501179D2F8A1
:100C500005304FF4C67641EA0321036806EB04161B
:100C600099511178D2F801204FF4C47341EA02215E
:100C7000026803EB0413D150006805EB04114258DD
:100C800042F0010242500020F0BD416A41F40011DF
:100C900041620120F0BD000010B590F82020012A2B
:100CA00009D090F82020022A05D0416A41F4802121
:100CB0004162012010BD3A48D0F8002242F0010202
:100CC000C0F80022D0F8002222F47C52C0F80022A2
:100CD000D0F800224B6A42EA0322C0F800220B7DC2
:100CE00001229A40D0F81C329343C0F81C32CB69E1
:100CF000B3B9D0F80C329343C0F80C328C894B68EE
:100D000064F31F434C6900EBC404C4F840320C89FF
:100D10000B6864F31F434C6900EBC404C4F844320D
:100D2000CB69012B16D1D0F80C321343C0F80C322A
:100D30000C884B6864F31F434C6900EBC404C4F88F
:100D400040320C89CB6864F31F434C6900EBC40448
:100D5000C4F844328B69002BD0F804320ED0134310
:100D6000C0F804320B69002BD0F8143208D01343BA
:100D7000C0F81432096A012904D008E09343EFE770
:100D80009343F5E7D0F81C121143C0F81C12D0F8B9
:100D9000001221F00101C0F80012002010BD000077
:100DA00000640040704730B590F82040012C07D017
:100DB00090F82040022C03D0416A41F4802109E0E0
:100DC00011B1012909D00CE00468E46807E0416A28
:100DD00041F400114162012030BD04682469A40778
:100DE000F5D04FF4D874056804EB01142D5915F0B3
:100DF0000405956005682D5942D0ED0855600568D9
:100E00002C59C4F34004D4604FF4DA74056804EB41
:100E100001142D5905F00F05156105682D59C5F30D
:100E20000725956105682C59240C54614FF4DC7238
:100E3000046802EB0112A4581C700468A458240A28
:100E40005C700468A458240C9C700468A258120EAC
:100E5000DA704FF4DE72046802EB0112A4581C71C0
:100E60000468A458240A5C710468A458240C9C717A
:100E70000468A258120EDA7129B1012909D00DE0D7
:100E80006D0D1560BBE70068C16841F02001C160CD
:100E900004E00068016941F020010161002030BDDB
:100EA0002DE9F05F0546006800244669D0F80490FB
:100EB0008768D0F80CB0D0F810A0D0F81880F107EF
:100EC00048D0F90714D001218160B80703D528461E
:100ED00000F0EFF90CE0780702D54FF4006407E06A
:100EE000380702D54FF4805402E0284600F0E0F9BC
:100EF000F80516D529684FF480708860B80503D5C9
:100F0000284600F0D8F90CE0780502D544F40054E6
:100F100007E0380502D544F4804402E0284600F09A
:100F2000C9F9F80316D529684FF480308860B803F2
:100F300003D5284600F0C1F90CE0780302D544F44B
:100F4000004407E0380302D544F4803402E0284628
:100F500000F0B2F9300707D55FEACB6004D5296805
:100F6000102044F40074C86070074FF0080707D5DC
:100F70005FEA0B7004D52868C760284600F050F976
:100F8000B00706D52868C068800702D0284600F060
:100F900049F9700607D55FEACA6004D529681020B0
:100FA00044F480640861B00607D55FEA0A7004D58E
:100FB00028680761284600F04DF9F00606D5286834
:100FC0000069800702D0284600F045F9B00308D533
:100FD0005FEAC96005D5296810204860284600F0FE
:100FE0003BF9F00307D55FEA097004D5286847602C
:100FF000284600F063F9300446D55FEA497040D5D1
:10100000F00504D55FEAC87001D044F00104B005D2
:1010100004D55FEA887001D544F00204700504D558
:101020005FEA487001D544F00404300529D518F072
:10103000700F26D008F07000402815D006DC10286C
:1010400009D020280AD0302816D10AE050280ED026
:10105000602811D10EE044F008040DE044F01004C3
:101060000AE044F0200407E044F0400404E044F0C7
:10107000800401E044F480742868816921F07001E3
:101080008161296804204860002C05D0686A2043EB
:1010900068622846FFF786FEBDE8F09F70B5040041
:1010A00003D094F8200010B104E0012070BD204668
:1010B00000F082F82068016821F00201016000F070
:1010C0008DFB0546052604E000F088FB401B0A283E
:1010D00011D8206840688007F6D42068016841F084
:1010E0000101016000F07AFB05460BE000F076FBA1
:1010F000401B0A2806D9606A40F40030606284F818
:101100002060D2E720684068C007EFD0207E012829
:10111000206801683DD021F080010160607E0128D7
:101120002068016838D021F040010160A07E0128CC
:101130002068016833D021F020010160E07E0128A1
:10114000206801682ED041F010010160207F012845
:101150002068016829D021F008010160607F012822
:101160002068016824D021F004010160D4E9020163
:101170000843D4E90412114308436168491E084337
:101180002168C86100206062012084F820000020EE
:1011900070BD41F08001C0E741F04001C5E741F07A
:1011A0002001CAE721F01001CFE741F00801D4E7A0
:1011B00041F00401D9E7000000B50068154987B087
:1011C000884225D114480021026842F00072026072
:1011D0000068022200F0007005900320CDE90210A3
:1011E000CDE900020920049069460C4800F002FA9B
:1011F00000221146132000F0CDFB132000F0BFFBAE
:1012000000220121142000F0C5FB142000F0B7FBE0
:1012100007B000BD0064004040380240000C0240AE
:101220007047000010B5084A016891420AD1074B87
:10123000074A0021FFF7B7FDBDE810400349044805
:10124000FFF724BB10BD0000006400402800002010
:10125000C802002070477047704770B5044690F888
:101260002000012804D0606A40F40020606217E08A
:10127000022084F820002068016821F0010101604B
:1012800000F0ACFA05460DE000F0A8FA401B0A2871
:1012900008D9606A40F400306062052084F82000BC
:1012A000012070BD20684068C007EDD1606270BD4C
:1012B000704770477047704770477047704790F8A5
:1012C0003510022903D08021416501207047052196
:1012D00080F835100068016821F0010101600020EC
:1012E000704700002DE9F84304464FF00009CDF89F
:1012F000009063484FF41651A56D0068B0FBF1F7FC
:101300002E6894F85C20082101FA02F030420FD0D8
:101310002068026852070BD5026822F004020260BE
:1013200094F85C008140A960606D40F00100606548
:1013300094F85C104FF0010808FA01F0304208D030
:1013400021684969090604D5A860606D40F0020073
:10135000606594F85C1004208840304208D0216811
:101360000968890704D5A860606D40F004006065D5
:1013700094F85C1010208840304218D02168096829
:10138000090714D5A86020680168490304D50068DE
:10139000000308D5A16C07E00168C90503D4016802
:1013A00021F008010160216C09B12046884794F8BA
:1013B0005C1020208840304231D021680968C9067D
:1013C0002DD5A86094F8350005282068016806D05E
:1013D000490347D5006800031DD4616C1CE021F06F
:1013E000160101602068416921F080014161206C93
:1013F00008B9A06C20B12068016821F008010160E3
:1014000094F85C103F208840A86084F8349084F8F9
:101410003580216D1FE0E16B09B120468847606D82
:1014200000282BD0606DC00714D0052084F835004B
:101430002068016821F0010101600098401C0090C3
:10144000B84203D820680068C007F6D184F8349009
:1014500084F83580E16C002910D001B02046BDE849
:10146000F04308470168C905D5D4016821F010018F
:10147000016084F8349084F83580CCE7BDE8F883C7
:10148000D00000202DE9F041044600F0A7F9054600
:101490005CB1002684F83460022084F835002068AE
:1014A000016821F0010101600DE00120BDE8F0813B
:1014B00000F094F9401B052805D920206065032021
:1014C00084F83500F2E720680068C007F0D1216891
:1014D0000A6820480240D4E901031843D4E90335DF
:1014E0002B43184363691843A3691843E3691843FE
:1014F000236A18431043626A042A03D1D4E90B23F8
:101500001A431043086020684069656A20F00701AB
:1015100028460D43012704280CD1A06A0543E06A40
:1015200040B12046FFF700FB20B14020606584F801
:101530003570BAE7206845612046FFF7E1FA94F874
:101540005C203F2191408160666584F83570002001
:10155000ACE700003F8010F02DE9F0410446866DB5
:1015600090F83400002501280DD0012084F83400C3
:1015700094F835700020012F07D084F8340002253C
:101580002846BDE8F0810220FBE7022784F8357089
:1015900060652046FFF7F2FA94F85C103F2088401F
:1015A000B0602068016841F016010160206841695F
:1015B00041F080014161206C20B12068016841F058
:1015C000080101602068016841F001010160D7E76E
:1015D00070B5044600F002F90546601C02D00448CC
:1015E0000078044400F0FAF8401BA042FAD370BD22
:1015F000C40000202DE9F84FDFF8A091002209F186
:10160000040A0AF1040B4FF00F080BF1040E012637
:101610000B6896403340B34271D14C68022C01D024
:10162000122C11D1D40800EB84073D6A5407E40E54
:1016300008FA04FC25EA0C05D1F810C00CFA04FCE9
:101640004CEA050CC7F820C007685400032591F840
:1016500004C0A5400CF0030CAF430CFA04FC4CEAA8
:10166000070CC0F800C04F68012F05D0022F03D02F
:10167000112F01D0122F11D18768D1F80CC0AF43C0
:101680000CFA04FC4CEA070CC0F808C04768B743E2
:101690000E79C6F3001696403E434660C668AE43D8
:1016A0008D68A5403543C5604C68E4006FD53C4C5F
:1016B000256845F480452560246822F0030504F47C
:1016C00080440094374C2E19D6F808789407250FDB
:1016D00008FA05F4A743344CA04201D100242EE0BF
:1016E000324CA04201D1012429E0314CA04201D169
:1016F000022424E02F4CA04202D103241FE046E044
:101700002D4CA04201D1042419E02C4CA04201D15F
:10171000052414E02A4CA04201D106240FE0294CF4
:10172000A04201D107240AE0274CA04201D108249D
:1017300005E0264CA04201D1092400E00A24AC4077
:101740003C43C6F80848D9F800404D464E689C43D3
:10175000F60300D51C432C60DAF8004055464E686D
:101760009C43B60300D51C432C60DBF800405D466B
:101770004E689C43F60200D51C432C60DEF8004006
:1017800075464E689C43B60200D51C432C60521C23
:10179000102AFFF43CAFBDE8F88F0000003C014088
:1017A0004438024000300140000002400004024082
:1017B00000080240000C02400010024000140240E9
:1017C00000180240001C0240002002400024024099
:1017D0000AB1816170470904FBE700000148806895
:1017E00070470000C400002002488168027811445C
:1017F00081607047C40000200B4810B5016841F4B7
:1018000000710160016841F480610160016841F488
:1018100080710160032000F0DDF8002000F006F880
:1018200000F024F8002010BD003C024070B50D4DC2
:1018300004464FF47A712878B1FBF0F00A49096840
:10184000B1FBF0F000F0E2FC48B9102C07D2002206
:101850002146501E00F09EF800206C6070BD0120F3
:1018600070BD0000C4000020D00000201F4808B553
:10187000016841F480410160006800F480400090FC
:101880001A48001F016841F080510160006800F0B3
:1018900080500090032000F09DF8002211466FF068
:1018A0000B0000F077F8002211466FF00A0000F0FC
:1018B00071F8002211466FF0090000F06BF8002269
:1018C0001146501F00F066F800221146101F00F06C
:1018D00061F800221146901E00F05CF80022BDE87D
:1018E00008401146501E00F055B800004438024030
:1018F0002DE9F04116460F46040004D094F8390053
:10190000002518B107E00120BDE8F08184F83850C7
:10191000204601F08FF8242084F839002068C1683F
:1019200021F40051C160204602F0AAFF206801693D
:1019300021F4904101612068416921F02A0141614F
:101940002068016921F00F010161206801693943B4
:1019500001612068C16821F40061C1602068C1682C
:101960003143C1602068C16841F40051C160E56342
:10197000202084F8390084F83A000020C4E700F001
:101980001F02012191404009800000F1E020C0F8D1
:1019900000117047F0B40E4B1B68C3F30223C3F170
:1019A0000704042C00D904241D1D072D01D2002397
:1019B00000E0DB1E012606FA04F56D1E0D409D4079
:1019C0009E40761E164045EA0601F0BC02F07EBA43
:1019D0000CED00E0064A00F0070110684FF6FF0327
:1019E000184040EA01200349084310607047000096
:1019F0000CED00E00000FA052DE9F84317480168F6
:101A000041F0805101600068DFF8548000F08050A0
:101A100001270090C8F84070FFF7E0FE04464FF43D
:101A20007A75104E04E0FFF7D9FE001BA8420DD8CE
:101A30007068C003F7D5C8F84470FFF7CFFE0446BE
:101A400007E0FFF7CBFE001BA84202D90320BDE848
:101A5000F88370688003F4D50020F8E7403802402E
:101A600000000E42007000402DE9F0470D460400D2
:101A700065D0DFF81491D9F80000EFB200F00F0044
:101A8000A84207D289F80070D9F8000000F00F00D2
:101A9000A84254D120683D4E810712D5400703D596
:101AA000306840F4E05030602078000703D530689B
:101AB00040F4604030603068A16820F0F0000843D6
:101AC00030602078C0072DD030496068083901287F
:101AD00012D0022813D0032811D0096889070029E1
:101AE0002DDA316821F0030101433160FFF776FE02
:101AF000804641F2883A0EE009688903EFE70968F9
:101B00008901ECE7FFF76AFEA0EB0801514502D915
:101B10000320BDE8F0873068616800F00C00B0EB8E
:101B2000810FEFD1D9F80010484601F00F01A9420A
:101B300007D90770006800F00F00A84201D001200B
:101B4000E7E72078400705D53068E16820F4E050E9
:101B5000084330602078000706D53068216920F4FA
:101B6000604040EAC100306000F03CF83168084A4B
:101B7000C1F30311515CC840064908600020FFF71B
:101B800055FE0020C5E70000003C02400838024036
:101B9000A8580008D00000200148006870470000E5
:101BA000D00000200448054900680968044AC1F3D0
:101BB0008221515CC8407047D000002008380240A4
:101BC000B85800080448054900680968044AC1F388
:101BD0004231515CC8407047D000002008380240B4
:101BE000B8580008154810B5006810F00C011448EA
:101BF00013D0144B04290FD008290ED10F4C241FE9
:101C0000216801F03F022168490207D52068C0F32E
:101C10008810A0FB030106E0184610BD2168C1F33F
:101C20008811A1FB00010023FEF7DCFA2168C1F353
:101C30000141491C4900B0FBF1F010BD08380240D9
:101C40000024F400001BB7002DE9F84F040073D006
:101C50002078BD4DC00748D0BB4808300168C1F3AB
:101C60008101012908D00068C0F3810002280AD14F
:101C7000281D0068400206D52868800335D56068B5
:101C80000028E4D031E06068B0F5803F10D0B0F5B6
:101C9000A02F286810D020F480302860286820F415
:101CA000802028606068A0B1FFF798FD06460CE030
:101CB000286840F48030F4E740F480202860F7E79B
:101CC000FFF78CFD801B642872D828688003F7D545
:101CD0000BE0FFF783FD064604E0FFF77FFD801B66
:101CE0006428F1D828688003F7D42078DFF85C9264
:101CF00080074FF0000A3ED593480830016811F084
:101D00000C0F09D00068C0F3810002280BD18E4867
:101D1000001D0068400206D42868800715D5E068D9
:101D2000012809D111E0E068B8B10120C9F800002C
:101D3000FFF754FD064605E003E1FFF74FFD801B6A
:101D40000228C1D828688007F7D52868216920F0C3
:101D5000F80040EAC10028600DE0C9F800A0FFF7D4
:101D60003DFD064604E0FFF739FD801B02281FD821
:101D700028688007F7D42078000722D5724F74496D
:101D80006069743770B101200860FFF727FD0646CF
:101D900004E0FFF723FD801B022809D8386880077C
:101DA000F7D50EE0C1F800A0FFF718FD064605E0E4
:101DB00081E0FFF713FD801B02287CD8386880077C
:101DC000F7D42078400769D5DFF87CB14FF00008E0
:101DD0000BF1400BDBF80000C0000CD4DBF8001066
:101DE00041F08051CBF80010DBF800004FF0010803
:101DF00000F080500090574F3868C0050FD4386805
:101E000040F480703860FFF7E9FC064604E0FFF715
:101E1000E5FC801B02284ED83868C005F7D54A4F2C
:101E2000A068703701280FD00528386810D020F03E
:101E300001003860386820F004003860A068B0B154
:101E4000FFF7CCFC06460EE0386840F00100F4E7EE
:101E500040F004003860F7E7FFF7C0FC811B41F257
:101E60008830814265D838688007F5D50DE0FFF7E6
:101E7000B5FC064606E0FFF7B1FC811B41F2883055
:101E8000814256D838688007F5D4B8F1000F05D0E4
:101E9000DBF8001021F08051CBF80010A069C8B326
:101EA000294908310968C1F38101022949D0022872
:101EB000504607D000E03CE0C9F86000FFF78EFC18
:101EC000044639E04F46C9F86000FFF787FC064634
:101ED00004E0FFF783FC801B02282AD828688001D1
:101EE000F7D4D4E907010843A16A1B4A490802EB69
:101EF0000141626A41EA8211084394F82C1040EAD9
:101F000001611148001D016001203866FFF766FC81
:101F1000044605E013E0FFF761FC001B022808D827
:101F200028688001F7D50AE0FFF758FC001B02285B
:101F300002D90320BDE8F88F28688001F4D400207E
:101F4000F8E70120F6E700000038024000004742B1
:101F5000800E4742007000400000FFFF70B5040093
:101F600005D00025A56294F8510010B106E00120CB
:101F700070BD84F85050204600F030F8022084F8FC
:101F800051002068016821F040010160D4E901019D
:101F90000843D4E903121143084361690843218BC4
:101FA00001F400710843E1690843216A0843A16A0A
:101FB000084321680860A069042101EA1040616AB1
:101FC0000843216848602068C16921F40061C1614B
:101FD0006565012084F85100002070BD00B50068DF
:101FE0000E4987B0884217D10D480021026842F49B
:101FF00080120260006800F4801005904FF4607059
:1020000000900220CDE901010320039005200490F7
:1020100069460448FFF7EEFA07B000BD00500140E2
:1020200044380240001402402DE9F84F044690F86D
:1020300050000127DDF828809B4616460D464FF0DC
:10204000000901280ED0012084F85000FFF7C6FBDC
:10205000824694F85100616801280CD0B1F5827F66
:1020600007D102E00220BDE8F88FA16809B9042871
:1020700001D00220A2E045B13EB1BBF1000F04D077
:1020800094F85100012802D004E0012096E00520D8
:1020900084F8510000206065A663A4F83EB0A4F85F
:1020A0003CB02563A4F836B0A4F834B02064606472
:1020B00020680168490603D4016841F040010160CD
:1020C000E068B0F5006F606804D0D0B3E08E0128FE
:1020D00038D063E010B1E08E01282BD1216835F8AB
:1020E000020BC860E08E401EE08623E067B1E08E00
:1020F00050B120688168890706D535F8021BC16098
:10210000E08E401EE0860027E08F50B12068816895
:10211000C90706D0C06826F8020BE08F401EE08792
:102120000127B8F1FF3F05D0FFF758FBA0EB0A01EC
:10213000414542D2E08E0028D8D1E08F0028D5D189
:1021400032E0FFE7216815F8010B0873E08E401EAE
:10215000E08623E067B1E08E50B12068816889078E
:1021600006D515F8011B0173E08E401EE08600279E
:10217000E08F50B120688168C90706D0C06806F8B2
:10218000010BE08F401EE0870127B8F1FF3F05D02B
:10219000FFF724FBA0EB0A0141450ED2E08E002898
:1021A000D8D1E08F0028D5D1434601220221204614
:1021B000CDF800A002F009F810B10320814610E02C
:1021C00052464146204601F0F0FF20B120204FF05A
:1021D0000109606505E0A06818B92068C1688068D9
:1021E0000090012084F85100002084F850004846F7
:1021F00039E74FF0E0210428086903D020F00400FB
:102200000861704740F00400FAE7704710B5401EBF
:10221000B0F1807F01D3012010BD4FF0E024606158
:102220000F21601701F052FE0020A06107202061FD
:10223000002010BD10B5FFF7E8FF10BD70477047D4
:1022400030B590F83820012A20D0012380F83830AA
:10225000022280F839200268546824F07004546027
:10226000026854680D682C4354600268946824F036
:10227000800494600268946849680C43946080F814
:102280003930002180F83810084630BD022030BDBA
:1022900010B5040003D094F8390010B107E0012014
:1022A00010BD002084F83800204600F00DF8022010
:1022B00084F83900211D206802F05EF8012084F8BE
:1022C0003900002010BD000008B500681B4A1C49F9
:1022D000904207D1086840F002000860086800F0EA
:1022E000020009E0174A904208D1086840F0040053
:1022F0000860086800F00400009008BD124A90428F
:1023000011D1086840F0100008600868002200F051
:102310001000009001213620FFF73CFBBDE808408B
:102320003620FFF72CBB094A9042E6D1086840F0FE
:1023300040000860086800F04000DDE7000400404D
:1023400040380240000800400010004000180040E3
:102350000168CA6842F00102CA600068016841F081
:10236000010101600020704770B5044690F8380004
:10237000012817D0012584F83850022084F839004C
:102380002068826822F0770222F47F428260086827
:10239000502836D00DDC202858D005DC80B310281A
:1023A00040D150E0022070BD302852D0402839D1B1
:1023B0003EE060282DD070280BD0B0F5805F03D0B0
:1023C000B0F5005F2ED110E02068816821F0070190
:1023D00009E0CB68D1E90121206802F02DF82068DE
:1023E000816841F0770181601CE0CB68D1E901216F
:1023F000206802F021F82068816841F48041F2E70A
:102400001EE0CA684968206802F0DEF850212068A2
:1024100006E0CA684968206802F0E7F86021206891
:1024200002F014F884F83950002084F8380070BDA8
:10243000CA684968206802F0C7F840212068EFE7C1
:1024400000212068ECE710212068E9E720212068BE
:10245000E6E730212068E3E7704770B5044600687E
:1024600001694FF00005C943890715D4C168C94304
:10247000890711D4E91E0161012020762068806956
:102480008007204602D0FFF7E7FF04E000F0D2F813
:10249000204600F054F9257620680169C9434907B0
:1024A00017D4C168C943490713D46FF0040101610F
:1024B000022020762068806910F4407F204602D0F8
:1024C000FFF7CAFF04E000F0B5F8204600F037F946
:1024D000257620680169C943090716D4C168C94334
:1024E000090712D46FF008010161042020762068EA
:1024F000C0698007204602D0FFF7AEFF04E000F07D
:1025000099F8204600F01BF9257620680169C94337
:10251000C90617D4C168C943C90613D46FF01001A6
:102520000161082020762068C06910F4407F2046B1
:1025300002D0FFF791FF04E000F07CF8204600F0A5
:10254000FEF8257620680169C943C90708D1C1682A
:10255000C943C90704D1891E0161204600F0F0F883
:1025600020680169C943090609D4C168C94309063D
:1025700005D46FF0800101612046FFF75FFE2068FF
:102580000169C943490609D4C168C943490605D44C
:102590006FF040010161204600F08AF9206801696E
:1025A000C94389060BD4C168C943890607D46FF0B3
:1025B000200101612046BDE87040FFF740BE70BDBC
:1025C00000B50068154A022185B090420AD110205A
:1025D000CDE90001012002900320CDE90301694605
:1025E0000F480AE00F4B002298420AD180148DE870
:1025F0000700CDE9032169460B48FEF7FBFF05B054
:1026000000BD0A4B9842FAD14FF410708DE80700D4
:102610000920CDE9032069460548EEE700040040A3
:102620000004024000080040000C02400018004076
:10263000001C0240704770B5044690F838000D4603
:1026400001280DD0012684F83860022084F8390072
:1026500042B1042A18D0082A2AD00C2A4DD139E0D8
:10266000022070BD206801F0F9FE2068816941F008
:10267000080181612068816921F00401816120687D
:1026800081692A69114311E0206801F013FF206875
:10269000816941F4006181612068816921F4806170
:1026A0008161206881692A6941EA0221816124E00F
:1026B000206801F031FF2068C16941F00801C16163
:1026C0002068C16921F00401C1612068C1692A69DB
:1026D000114311E0206801F04FFF2068C16941F407
:1026E0000061C1612068C16921F48061C161206815
:1026F000C1692A6941EA0221C16184F83960002078
:1027000084F8380070BD10B5040003D094F8390087
:1027100010B107E0012010BD002084F838002046E9
:1027200000F00CF8022084F83900211D206801F027
:1027300023FE012084F83900002010BD7047704747
:102740002DE9F04700685249884264D1514C524DFE
:10275000DFF848916068DFF848A1002605F12C07F2
:1027600040285AD2618800EE101AB8EE400ADFED18
:102770004D0A04F10C0838F8100060EE200A00EE53
:10278000100AB8EE401A80EE810A10EE100AFDF72A
:102790004AFF41EC100B02F0ABFA9FED431B51ECEA
:1027A000100B53EC112BFDF707FEFDF704FF2885F6
:1027B00000F078FEB5F9280000EE100AB9F93000F3
:1027C000F8EEC00A00EE100A3846B8EEC00A01F072
:1027D0008DFBBDEEC00A10EE100AA5F87C0100F0DA
:1027E000A3FDB5F97C11BAF97C010022FEF75CF972
:1027F0006168608838F81120824202D9401C6080EC
:1028000003E066802078401C20702078142802D1D4
:102810002670491C6160BDE8F0872E8500F042FEFD
:10282000B5F9280000EE100AB9F93000F8EEC00A38
:1028300000EE100A3846B8EEC00A01F057FBBDEEB4
:10284000C00A10EE100AA5F87C0100F06DFDB5F984
:102850007C11BAF97C010022FEF726F960884FF45A
:102860007A71884202D2401C608003E06680207842
:10287000401C20702078142801D0606803E0267086
:102880006068401C60608842C5DD46206060C2E729
:102890000010004038000020D40D0020DC00002093
:1028A000540C0020DA0FC9400000000000E0854011
:1028B0007047704710F8391F407808437047000090
:1028C00070B5026804461068D168536910F00F0FA4
:1028D00050D003F0010501F4907635435DD0C20776
:1028E00005D0CA0503D5E26B42F00102E26342075C
:1028F00005D5DA0703D0E26B42F00202E2638207F9
:1029000005D5DA0703D0E26B42F00402E263020766
:1029100005D5DA0703D0E26B42F00802E263E26B0E
:10292000002A33D0800604D5880602D5204601F05F
:1029300038FF20684069E16BC0F38010090700D4BC
:1029400028B3204601F016FF2068416949061AD5D0
:10295000416921F040014161606BA0B11B490165F3
:10296000606BFEF7ACFC002810D0606B016DBDE819
:1029700070400847830610D58B060ED52046BDE86B
:10298000704001F00EBF2046FFF793FF70BD204658
:10299000FFF78FFF0020E06370BD030606D50B062E
:1029A00004D52046BDE8704002F0C0B84006F3D51B
:1029B0004806F1D5D168204621F04001D1602021A0
:1029C00084F8391000F04CFB70BD0000D5460008BB
:1029D00070B5040004D094F83900002510B106E069
:1029E000012070BD84F83850204600F023F82420E0
:1029F00084F839002068C16821F40051C160204684
:102A000001F03EFF2068016921F4904101612068D6
:102A1000416921F02A0141612068C16841F40051F7
:102A2000C160E563202084F8390084F83A00002072
:102A300070BD00002DE9F04F04460068694A00258A
:102A4000694903260227DFF8A4A187B04FF0010CE3
:102A50004FF00808904216D1086840F40020086042
:102A600008688DE8C01000F40020CDE904806946B4
:102A700003965046FEF7BEFD002202213420FEF7E9
:102A800089FF34205CE0584A594B121D4FF007096A
:102A90004FF0006B98422ED1106840F0100010608B
:102AA000106802AB00F010000590C020CDE90007CF
:102AB00083E8600269464F48FEF79CFD4F4E4E4842
:102AC0003060C6E901B50015C6E903508010756194
:102AD000C6E906504FF44030C6E908053046FEF717
:102AE000D1FC18B1DD2146A002F0E1F86663B463C1
:102AF00007B0BDE8F08F464B984224D1086840F4F7
:102B0000003008600868CDE9027600F400300590D6
:102B10000420CDE9000769465046CDF81090FEF735
:102B200069FD02AA694682E86002CDE90087504645
:102B3000FEF760FD002203212620FEF72BFF262052
:102B4000FEF71DFFD4E7334B984233D1086840F4B9
:102B5000802008600868694600F4802005904FF4E2
:102B600040708DE88110CDE903692B48FEF742FDE6
:102B7000224E2A4860363060C6E901B50015C6E924
:102B8000035080107561C6E906504002C6E9080589
:102B90003046FEF777FC20B14FF4947118A002F094
:102BA00086F86663002211462720B463FEF7F2FE22
:102BB0002720C5E71A4988429AD1106840F02000C2
:102BC0001060106802AB00F0200005904FF48440C4
:102BD000CDE9000783E8600169461248FEF70AFD67
:102BE00086E70000004C00404038024000000240F0
:102BF0000010014000040240406402406C050020C7
:102C00002E2E2F5372632F75736172742E63000022
:102C10000044004000480040000C02402860024090
:102C2000001401400018024037B5044690F83A00FD
:102C300082B0134620283AD1039AAAB3A3B394F8DA
:102C40003800012833D0012084F83800A262A3851F
:102C50000025E563222084F83A00616B1548C863BB
:102C6000616B15480864616B1448C864606B056546
:102C70002168606B091DFEF76FFC206801684168E0
:102C8000009184F83850C16841F48071C1602068B7
:102C9000416941F0010141612068416941F0400111
:102CA0004161002005B030BDFFE70120FAE70220B6
:102CB000F8E700002F4700086B470008E5460008CA
:102CC00090F83A30202B1DD1D1B1CAB190F83830EC
:102CD000012B17D081628285C2850021C163222227
:102CE00080F83A2080F8381001684A6942F0010201
:102CF0004A610068C16841F49071C160002070476A
:102D0000012070470220704770B504462DED048BFA
:102D100000689649884201D101F07AFC9449206804
:102D20000025884267D1934C6078092810D2DFE8EB
:102D300000F0050A141D26313B444F002078262858
:102D400009D1012003E02078252804D102206070F9
:102D5000BDEC048B70BD6570FAE7A188207801EBAB
:102D60000021A1804B3020720320F0E7A188207859
:102D70000144A180217A084420720420E7E72078EA
:102D80002D2802D1A1884942A180217A08442072CD
:102D90000520DCE7E188207801EB0021E180217A41
:102DA000084420720620D2E7E18820780144E180BF
:102DB000217A084420720720C9E720782D2802D103
:102DC000E1884942E180217A084420720820BEE768
:102DD000207A21784FF47A73884202D15220A07071
:102DE00003E0A580E5805720A0700122A11C624865
:102DF00000F0D9F8AFE7614988425CD1604C94F8A3
:102E0000B900552803D194F8BA0052280BD000F02D
:102E100049FABDEC048B2122BDE87040584959485D
:102E2000AE31FFF701BF0020221894F8D01092F8BD
:102E3000B920401C114484F8D0100A28F4DBC8B231
:102E400094F8C310884283D1B4F8BB0000B2FDF7F8
:102E500094FB9FED4D8B53EC182BFDF7ADFA9FEDD6
:102E60004C9B53EC192BFDF7A7FAFDF7EFFB206500
:102E7000B4F8BD0000B2FDF780FB53EC182BFDF752
:102E80009BFA53EC192BFDF797FAFDF7DFFBE06493
:102E9000B4F8BF0000B2FDF770FB53EC182BFDF740
:102EA0008BFA53EC192BFDF787FAFDF7CFFBA064E3
:102EB00084F8D0504CE738498842FBD137490A782A
:102EC000887D02F07F020A4450700878420602D1E1
:102ED0004A78242AEED1401C087000F07F000828B0
:102EE000487D8A7D02D01044487531E7904239D13F
:102EF0002B4A00200B181B791354401C0428F9DBC3
:102F0000274A8878083A64281FD069280FD070288B
:102F100028D1886992680260C8782D2822D18869F2
:102F200090ED000AB1EE400A80ED000A1AE08869CF
:102F300092684260C8782D2814D1886990ED010A02
:102F4000B1EE400A80ED010A0CE088699268C26027
:102F5000C8782D2806D1886990ED030AB1EE400AA1
:102F600080ED030A4D750D70F2E60000001001407F
:102F700000440040620F0020AC04002000480040E4
:102F8000DC000020EC040020000000000000003FF6
:102F90000000000000409F40004C00406C0F0020EB
:102FA0004000002070472DE9F843044690F83900AE
:102FB0001E4617460D46202850D1A5B19FB194F862
:102FC000380001284AD0012084F838004FF000086A
:102FD000C4F83C80212084F83900FEF7FFFBA78469
:102FE0008146E78426E00120BDE8F883E08C401E9E
:102FF000E084A0684B46B0F5805F4FF000024FF0D0
:1030000080012046009603D001F0C1FDE8B90DE033
:1030100001F0BDFDC8B928882168C0F308004860E8
:10302000206908B16D1C05E0AD1C03E0216815F8AE
:10303000010B4860E08C0028D8D14B46002240218B
:103040002046009601F0A3FD08B10320CCE7202024
:1030500084F8390084F838800020C5E70220C3E7EF
:103060007047000001A001F023FEFBE765727200CB
:1030700070B50D4C0025C4F894520C48016821F439
:1030800040710160016841F480710160C4F89052A0
:10309000022004F5247402F0F3FA0120606002209B
:1030A00002F0EEFA656070BD00004242001002407E
:1030B00003480121C0F89412C0F890127047000034
:1030C0000000424270B50D4C0026C4F894620C48D2
:1030D000016821F440710160016841F48071016070
:1030E0000125C4F89052022004F5247402F0C8FAB5
:1030F0006560022002F0C4FA666070BD00004242C2
:10310000001002402DE9F04781461648002401686E
:1031100021F44071016001680160134E2546274685
:103120004FF00108C6F89472022002F0A9FAC6F81E
:1031300094826006040ED6F8100208B1641CE4B252
:10314000012002F09DFA6D1CEDB2082DEAD3B9F111
:10315000000F04D0FFF78CFF2046BDE8F087FFF793
:10316000B1FFF9E700100240000042422DE9F041B2
:1031700005461448016821F440710160016841F47A
:1031800080710160104E0027C6F894723C464FF0E3
:103190000108E809C6F890026806050E022002F050
:1031A0006FFAC6F89482022002F06AFAC6F89472A6
:1031B000022002F065FA641CE4B2082CE9D3BDE8F1
:1031C000F0810000001002400000424270B50D483E
:1031D000016821F440710160016841F4807101606F
:1031E000094C0120C4F89002C4F89402042004F5AC
:1031F000247402F045FA00252560042002F040FA0C
:10320000656070BD00100240000042420E4810B5DB
:10321000016821F440710160016841F4807101602E
:103220000A4C0020C4F89402C4F89002042004F56B
:10323000247402F025FA012060602060BDE810408F
:10324000042002F01DBA00000010024000004242BB
:1032500070B512480024016821F4407101600168D2
:1032600001600F4D0126C5F89062304602F008FA61
:10327000C5F89462012002F003FA07E0641CE4B28E
:10328000FA2C03D9FFF7C2FF012070BDD5F8100258
:103290000028F3D1C5F8940270BD00000010024070
:1032A0000000424208B507A04FF47A73006800900E
:1032B000032269460448FFF776FE0A2002F0D2F99D
:1032C00008BD0000FFAA5200EC0400209FED120A86
:1032D000002180ED040A9FED110A80ED050AB6EE8B
:1032E000000A80ED060A9FED0E0A80ED070A9FEDA9
:1032F0000D0A00EB8102491CC9B282ED0E0A0429B5
:10330000F7D3F7EE000AC0ED120A80ED130A80ED44
:10331000140AC0ED150A70476F12833AA69B443B0E
:103320000AD7A33B000000001C4810B5B0F902000A
:10333000FDF723F99FED1A1B53EC112BFCF795FFBA
:10334000FDF739F9184C00B218496085884200DA57
:103350006185B4F92A106FF0C700814200DD6085F5
:103360001348B0F9320000EE100AB4F92A00B8EEA2
:10337000C01A00EE100AB4F90000F8EEC00A00EE20
:10338000100A0C48B8EEC00A00F090FEBDEEC00A6C
:1033900010EE100AA4F87C0110BD00003E060020CB
:1033A00000000000000089C0540C002088FAFFFFD4
:1033B000DC000020600D00202DE9F04130494FF67F
:1033C000E0402DED028B0024488501F5C07140F2EC
:1033D000A2309FED2C8ADFED2C8A4FF47A76488557
:1033E000A1F5F065B70004EB440005EBC010B0EEAA
:1033F000481AF0EE680AB7EE080A33463A46032147
:103400002C3000F0C5FE641C042CECDB41F2883447
:10341000B6EE001ADFED1D0A9FED1D0A3346224667
:1034200003211C4800F0B4FE15484FF4FA75B0EEC5
:10343000481AF0EE480A9FED180A2B46324603213F
:103440002C3000F0A5FEB0EE481AF0EE480AB0EEBF
:10345000480A334622460321104800F099FEF0EE58
:10346000480ABDEC028B2B463246BDE8F0410948C4
:103470000321B2EE041A9FED0A0AA03000F088BEC4
:10348000540C002000000000CDCCCC3D6F1203BBDB
:103490003333B3C0600D00203333A3C1E00E0020EE
:1034A000CDCCCCC01C4A10B5911E881E00F03DF951
:1034B000194A243A911E881E00F01EF91648343825
:1034C00030F8301F428A891A09B200EE101A0180C2
:1034D0004288F8EEC00A9FED110A838A80EE801AB6
:1034E000D21A12B2428000EE902A8388C48AF8EE83
:1034F000E00A1B1B1BB2838000ED031A80EE801ACA
:1035000000EE903AF8EEE00A00ED021A80EE801A22
:1035100000ED011A10BD000010010020333383417B
:103520002DE9F05FDFF85C8014270026354634462D
:1035300008F1340B08F1320A08F1300910E05A465C
:103540005146484600F0F1F8B8F93010B8F93400A7
:103550000E44B8F9321004440D44642002F082F89D
:103560007F1EECD2142196FBF1F2404620F8422F48
:1035700095FBF1F294FBF1F14280A8F84610BDE80A
:10358000F09F0000DC00002010B5FFF791FD8021C6
:103590006B2000F071F9642002F064F800216B20C8
:1035A00000F06AF9032000F030F9002000F028F95B
:1035B0004FF47A74204600F048F90021382000F0DA
:1035C0005BF900216A2000F057F97021232000F0F8
:1035D00053F98021372000F04FF9752000F0BEF834
:1035E000682801D0012010BD01216B2000F044F9B2
:1035F00000216C2000F040F9204600F026F9002060
:1036000010BD000030B585B0002414221249684670
:10361000FCF719FE6420FDF7DBFF752000F022F8AF
:103620000E496D46087005EB4400417815F814000A
:1036300000F03CF80120FDF7CBFF641CE4B20A2C3B
:10364000F1D30748FFF742FE05485838FFF73EFE22
:1036500005B0002030BD00008C580008010000209B
:1036600018020020F8B50E4D0021C5F898120D4E35
:1036700040F0800037243071F21C0123511C0A48AD
:1036800005F526750094FEF7CFFCF21C0123511CB2
:1036900005480094FEF7C8FC01202860F078F8BDCA
:1036A0000080424201000020E4020020F8B50F4CE7
:1036B0000E460021C4F898120D4D00F07F00372708
:1036C000A8706A1C0123511C0A4804F5267400974F
:1036D000FEF7AAFCAE706A1C0123511C0548009736
:1036E000FEF7A2FC012020600020F8BD00804242CD
:1036F00001000020E40200207CB514460D46064679
:103700006B4606223B21682000F045F800280BD1CB
:10371000BDF8001049BA3180BDF8021049BA2980BD
:10372000BDF8041049BA21807CBD7CB514460D4615
:1037300006466B4606224321682000F02CF800283C
:103740000BD1BDF8001049BA3180BDF8021049BA5A
:103750002980BDF8041049BA21807CBD10B504460B
:10376000FFF734FDD020FFF701FDFFF771FD204684
:10377000FFF7FCFCFFF76CFDFFF728FDD120FFF7FA
:10378000F5FCFFF765FD0020FFF7BCFC0446FFF7E2
:103790003DFD204610BD2DE9F0411C4615460F4663
:1037A0000646FFF713FD7006000EFFF7DFFCFFF77C
:1037B0004FFD20B1FFF72AFD0120BDE8F08138461A
:1037C000FFF7D4FCFFF744FDFFF700FD012000EBFD
:1037D0004600C0B2FFF7CAFCFFF73AFD08E0012D32
:1037E0000CD00120FFF78EFC6D1E04F8010BEDB22A
:1037F000002DF4D1FFF70AFD0020DEE70020F1E7FD
:10380000C006010E1C2000F037B8C006010E1B20B8
:1038100000F032B80021FF2814D2BC2801D30121C6
:1038200010E0622801D302210CE02A2801D30321F1
:1038300008E0142801D3042104E00A2801D305215B
:1038400000E006211A2000F017B810B504464FF426
:103850007A70844201D9044602E0042C00D2042488
:10386000B0FBF4F0401EC1B2192000F005F860086A
:10387000BDE81040FFF7CEBF70B50C460546FFF718
:10388000A5FCD020FFF772FCFFF7E2FC50B92846F8
:10389000FFF76CFCFFF7DCFC2046FFF767FCFFF747
:1038A000D7FC18B1FFF7B2FC012070BDFFF7AEFCEA
:1038B000002070BD104810B50E490160052141601F
:1038C00000214FF400328160C0E9031252014261CD
:1038D0000176012242768176C17601774277FDF743
:1038E000DDFB002805D0BDE810404B2103A001F00E
:1038F000DEB910BD00640040A00200202E2E2F5320
:1039000072632F63616E2E6300000000114808B5DA
:10391000016841F480010160016801F480010091B7
:10392000016841F4001101600068002200F40010F9
:10393000009011460C20FEF72DF80C20FEF71FF822
:10394000002211463A20FEF725F8BDE808403A204B
:10395000FEF715B8303802402DE9F043464887B0ED
:103960000025016841F040010160016801F040015B
:103970000591016841F002010160016801F0020156
:103980000591016841F010010160016801F010012A
:103990000591016841F008010160016801F008012A
:1039A0000591016841F080010160016801F080012A
:1039B0000591016841F020010160016801F02001DA
:1039C0000591016841F00101016000682B4F00F092
:1039D00001004FF400540590002221463846FDF7BF
:1039E000F7FEDFF89C900122B0214846FDF7F0FE7B
:1039F000DFF89080002240214046FDF7E9FE0122D9
:103A0000960331464046FDF7E3FE00940124CDE9DC
:103A10000145694638460395FDF7ECFD3020CDE9B8
:103A200000040320CDE9024069464846FDF7E2FD67
:103A300040208DE83100694640460395FDF7DAFDE8
:103A4000A002CDE90005694602940F48FDF7D2FDBA
:103A5000CDE9006469464046CDE90245FDF7CAFD5F
:103A60008020CDE9000469464846CDE90245FDF7CE
:103A7000C1FD07B0BDE8F0833038024000180240B5
:103A80000010024000140240000C0240114810B522
:103A90000F4901604FF48271416000218160C16073
:103AA0004FF400720161C0E905123022C0E907211C
:103AB000416281620A21C162FEF750FA002805D0F6
:103AC000BDE81040452104A001F0F1B810BD000090
:103AD00000500140E40200202E2E2F5372632F73FA
:103AE00070692E630000000010B524488CB0224994
:103AF000016059210024C0E9011440F6C311C0E956
:103B00000314FEF7C5FB18B1B5211DA001F0CFF8D5
:103B10004FF48050079007A91848FEF725FC18B10C
:103B2000BB2117A001F0C3F81448FEF7ECFD18B153
:103B3000C02113A001F0BBF8602000904FF47A7010
:103B4000CDE90104002269460C480494FEF773FD98
:103B500018B1C9210AA001F0AAF804226946074851
:103B6000FEF769FD18B1CE2105A001F0A0F80348C9
:103B7000FEF726FD0CB010BD00180040F003002039
:103B80002E2E2F5372632F74696D2E630000000078
:103B900010B525488EB023490160B3210024C0E947
:103BA00001144FF47A71C0E90314FEF771FB18B1E8
:103BB00042211EA001F07BF84FF48050079007A926
:103BC0001948FEF7D1FB18B1482118A001F06FF891
:103BD0001548FEF798FD18B14D2114A001F067F8C3
:103BE0000B940BA910480C94FEF72AFB18B1542132
:103BF0000EA001F05CF8602000904FF4FA70CDE95F
:103C000001040022694608480494FEF714FD18B127
:103C10005D2106A001F04BF80348FEF7D1FC0EB081
:103C200010BD0000000400403C0300202E2E2F5346
:103C300072632F74696D2E630000000010B5254873
:103C40008EB02349016059210024C0E9011440F2DB
:103C5000CF71C0E90314FEF71BFB18B171211EA040
:103C600001F025F84FF48050079007A91948FEF796
:103C70007BFB18B1772118A001F019F81548FEF761
:103C800042FD18B17C2114A001F011F80B940BA98E
:103C900010480C94FEF7D4FA18B183210EA001F05D
:103CA00006F8602000904FF4FA70CDE9010400227C
:103CB000694608480494FEF7BEFC18B18C2106A0A2
:103CC00000F0F5FF0348FEF77BFC0EB010BD0000CE
:103CD00000080040780300202E2E2F5372632F74AB
:103CE000696D2E63000000001CB510480E490024C9
:103CF00001605921C0E9011440F2E731C160FEF7CB
:103D0000C7FA18B19D210AA000F0D1FF00946946BE
:103D100006480194FEF794FA002803D0A42104A0D9
:103D200000F0C5FF1CBD000000100040B4030020DF
:103D30002E2E2F5372632F74696D2E6300000000C6
:103D40000D4810B50B4901604FF416514160002138
:103D500081600C22C160C0E904128161C161FEF77B
:103D600037FE002805D0BDE810404D2103A000F02B
:103D70009EBF10BD004C00402C0400202E2E2F535F
:103D800072632F75736172742E6300000D4810B555
:103D90000B4901600C494160002181600C22C16027
:103DA000C0E9041281610A46C161FDF7A1FD002846
:103DB00005D0BDE81040602104A000F078BF10BD20
:103DC000001001406C040020A08601002E2E2F530D
:103DD00072632F75736172742E6300000E4810B504
:103DE0000C4901604FF4E1314160002181600C22F7
:103DF000C160C0E9041281610A46C161FDF778FD26
:103E0000002805D0BDE81040732104A000F04FBF8A
:103E100010BD000000440040AC0400202E2E2F53A3
:103E200072632F75736172742E6300000D4810B5B4
:103E30000B4901604FF4E1314160002181600C22A7
:103E4000C160C0E904128161C161FEF7C1FD0028B3
:103E500005D0BDE81040862103A000F028BF10BDAA
:103E600000480040EC0400202E2E2F5372632F7563
:103E7000736172742E6300000E4810B50C49016026
:103E80004FF4E1314160002181600C22C160C0E942
:103E9000041281610A46C161FDF72AFD002805D0A0
:103EA000BDE81040992104A000F001BF10BD000042
:103EB000001401402C0500202E2E2F5372632F7505
:103EC000736172742E630000FEE770470907090EE4
:103ED000002806DA00F00F0000F1E02080F8141D41
:103EE000704700F1E02080F80014704700B530EE14
:103EF000C01A80ED090AC0ED060A80ED0C1AD0ED5B
:103F0000151A01469FED682A30EEC00AF5EEC01A78
:103F1000B1EE400AF1EE10FA0ED0B5EEC01AF1EE95
:103F200010FA02DDF0EE410A01E0F0EE400AF4EE94
:103F3000E10AF1EE10FA12DCD1ED160AF5EEC00A34
:103F4000F1EE10FA0ED0B5EEC01AF1EE10FA01DD66
:103F5000B0EE410AB4EEE00AF1EE10FA02D2B0EE91
:103F6000420A00BDCA6D01F13800032A02D0042ABA
:103F700037D078E091ED000A20EE010A81ED0D0ABC
:103F800091ED0E0AD1ED010A00EE810A81ED0E0AD3
:103F900091ED0B0AD1ED030A31EE400A20EE200A22
:103FA00081ED0F0A91ED190AB8EE400A01F03FFBCE
:103FB00091ED0D0AD1ED0E0A01F1400030EE200A1C
:103FC000D1ED0F0A30EE200A81ED100A91ED180AAA
:103FD000B8EE400A01F02BFB91ED100A81ED110AB9
:103FE00041E091ED0B0AD1ED001A71EE400A60EE4E
:103FF000A10AC1ED0D0AD1ED010A60EE810AC1ED01
:104000000E0AF0EE000A00EE601A91ED0A0AD1EDF8
:10401000030A31EE000A20EE200A81ED0F0A91ED2D
:10402000190AB8EE400A01F002FB91ED0D0AD1ED3C
:104030000E0A01F14C0030EE200AD1ED0F0A30EEED
:10404000200A81ED120AD1ED140A30EE800A81EDCA
:10405000130A91ED180AB8EE400A01F0E8FA91ED62
:10406000130A81ED140A91ED0B0A81ED0A0A91ED14
:104070000C0A81ED0B0A91ED080A81ED070A91ED1A
:10408000090A81ED080A91ED050A81ED040A91ED16
:10409000060A81ED050AC86D032802D091ED130AC6
:1040A00000BD91ED100A00BD0000000000B580EDDC
:1040B000090A30EEC00AC0ED060A014680ED0C0A7E
:1040C000C06D03283FD1D1ED000A2F4A60EE800A6F
:1040D000C1ED0D0AD1ED010AF0EEE01A11EE900AE1
:1040E000904206DBD1ED0E1A40EE801AC1ED0E1A99
:1040F00003E09FED260A81ED0E0A91ED030A01F11E
:10410000380020EE410A81ED0F0A91ED190AB8EE50
:10411000400A01F08CFA91ED0D0AD1ED0E0A01F181
:10412000400030EE200AD1ED0F0A30EE200A81ED7A
:10413000100A91ED180AB8EE400A01F078FA91EDF4
:10414000100A81ED110A91ED0B0A81ED0A0A91ED39
:104150000C0A81ED0B0A91ED080A81ED070A91ED39
:10416000090A81ED080A91ED050A81ED040A91ED35
:10417000060A81ED050AC86D032802D091ED130AE5
:1041800000BD91ED100A00BD6F12833A00000000DF
:1041900030B4034C8466034CC46630BC01F05ABB97
:1041A0005558000867580008704738B50B4600920C
:1041B00004460022802100F008F8002804D0606D39
:1041C00040F020006065032038BD2DE9F0411D4618
:1041D00017460E460446DDF8188035E0681C33D0DB
:1041E0002DB1FDF7FBFAA0EB0800A8422CD3206804
:1041F000416821F0E00141606068B0F5827F0BD139
:10420000A068B0F5004F02D0B0F5806F04D12068EF
:10421000016821F040010160A06AB0F5005F0AD199
:10422000206801684DF6FF72114001602068016846
:1042300041F400510160012084F85100002084F80D
:1042400050000320BDE8F0812068806836EA000055
:1042500004D00020B842C1D10020F3E70120F9E7E3
:10426000704710B5FDF7C0FABDE81040FDF7E2BF9A
:1042700030B5274893B00025016841F080510160B6
:10428000006800F0805011902248016841F44041DC
:1042900001600068022400F4404011900120009069
:1042A000000401908001CDE9064006200890B4206A
:1042B000CDE9090404200B906846FDF7C5FC00B168
:1042C000FEE7FDF799FB00B1FEE70CA90F2081E89E
:1042D00031004FF4A0500F904FF480501090052102
:1042E0000CA8FDF7C1FB00B1FEE7FDF755FC4FF44C
:1042F0007A71B0FBF1F0FDF789FF0420FDF779FF3B
:1043000000221146501EFDF745FB13B030BD0000E2
:1043100040380240007000401048016841F47001CC
:1043200001600F48016841F0010101600C4A002161
:104330000832116002680B4B1A400260031D0A4AE2
:104340001A60026822F48022026005480C30016085
:1043500002495806803908607047000088ED00E087
:1043600000380240FFFFF6FE103000240148FEF73F
:1043700074B80000B4030020F0B50268234D244E49
:10438000244FDFF894C0254B4FF0804EA84209D04F
:10439000704507D0B04205D0B84203D0604501D087
:1043A000984203D122F070044A682243A8421BD0ED
:1043B000704519D0B04217D0B84215D0604513D01F
:1043C000984211D0164CA0420ED0164CA0420BD0F1
:1043D000154CA04208D0154CA04205D0144CA04268
:1043E00002D0144CA04203D122F44074CA68224384
:1043F00002608A68C2620A688262A84201D098425A
:1044000001D10969016301214161F0BD0000014052
:104410000004004000080040000C0040000401407F
:1044200000400140004401400048014000180040A5
:10443000001C00400020004010B5846842EA0322BE
:1044400024F47F440A432243826010BD826822F034
:1044500070020A4342F007018160704730B5026A7A
:1044600022F001020262056A426883690C6823F047
:1044700073031C438B6825F002052B430B4DA842A8
:1044800002D00B4DA8420BD123F00805CB6822F4D3
:1044900040722B434D6923F0040315438A692A4374
:1044A0004260846149684163036230BD000001409D
:1044B0000004014030B5026A22F010020262036A71
:1044C000426884690D6824F4E64444EA05248D6852
:1044D00023F0200343EA05130D4DA84202D00D4DF1
:1044E000A8420ED1CD6823F0800343EA05134D693D
:1044F00022F4406242EA85028D6923F0400342EAD9
:1045000085024260846149688163036230BD0000B6
:10451000000001400004014030B5026A22F48072BC
:104520000262036A4268C46923F4007324F07305CD
:104530000C682C438D6843EA05230D4DA84202D038
:104540000C4DA8420ED1CD6823F4006343EA052345
:104550004D6922F4405242EA05128D6923F48063CA
:1045600042EA05124260C4614968C163036230BD1A
:10457000000001400004014030B5026A22F480527C
:104580000262036A4268C4690D6824F4E64444EA9E
:1045900005248D6823F4005343EA0533084DA842EF
:1045A00002D0084DA84204D14D6922F4804242EA6B
:1045B00085124260C46149680164036230BD000035
:1045C000000001400004014010B5046A036A23F0B2
:1045D00001030362836923F0F00343EA021324F02A
:1045E0000A020A438361026210BD10B5036A23F018
:1045F000100303628469036A24F4704444EA0232BB
:1046000023F0A00343EA01118261016210BD0000A2
:104610001D480188C1F30A0200F11201A2F580626F
:104620000A804278D308827843EA4213C3F30A032C
:10463000A3F580634B80C378920942EA8303027931
:1046400043EA8223C3F30A03A3F580638B805308F4
:10465000427943EAC213C3F30A03A3F58063CB8014
:1046600093090B72C2F301124A72C2884A8102890D
:104670008A814289CA81027B0A74427B4A74C28958
:104680004A82008A888270472C06002070B50E4846
:10469000FEF716F90D4C0025256002E02068401C4D
:1046A00020600948FEF706F92028F7D12560084D5B
:1046B00002E02068401C2060012229460248FEF7E3
:1046C000FFFA0028F5D170BD2C0400203000002036
:1046D000820F002010B5806B0021C185C184FEF7D8
:1046E000E8F810BD70B5846B2068406994F8391003
:1046F000C0F3C0100025212904D118B1E58420465B
:1047000000F046F82068406994F83A10C0F3801031
:10471000222904D118B1E585204600F02BF8E06B82
:1047200040F01000E0632046FEF7C3F870BD10B5FE
:104730000146806B09680968C90513D40021C18549
:104740000168CA6822F48072CA6001684A6922F06E
:1047500001024A6101684A6922F040024A6120214F
:1047600080F83A10FEF7D0FA10BD10B5806BFEF756
:1047700019FC10BD0168CA6822F49072CA60016811
:104780004A6922F001024A61202180F83A107047FC
:104790000168CA6822F0C002CA60202180F839107E
:1047A000704710B590F83A10222901D0022010BDB0
:1047B0008168B1F5805F11D00169002901681FD0BF
:1047C000496801F07F03816A4A1C82620B70C18DC7
:1047D000491E0904090CC18518D026E00269816AC6
:1047E000002A0268526805D0D2B20A80816A491C48
:1047F0008162ECE7C2F308020A80816A891CF7E74C
:104800004A68816A4B1C83620A70E0E70168CA68E3
:1048100022F49072CA6001684A6922F001024A617A
:10482000202180F83A10FEF76FFA002010BD00003A
:1048300070B500240D460646182900D918252420F5
:1048400001F016F8252001F013F82846FBF7A6FE24
:104850009FED091B53EC112BFBF7AEFDFBF7CAFED6
:10486000C0B201F005F804E0305D01F001F8641C0D
:1048700064B2AC42F8DB70BD000000000000D03F25
:104880002DE9F04104460068016921F44052E168D5
:10489000114301612068C16849F20C6291432369A8
:1048A000A268E5691A4363692B431A430A43C2604D
:1048B00020684169A26921F440710A434261E069BC
:1048C0006425B0F5004F974A974920684FF03208A9
:1048D0003FD0884201D090427CD1FDF773F900EBC4
:1048E000C00101EB001061688900B0FBF1F6FDF733
:1048F00069F900EBC00101EB001061688900B0FBB1
:10490000F1F0B0FBF5F06FF01801484306EB8001C1
:1049100008EB0110B0FBF5F000F0F006FDF752F9DE
:1049200000EBC00101EB001061688900B0FBF1F001
:10493000B0FBF5F006EB0016FDF744F900EBC00103
:1049400001EB001061688900B0FBF1F7FDF73AF95F
:10495000D2E0884201D090423DD1FDF733F900EB1F
:10496000C00101EB001061684900B0FBF1F0B0FB41
:10497000F5F00601FDF726F900EBC00101EB001090
:1049800061684900B0FBF1F7FDF71CF900EBC001CD
:1049900001EB001061684900B0FBF1F0B0FBF5F0ED
:1049A0006FF01801484307EB800108EBC100B0FB32
:1049B000F5F000F0F80006EB4006FDF703F900EB18
:1049C000C00101EB001061684900B0FBF1F7FDF791
:1049D000F9F83CE055E0FDF7E5F800EBC00101EB2C
:1049E000001061684900B0FBF1F0B0FBF5F0060182
:1049F000FDF7D8F800EBC00101EB00106168490039
:104A0000B0FBF1F7FDF7CEF800EBC00101EB0010B1
:104A100061684900B0FBF1F0B0FBF5F06FF01801F0
:104A2000484307EB800108EBC100B0FBF5F000F054
:104A3000F80006EB4006FDF7B5F800EBC00101EB0E
:104A4000001061684900B0FBF1F7FDF7ABF800EB2F
:104A5000C00101EB001061684900B0FBF1F0B0FB50
:104A6000F5F06FF01801484307EB800108EBC10037
:104A7000B0FBF5F000F00700216830448860BDE825
:104A8000F081FDF78FF800EBC00101EB00106168C9
:104A90008900B0FBF1F6FDF785F800EBC00101EBF2
:104AA000001061688900B0FBF1F0B0FBF5F06FF029
:104AB0001801484306EB800108EB0110B0FBF5F04C
:104AC00000F0F006FDF76EF800EBC00101EB0010FE
:104AD00061688900B0FBF1F0B0FBF5F006EB001661
:104AE000FDF760F800EBC00101EB00106168890080
:104AF000B0FBF1F7FDF756F800EBC00101EB001039
:104B000061688900B0FBF1F0B0FBF5F06FF01801BF
:104B1000484307EB800108EB0110B0FBF5F000F013
:104B20000F00A9E7001401400010014090F839106F
:104B3000212901D0022070478168B1F5805F016AA8
:104B40000BD04A1C0262026809785160C18C491E70
:104B50000904090CC1840ED017E009880268C1F36A
:104B60000801516001690029016A02D0491C0162F3
:104B7000ECE7891CFBE70168CA6822F08002CA6082
:104B80000068C16841F04001C160002070472DE914
:104B9000F0411E46174688460446069D1CE0681CE8
:104BA0001AD025B1FCF71AFE801BA84214D9206840
:104BB000C16821F4D071C1602068416921F0010110
:104BC0004161202084F8390084F83A00002084F8FC
:104BD00038000320BDE8F0812068016838EA010050
:104BE00004D00020B842DAD00020F3E70120F9E732
:104BF00070B50E48FDF764FE0D4C0025256002E0FF
:104C00002068401C20600948FDF754FE2028F7D199
:104C1000256002E02068401C20600122054903480D
:104C2000FEF74EF80028F5D170BD0000AC0400205E
:104C300030000020620F002008B50E48FDF740FE4E
:104C40000D490C4A0020086010680368DB0610D587
:104C5000036840680090506B026852680A60006800
:104C600040680860BDE80840212204490148FDF77A
:104C7000DBBF08BDEC040020300000208A010020CA
:104C800010B50848FDF71CFE0648FDF713FE202866
:104C9000FAD1012204490348FEF712F80028F8D19E
:104CA00010BD00002C05002034000020FEE7FEE7C8
:104CB000014A024900F0AABCCD560008D4000020E9
:104CC00003B401984100009850EAC12018BF0420A5
:104CD0004A0D18BF40F0010040F2FF72B2EB515F85
:104CE00008BF40F00200012808BF052002B070474D
:104CF00010B52F499FED2C1B2DED020B84B00598AC
:104D000020F000408842DCBF00209DED040B32DD26
:104D10002849884209D1049840B94FF0010000F0B9
:104D20006FFC00F03DFC06B010BD05DB9DED040BF3
:104D300000F02AFC06B010BD68469DED040B00F0A3
:104D40003BF810F0030011D0012818D09DED021B94
:104D50009DED000B02281AD000F04AFA51EC100B1E
:104D600081F0004106B041EC100B10BD9DED021B1F
:104D70009DED000B012000F06FFB06B010BD9DED16
:104D8000021B9DED000B00F033FA06B010BD0120B0
:104D900000F062FB51EC100B81F0004106B041ECD9
:104DA000100B10BD0000000000000000000000001B
:104DB000FB21E93F0000F07F2DE9F14F04462DED86
:104DC000020B2DED088B8AB09FEDE70B80ED020BF7
:104DD000139EE74826F0004585420ADC9DED120B44
:104DE000002084ED000B0AB0BDEC088B03B0BDE8D9
:104DF000F08FE0489FEDE0AB9FEDE1BBA84247DDBF
:104E0000E14F9FEDE39B9FEDE48B9DED120B53EC87
:104E10001A2B51EC100B002E1CDDFBF7C7FA41ECEE
:104E2000100BBD4208D053EC1B2B51EC100BFBF7C1
:104E3000BDFAC4E900010BE053EC192B51EC100B47
:104E4000FBF7B4FA53EC182BFBF7B0FAC4E90001F6
:104E50000120C8E7FBF709FA41EC100BBD4208D06E
:104E600053EC1B2B51EC100BFBF7FFF9C4E90001CD
:104E70000BE053EC192B51EC100BFBF7F6F953EC4C
:104E8000182BFBF7F2F9C4E900014FF0FF30AAE755
:104E9000C348A84279DB9DED120B51EC100B00F0DA
:104EA00009FC41EC180B9FEDC00B53EC102BFBF7EA
:104EB00083FA9FEDBF1B53EC112BFBF7D6F9FBF7E1
:104EC0007AFB0746FBF759FB41EC190B53EC1A2B05
:104ED000FBF772FA53EC182BFBF76BFA41EC180B4B
:104EE00053EC1B2B51EC190BFBF766FADFF8C8A249
:104EF00041EC100B4FEA15580125FA4453EC102BE6
:104F000051EC180BFBF752FA032DC4E900013DD018
:104F1000C1F30A5005EB4511A8EB0000113981429D
:104F200034DA0AEB051BB0EE48AA9BED000BF0EE5D
:104F300068AA53EC102B51EC190BFBF73DFA41EC2E
:104F40001B0B51EC1A0B53EC1B2BFBF72FFA41EC0C
:104F5000180B51EC1A0B53EC182BFBF727FA53ECF8
:104F60001B2BFBF723FA9BED020B41EC1A0B53ECC6
:104F7000102B51EC190BFBF71FFA53EC1A2BFBF714
:104F800015FA41EC100B6D1CB8E70EE0002EA8BF1F
:104F90003846BFF628AF94ED000B51EC100B81F0B2
:104FA0000041C4E9000178421DE7C6F3130040F454
:104FB000801EC6F30A50A0F2F530471100F01F051D
:104FC000C5F12000DDF848B0089000200690079059
:104FD0000520EC467949002D07EB0002794408BF13
:104FE00051F8221009D051F8223001EB8201AB4078
:104FF0004A68089922FA01F11943A1FB0E26A1FB88
:105000000B131A449A4234BF0123002303EB060812
:105010000CEB8003D3E901A60E448E4234BF01217C
:10502000002192448A4411B1924502D903E092458D
:1050300001D2012100E00021C3E901A641444CF85E
:105040002010011EA0F10100C4DC029800F1005004
:10505000850F0298DDE903678000DDF81480FBF717
:105060008CFA41EC1A0B3046FBF798FA9FED541B73
:1050700053EC112BFBF7A0F941EC1B0B3846FBF767
:105080008DFA9FED511B53EC112BFBF795F941EC79
:10509000180B4046FBF782FA9FED4D1B53EC112B8A
:1050A000FBF78AF941EC190B51EC180B53EC192B57
:1050B000FBF7DBF853EC1B2BFBF7D7F853EC1A2B61
:1050C000FBF7D3F8CDE90801002008909DED080B0F
:1050D00053EC1A2B51EC100BFBF768F953EC1B2B1C
:1050E000FBF764F953EC182BFBF760F953EC192B21
:1050F000FBF75FF99FED381B53EC112BFBF75CF9C5
:105100009FED370B41EC180B53EC102B9DED080B6A
:1051100051EC100BFBF750F953EC182BFBF7A5F8EB
:105120009FED310B41EC180B53EC102B9DED080B50
:1051300051EC100BFBF740F953EC182BFBF795F8EB
:1051400041EC100B139810F0004F06D06D4251EC5B
:10515000100B81F0004141EC100B284684ED000B50
:1051600041E6000000000000000000000000000018
:10517000FB21E93F7CD9024000004054FB21F93F6C
:105180003163621A61B4D03DFB21F93F0000000099
:105190000000601A61B4D03D7370032E8A19A33BDE
:1051A000FB2139410000000083C8C96D305FE43F36
:1051B000000000000000E03FF2090000400900008C
:1051C000000000000000103E000000000000103C45
:1051D000000000000000103A182D4454FB21F93D56
:1051E0003326A611460B113C00000054FB21F93D6B
:1051F00010B52DED040B2DED088B82B0B0EE419A69
:10520000F0EE619A0B9820F000449FED4BABB4F1A7
:10521000795F11DA9DED0A0B51EC100BFBF7CBF91E
:10522000002801BFB0EE4A0AF0EE6A0A02B0BDECF7
:10523000088B04BF04B010BD9DED0A0B53EC102B7E
:1052400051EC100BFBF7B8F841EC180B3C48062169
:10525000B0EE480AF0EE680A784400F081F853ECAA
:10526000182B51EC100BFBF7A7F89DED0A0B41EC46
:105270001B0B53EC192B51EC100BFBF79DF841EC79
:10528000190B53EC1B2B51EC180BFBF795F853EC57
:10529000192BFBF78BF89FED2C0B41EC190B53EC02
:1052A000102B51EC180BFBF787F841EC100B28483A
:1052B000844210DA53EC192B51EC100BFBF776F803
:1052C00053EC1A2BFBF775F841EC100B02B0BDEC58
:1052D000088B04B010BD1F48A042BCBF9FED1E1B31
:1052E0008DED001B06DBA4F500100190002000905E
:1052F0009DED001B51EC100B53EC112BFBF756F8F6
:105300009DED000B41EC180B53EC102B51EC1A0BDC
:10531000FBF74CF841EC1A0B53EC192B51EC180B22
:10532000FBF744F853EC1A2BFBF743F841EC100B56
:10533000CCE7000000000000000000000000F03F8B
:105340006406000000000000000000000000E03FD4
:105350003333D33F0000E93F000000000000D23F9C
:1053600070B504462DED028B4D1E00EBC500B0EE6E
:10537000408AF0EE608A90ED000B35F0060017D001
:1053800053EC182B51EC100BFBF716F841EC100BFB
:105390006D1E04EBC50090ED001B51EC100B53EC9F
:1053A000112BFAF762FF41EC100B35F00600E7D144
:1053B000022D36D0042D1CD0062D1CBFBDEC028B57
:1053C00070BD53EC182B51EC100BFAF7F5FF94ED70
:1053D0000A1B53EC112BFAF748FF53EC182BFAF782
:1053E000EBFF94ED081B53EC112BFAF73EFF41EC59
:1053F000100B53EC182B51EC100BFAF7DDFF94ED6A
:10540000061B53EC112BFAF730FF53EC182BFAF76D
:10541000D3FF94ED040B53EC102BFAF726FF41EC6D
:10542000100B53EC182B51EC100BFAF7C5FF94ED51
:10543000021B53EC112BFAF718FF53EC182BFAF759
:10544000BBFF94ED001B53EC112BFAF70EFFBDECE4
:10545000028B41EC100B70BD31B504462DED040BF1
:105460002DED0A8BB0EE41BAF0EE61BA0B989DEDCE
:105470000A0B20F00040B0F1795F0DDA51EC100B0F
:10548000FFF71EFC042808BF00F09AF89DED0A0BF8
:10549000BDEC0A8B05B030BD53EC102B51EC100B5A
:1054A000FAF78AFF41EC180B9DED0A0B53EC182B11
:1054B00051EC100BFAF780FF41EC190B2C48B0EEC1
:1054C000480AF0EE680A05217844FFF749FF9FED8E
:1054D0002ACBB0EE40AAF0EE60AA9CB353EC1C2B92
:1054E00051EC190BFAF768FF41EC1C0B53EC1A2B2B
:1054F00051EC190BFAF760FF9FED210B41EC190BF2
:1055000053EC102B51EC1B0BFAF756FF53EC192BF5
:10551000FAF74CFF53EC182BFAF74EFF53EC1B2B0A
:10552000FAF744FF53EC1C2BFAF740FF9DED0A1BE2
:1055300053EC112BFAF73DFFBDEC0A8B05B041ECA3
:10554000100B30BDFFE753EC1A2B51EC180BFAF798
:1055500033FF53EC1C2BFAF788FE53EC192BFAF7A8
:105560002BFF9DED0A1B53EC112BFAF77EFEE3E7B0
:10557000EC04000000000000495555555555C5BFC5
:10558000000000000000E03F10B553EC102B51EC80
:10559000100BFAF76AFE41EC100B10BD0000000082
:1055A0009FED050B10B553EC102B51EC100BFAF7D7
:1055B00075FF41EC100B10BD000000000000000062
:1055C0009FED050B10B553EC102B51EC100BFAF7B7
:1055D000F3FE41EC100B10BD0000000000000010B5
:1055E00002E008C8121F08C1002AFAD170477047AC
:1055F000002001E001C1121F002AFBD1704700000A
:105600000149086070470000D80000202DE9F041F2
:1056100016460F460446002503E03946B047641C91
:105620006D1C20780028F8D12846BDE8F081D0ED27
:10563000000AF4EEC00AF1EE10FA01DD80ED000A76
:10564000D0ED000AB1EE400AF4EEC00AF1EE10FA15
:1056500001D280ED000A70470149087070470000D0
:105660000000002070B5054600244FF47A7603E070
:10567000304600F005F8641CAC42F9D370BD000060
:1056800070B54FF0E02500216C69094AAB691278CA
:105690005043AA699A42FCD002D2A3EB020302E073
:1056A000A4EB02063344194413468142F1D370BD82
:1056B0000000002082B0CDE9000121F000400190FF
:1056C0009DED000B02B051EC100B704704490A68C5
:1056D0005206FCD5024AC1B2121D1160704700008B
:1056E000004C00402DED028BFCF786F8FEF7C0FD64
:1056F000B420FFF7B1FFFEF72FF9FEF707F9FEF729
:10570000D9F8FEF79BFAFEF7EFFAFEF7EDF9FEF790
:1057100017FBFEF73BFBFEF7AFFBFEF75FFBFEF769
:1057200037FAFEF783FBFEF7B1F900220421472088
:10573000FCF730F94720FCF722F9FDF725FFFDF7CC
:10574000EFFE0A20FFF78EFFFDF75CFFFDF7AAFDD5
:10575000212232493248FDF767FA12223149324894
:10576000FDF762FA012231493148FDF7A9FAFBF74A
:1057700063F83048FCF7ECFDFDF71EFE2E4E0020CE
:10578000C6F8B80229492D481639DFF890909FEDE8
:105790002C8ADFF8B0802C4DDFED2C8A2C4CA9F13F
:1057A000AE09A0F12C07886195ED000A30EE080AD9
:1057B00010EE100A85ED000A404501DDC5ED008AB6
:1057C000B7F97C01182100EE100AB8EEC00A84ED8A
:1057D000010AB7F9000000EE100AB8EEC00A84ED25
:1057E000020AB9F9300000EE100AB8EEC00A84EDE2
:1057F000000AB7F9280000EE100A1548B8EEC00AF2
:1058000084ED030AFFF714F86420FBF7E1FED6F8F5
:10581000B802C043C6F8B802C6E700008A010020FB
:10582000EC0400202C0600206C040020820F0020D5
:105830002C040020B403002000804242000E00200F
:10584000CDCCCC3DC3F5484018000020C3F548C07E
:105850007002002000F15C0C8CE80E0080ED031A51
:1058600080EC020A704780ED031A80EC020A704750
:10587000044909680A68D2435206FBD40249086009
:10588000704700002C040020044C00406B806B0328
:105890006C001A021B181C101D026A200000000078
:1058A00000061016000610160000000000000000A0
:1058B00001020304060708090000000001020304B6
:1058C0004C5555555555A53F7751C1166CC156BF1E
:1058D0009015CB19A001FA3EAD529C804F7E92BE2E
:1058E000C4B1B4BD9EEE213ED43888BEE9FAA8BD4D
:1058F00000004054FB21F93F3163621A61B4D03D8E
:105900000000601A61B4D03D7370032E8A19A33B66
:105910000000002E8A19A33BC14920259A837B39B8
:1059200000000000000000006E83F9A22915444E1B
:10593000D15727FCC0DD34F5999562DB4190433C9B
:10594000AB6351FE61C5BBDE3A6E24B7E0D24D4277
:10595000EA2E49061C92D1091CEB1DFE3EA729B177
:10596000F53582E88444BB2E26709CE9417E5FB405
:1059700039D69139F43953838B5F849C3B28F9BD28
:10598000FF97F81F0F9805DE8B112FEF1F6D0A5A36
:10599000CF7E366DB709CB27663F464F2DEA5F9E17
:1059A000C7BA27757BF1E5EBF739073DEA92528AD2
:1059B000B15FFB6B085D8D1FA6F810111111813FBF
:1059C000D561C119A0012ABF7DFEB157E31DC73EB5
:1059D000EB9C2B8AE6E55ABE7CD5CF5A3AD9E53DF9
:1059E000005A000800000020DC000000E05500081C
:1059F000DC5A0008DC000020AC120000F055000862
:105A00000000000000000000FF0000000000000097
:105A10000000000000000000000000000000000086
:105A20000000000000000000000000000000000076
:105A30000000000000000000000000000000000066
:105A400000000000E8039B02F40190014D011E01DB
:105A5000FA00DE00C800B600A7009A008F0085009B
:105A60007D0076006F00690064005F005B005700F6
:105A7000530050004D004A004700450043004100DC
:105A80003F003D003B003900380036003500330050
:105A90003200310030002F002D002A0026002400A3
:105AA00021001F001D001C001A0019001400110025
:105AB0000E000D000B000A0009000800050004009C
:105AC00003000200010000001000000000000000C0
:0C5AD0000024F4000000000000000000B2
