:020000040800F2
:10000000F8120020C1010008DB3C0008B52D0008F3
:10001000D93C0008D10700081D4800080000000076
:10002000000000000000000000000000CD3D0008BE
:10003000F90A000800000000153D0008CF3D000847
:10004000DB010008DB010008DB010008DB01000820
:10005000DB010008DB010008DB010008DB01000810
:10006000DB010008DB010008DB010008DB01000800
:100070003D0A0008DB010008DB010008DB01000885
:10008000DB010008DB010008DB0100081D08000897
:1000900011080008DB010008DB010008DB01000893
:1000A000DB010008DB010008DB010008DB010008C0
:1000B000DB010008DB010008DB010008DB010008B0
:1000C000DB010008DB010008DB010008DB010008A0
:1000D000DB010008DB01000861470008A9470008B0
:1000E000DB010008DB010008DB010008DB01000880
:1000F000DB010008DB010008DB010008DB01000870
:10010000DB010008DB010008DB010008DB0100085F
:10011000F9410008DB010008D93E0008DB010008B6
:10012000DB010008DB010008490A0008DB010008C8
:10013000DB010008DB010008DB010008DB0100082F
:10014000DB010008DB010008DB010008DB0100081F
:10015000DB010008DB010008DB010008F1470008B3
:10016000DB010008DB010008DB010008DB010008FF
:10017000DB010008DB010008DB01000800000000D3
:10018000DB010008DB010008DB010008DB010008DF
:10019000DB010008DB010008DB010008DB010008CF
:1001A0000000000000000000DB010008DFF80CD0B8
:1001B00000F0FCFA00480047454F0008F812002004
:1001C0000648804706480047FEE7FEE7FEE7FEE7F1
:1001D000FEE7FEE7FEE7FEE7FEE7FEE7853E0008F6
:1001E000AD0100082DE9F05F0546002092469B46D0
:1001F00088460646814640241BE02846414647463D
:10020000224600F01CFA53465A46C01A914110D3B8
:1002100011461846224600F003FA2D1A67EB010832
:100220004F4622460120002100F0FAF917EB0009A1
:100230004E41201EA4F10104DFDC484631462A4627
:100240004346BDE8F09F40EA01039B0703D009E065
:1002500008C9121F08C0042AFAD203E011F8013BB2
:1002600000F8013B521EF9D270472DE9FE4F80463F
:1002700081EA0300C00F0C46009021F0004123F0FA
:100280000045B8EB0200A94105D240462146904600
:100290001C460B46024623F00040104347D0270D72
:1002A000C7F30A00C3F30A510290401A0190402894
:1002B0006BDAC3F3130040F4801B0098924620B120
:1002C0000023D2EB030A63EB0B0B01985946C0F1F4
:1002D0004002504600F0A4F906460D4650465946E5
:1002E000019A00F0BCF910EB08006141002487EA94
:1002F000115284EAE7731A4340D0009A62B3019A1C
:10030000012A4FEA075215DC001B61EB02014FF096
:10031000004202EA0752CDE90042001C41F580117B
:1003200032462B4600F0F3F903B0BDE8F08F4046AB
:100330002146F9E7001B61EB0201001C41F5801327
:1003400000185B412018A2F5001747EB030140EAB3
:10035000D570B6196D4111E06D084FEA360645EAD1
:10036000C0754FEA0752001B61EB0201001C41F50A
:10037000801149084FEA30000019514132462B469E
:1003800003B0BDE8F04F00F0B3B90098012240007F
:100390000023D0EB020263EBE073009821464FEAA2
:1003A000E074B8EB000061EB0401E9E783F000437F
:1003B0005BE781F0004158E72DE9FE4F81EA030435
:1003C00004F0004421F0004100944FF0000B23F0B2
:1003D000004350EA01045ED052EA03045BD0C3F349
:1003E0000A54C1F30A552C44A4F2F3340194A0FB3F
:1003F0000254C1F3130141F48011C3F3130343F416
:10040000801301FB024400FB034E840A970A44EA6E
:10041000815447EA8357A4FB076802958D0A05FBC0
:1004200007854FEA932C04FB0C542705029D4FEAE5
:10043000065847EA1637B5EB08056EEB070C870E32
:10044000920E47EA811742EA8312A7FB0201B6EB3C
:100450000B0164EB00042B0D43EA0C335E1844EBF4
:100460001C50DA465146E7FB0201C5F313044FEA7C
:100470000B3343EA14534FEA0432019C43EA060368
:10048000A4F10C040294009CCDE900B400F03FF903
:1004900003B0BDE8F08F00200146F9E72DE9F04DEB
:1004A00081EA030404F0004B21F0004514464FF0AC
:1004B000000A23F0004150EA050220D054EA01026C
:1004C0001DD0C5F30A570246C5F31303C1F3130049
:1004D000C1F30A5640F4801543F48013A7EB0608D5
:1004E000101BD64608F2FD3873EB050002D308F165
:1004F000010801E092185B41B8F1000F03DA002017
:100500000146BDE8F08D00204FF480110646844678
:100510000EE0171B73EB050705D3121B63EB0503F6
:1005200006434CEA010C49084FEA300092185B413F
:1005300050EA0107EDD152EA030012D082EA04002A
:1005400083EA0501084305D0101BAB4106D2012206
:10055000002306E000224FF0004302E06FF00102AA
:1005600053101AEB06004CEB085110EB0A0041EB5C
:100570000B01BDE8F04D00F0BBB80EB5C10F80EA2D
:10058000E0700844CA07002140F233438DE80E00B2
:100590000A460B4600F0BBF803B000BD0EB540F2B2
:1005A000334102910021CDE900110A460B4600F0CB
:1005B000AEF803B000BDC1F30A5210B5C1F3130188
:1005C00040F2FF3341F480119A4201DA002010BD5D
:1005D00040F233439A42A2F2334203DC524200F02B
:1005E0002EF810BD904010BD01F0004330B421F052
:1005F000004150EA010206D00A0DA2F56072C1F373
:100600001301002A02DC30BC00207047440F44EA8A
:10061000C104C100E01830BC00EBC25000F031B89A
:10062000202A04DB203A00FA02F1002070479140B2
:10063000C2F1200320FA03F3194390407047202AA7
:1006400004DB203A21FA02F00021704721FA02F37C
:10065000D040C2F120029140084319467047202A39
:1006600006DBCB17203A41FA02F043EAE07306E0DA
:1006700041FA02F3D040C2F12002914008431946EA
:1006800070470029A8BF7047401C490008BF20F0F0
:100690000100704710B4B0FA80FC00FA0CF050EA88
:1006A000010404BF10BC704749B1CCF1200421FA09
:1006B00004F411FA0CF118BF012121430843A3EB04
:1006C0000C01CB1D4FEA00614FEA102042BF002011
:1006D00010BC704700EBC35010440029A4BF10BCED
:1006E0007047401C490008BF20F0010010BC704753
:1006F00010B5141E73F1000408DA401C41F100012A
:1007000092185B411A4301D120F0010010BD2DE980
:10071000F04D92469B4611B1B1FA81F202E0B0FA77
:1007200080F220329046FFF77BFF04460F4640EAF6
:100730000A0041EA0B0153465A46084313D01146BA
:1007400053EA010019D0C8F140025046FFF777FF85
:1007500005460E46504659464246FFF761FF08439C
:1007600005D0012004E020463946BDE8F08D002088
:10077000054346EAE0762C4337430A986305E40ACA
:10078000A0EB08000022FD0A44EA47540A3002D5D3
:1007900000200146E9E7010510196941DDE9084536
:1007A00000196941BDE8F04DA2E70000064C074D75
:1007B00006E0E06840F0010394E807009847103431
:1007C000AC42F6D3FFF7F6FC0852000828520008A6
:1007D000FEE7000000B58BB000200121CDE9060145
:1007E00003900891049000900E21019002900991CD
:1007F00005906946054800F095F90221034800F08C
:100800007CF9024800F070FC0BB000BD0C02002027
:10081000014800F08BBA00000C020020014800F0F3
:1008200085BA00000C020020F0B505680022012303
:100830000A247E48A5F20125072D2ED2DFE805F017
:10084000042E67A0D9E4EE000D886DBA05804D88AE
:100850006DBA45808D886DBA2DB285808979C18049
:10086000416A4E197149466290F808C08F7FBCF109
:10087000010F01EB470103D1B1F90A70F61B466283
:100880004D81817F491CC9B28177092901D98277BD
:100890000372416A91FBF4F10184F0BD0D886DBAD9
:1008A000A0F880514D886DBAA0F882518D886DBA3C
:1008B0002DB2A0F884518979A0F88611D0F8A4113E
:1008C0004E195A49C0F8A46190F888C191F89E71F8
:1008D000BCF1010F01EB470104D1B1F98A71F61B9C
:1008E000C0F8A461A1F88A5190F89E11491CC9B2C0
:1008F00080F89E11092903D980F89E2180F888315B
:10090000D0F8A41191FBF4F1A0F8A011F0BD0D886E
:100910006DBAA0F800534D886DBAA0F802538D88C7
:100920006DBA2DB2A0F804538979A0F80613D0F857
:1009300024134E193D49C0F8246390F808C391F878
:100940001E73BCF1010F01EB470104D1B1F90A7329
:10095000F61BC0F82463A1F80A5390F81E13491C33
:10096000C9B280F81E13092903D980F81E2380F824
:100970000833D0F8241391FBF4F1A0F82013F0BD54
:100980000D882A4F6DBAA0F880544D886DBAA0F832
:1009900082548D886DBA2DB2A0F884548979A0F85C
:1009A0008614D0F8A4144E19C0F8A46490F888C432
:1009B00097F89E14BCF1010F07EB410104D1B1F986
:1009C0008A74F61BC0F8A464A1F88A5490F89E14A7
:1009D000491CC9B280F89E14092903D980F89E24C5
:1009E00080F88834D0F8A41491FBF4F1A0F8A01496
:1009F000F0BD088842BA0E4802804A8852BA428046
:100A0000898849BA8180F0BD088842BA09480280C5
:100A10004A8852BA42808A8852BA8280088842BA8A
:100A200005480280498849BA4180F0BDC0050020D0
:100A3000C00B0020400D0020C00E0020014800F037
:100A400099BB000038050020014800F093BB00006E
:100A5000D804002001681823CAB2103AB2FBF3F29E
:100A6000054B6FF30901032A9B5CC36500D9091D7F
:100A700081650846704700004851000810B50146DE
:100A800000208B698A6A4FF0C07453B1B3F5005FE0
:100A900015D072B1012A0CD0022A0AD0032A09D13A
:100AA00004E01AB1012A06D0022A03D1C96AC90199
:100AB00000D5012010BDC96AA142FAD010BD002A9C
:100AC000F7D0012AF2D0022AF3D0032AF3D010BDC6
:100AD00030B50468256825F48025256004686360C6
:100AE0008368402B036803D099600068C26030BD02
:100AF0009A600068C16030BD704790F82020012ADC
:100B000009D090F82020022A05D0416A41F48021C2
:100B1000416201207047006842690A434261002037
:100B20007047000010B590F82020012A09D090F8F5
:100B30002020022A05D0416A41F48021416201202F
:100B400010BD3A48D0F8002242F00102C0F800225D
:100B5000D0F8002222F47C52C0F80022D0F8002203
:100B60004B6A42EA0322C0F800220B7D01229A4020
:100B7000D0F81C329343C0F81C32CB69B3B9D0F81B
:100B80000C329343C0F80C328C894B6864F31F43DA
:100B90004C6900EBC404C4F840320C890B6864F360
:100BA0001F434C6900EBC404C4F84432CB69012BE9
:100BB00016D1D0F80C321343C0F80C320C884B68B5
:100BC00064F31F434C6900EBC404C4F840320C8941
:100BD000CB6864F31F434C6900EBC404C4F844328F
:100BE0008B69002BD0F804320ED01343C0F80432C6
:100BF0000B69002BD0F8143208D01343C0F814321C
:100C0000096A012904D008E09343EFE79343F5E72D
:100C1000D0F81C121143C0F81C12D0F8001221F0B9
:100C20000101C0F80012002010BD00000064004067
:100C3000704730B590F82040012C07D090F8204044
:100C4000022C03D0416A41F4802109E011B101294D
:100C500009D00CE00468E46807E0416A41F400113F
:100C60004162012030BD04682469A407F5D04FF427
:100C7000D874056804EB01142D5915F0040595602E
:100C800005682D5942D0ED08556005682C59C4F30C
:100C90004004D4604FF4DA74056804EB01142D5954
:100CA00005F00F05156105682D59C5F307259561F8
:100CB00005682C59240C54614FF4DC72046802EB73
:100CC0000112A4581C700468A458240A5C700468BB
:100CD000A458240C9C700468A258120EDA704FF4C9
:100CE000DE72046802EB0112A4581C710468A45857
:100CF000240A5C710468A458240C9C710468A258EE
:100D0000120EDA7129B1012909D00DE06D0D1560BF
:100D1000BBE70068C16841F02001C16004E00068E1
:100D2000016941F020010161002030BD2DE9F05F33
:100D30000546006800244669D0F804908768D0F81A
:100D40000CB0D0F810A0D0F81880F10748D0F907FF
:100D500014D001218160B80703D5284600F0F1F9CD
:100D60000CE0780702D54FF4006407E0380702D59D
:100D70004FF4805402E0284600F0E2F9F80516D559
:100D800029684FF480708860B80503D5284600F0C4
:100D9000DAF90CE0780502D544F4005407E0380590
:100DA00002D544F4804402E0284600F0CBF9F80371
:100DB00016D529684FF480308860B80303D52846DB
:100DC00000F0C3F90CE0780302D544F4004407E0D6
:100DD000380302D544F4803402E0284600F0B4F928
:100DE000300707D55FEACB6004D52968102044F4AA
:100DF0000074C86070074FF0080707D55FEA0B70F2
:100E000004D52868C760284600F050F9B00706D519
:100E10002868C068800702D0284600F049F97006AB
:100E200007D55FEACA6004D52968102044F48064BD
:100E30000861B00607D55FEA0A7004D52868076123
:100E4000284600F04DF9F00606D5286800698007AD
:100E500002D0284600F045F9B00308D55FEAC96022
:100E600005D5296810204860284600F03BF9F003BA
:100E700007D55FEA097004D528684760284600F066
:100E800065F9300446D55FEA497040D5F00504D5D0
:100E90005FEAC87001D044F00104B00504D55FEAF0
:100EA000887001D544F00204700504D55FEA4870EB
:100EB00001D544F00404300529D518F0700F26D070
:100EC00008F07000402815D006DC102809D0202832
:100ED0000AD0302816D10AE050280ED0602811D14F
:100EE0000EE044F008040DE044F010040AE044F081
:100EF000200407E044F0400404E044F0800401E0F2
:100F000044F480742868816921F070018161296846
:100F100004204860002C05D0686A20436862284697
:100F2000FFF786FEBDE8F09F70B5040003D094F88B
:100F3000200010B104E0012070BD204600F082F8CE
:100F40002068016821F00201016000F087FB05467E
:100F5000052604E000F082FB401B0A2811D8206817
:100F600040688007F6D42068016841F00101016003
:100F700000F074FB05460BE000F070FB401B0A28F4
:100F800006D9606A40F40030606284F82060D2E7DD
:100F900020684068C007EFD0207E012820680168E3
:100FA0003DD021F080010160607E01282068016849
:100FB00038D021F040010160A07E0128206801683E
:100FC00033D021F020010160E07E01282068016813
:100FD0002ED041F010010160207F012820680168B7
:100FE00029D021F008010160607F01282068016894
:100FF00024D021F004010160D4E902010843D4E9BE
:101000000412114308436168491E08432168C861FE
:1010100000206062012084F82000002070BD41F0B3
:101020008001C0E741F04001C5E741F02001CAE777
:1010300021F01001CFE741F00801D4E741F00401AD
:10104000D9E7000000B50068154987B0884225D16E
:1010500014480021026842F0007202600068022217
:1010600000F0007005900320CDE90210CDE90002E8
:101070000920049069460C4800F004FA0022114649
:10108000132000F0C7FB132000F0B9FB0022012160
:10109000142000F0BFFB142000F0B1FB07B000BD2E
:1010A0000064004040380240000C024070470000DD
:1010B00010B5084A016891420AD1074B074A00213E
:1010C000FFF7B7FDBDE8104003490448FFF7ACBB8C
:1010D00010BD0000006400401C000020340200200D
:1010E000704770477047000070B5044690F82000C4
:1010F000012804D0606A40F40020606218E00220F9
:1011000084F820002068016821F00101016000F0EE
:10111000A5FA05460EE000BF00F0A0FA401B0A2821
:1011200008D9606A40F400306062052084F820002D
:10113000012070BD20684068C007EDD1606270BDBD
:10114000704770477047704770477047704790F816
:101150003510022903D08021416501207047052107
:1011600080F835100068016821F00101016000205D
:10117000704700002DE9F84304464FF00009CDF810
:10118000009063484FF41651A56D0068B0FBF1F76D
:101190002E6894F85C10082000FA01F131420FD05B
:1011A00021680A6852070BD50A6822F004020A6017
:1011B00094F85C108840A860606D40F001006065A4
:1011C00094F85C104FF0010808FA01F0304208D0A2
:1011D00021684969090604D5A860606D40F00200E5
:1011E000606594F85C1004208840304208D0216883
:1011F0000968890704D5A860606D40F00400606547
:1012000094F85C1010208840304218D0216809689A
:10121000090714D5A86020680168490304D500684F
:10122000000308D5A16C07E00168C90503D4016873
:1012300021F008010160216C09B12046884794F82B
:101240005C1020208840304231D021680968C906EE
:101250002DD5A86094F8350005282068016806D0CF
:10126000490347D5006800031DD4616C1CE021F0E0
:10127000160101602068416921F080014161206C04
:1012800008B9A06C20B12068016821F00801016054
:1012900094F85C103F208840A86084F8349084F86B
:1012A0003580216D1FE0E16B09B120468847606DF4
:1012B00000282BD0606DC00714D0052084F83500BD
:1012C0002068016821F0010101600098401C009035
:1012D000B84203D820680068C007F6D184F834907B
:1012E00084F83580E16C002910D001B02046BDE8BB
:1012F000F04308470168C905D5D4016821F0100101
:10130000016084F8349084F83580CCE7BDE8F88338
:10131000400000202DE9F041044600F09FF9064608
:101320005CB1002584F83450022084F83500206830
:10133000016821F0010101600DE00120BDE8F081AC
:1013400000F08CF9801B052805D92020606503205A
:1013500084F83500F2E720680068C007F0D1226801
:10136000116820480140D4E901031843D4E9033649
:101370003343184363691843A3691843E369184367
:10138000236A18430843616A042903D1D4E90B1383
:1013900019430843106020684069666A20F007011D
:1013A00030460E43012704280CD1A06A0643E06AA8
:1013B00040B12046FFF762FB20B14020606584F811
:1013C0003570BAE7206846612046FFF743FB94F882
:1013D0005C203F2191408160656584F83570002074
:1013E000ACE700003F8010F02DE9F0410446866D27
:1013F00090F83400002501280DD0012084F8340035
:1014000094F835700020012F07D084F834000225AD
:101410002846BDE8F0810220FBE7022784F83570FA
:1014200060652046FFF754FB94F85C103F2088402D
:10143000B0602068016841F01601016020684169D0
:1014400041F080014161206C20B12068016841F0C9
:10145000080101602068016841F001010160D7E7DF
:1014600070B5044600F0FAF80546601C02D0044846
:101470000078044400F0F2F8401BA042FAD370BD9B
:10148000340000202DE9F84FDFF890B100224FF032
:1014900001084FF0030A4FF00F090BF1040E00BFD3
:1014A0000B6808FA02F42340A3426ED14D68022D66
:1014B00001D0122D0ED1D50800EB850CDCF82050A0
:1014C0005607F70E09FA07F6B5430E69BE402E43DC
:1014D000CCF82060066855000F790AFA05FC07F081
:1014E000030726EA0C06AF40374307604E68012E1B
:1014F00005D0022E03D0112E01D0122E0ED18768F6
:10150000CE6827EA0C07AE403E4386604668A64395
:101510000C79C4F30014944034434460C4688E686A
:1015200024EA0C04AE402643C6604C68E4006FD544
:101530003B4C256845F480452560246822F003056E
:1015400004F480440094374C2E19D6F808489507C7
:101550002F0F09FA07F5AC43334DA84201D10025FE
:101560002EE0324DA84201D1012529E0304DA8429C
:1015700001D1022524E02F4DA84201D103251FE00F
:101580002D4DA84202D104251AE041E02B4DA8427E
:1015900001D1052514E02A4DA84201D106250FE00E
:1015A000284DA84201D107250AE0274DA84201D1C4
:1015B000082505E0254DA84201D1092500E00A25AE
:1015C000BD402543C6F80858DBF800405D464E682C
:1015D0009C43F60300D51C432C60DEF800407546A2
:1015E0004E689C43B60300D51C432C600B4D083558
:1015F0002C684E689C43F60200D51C432C60074DB6
:101600000C352C684E689C43B60200D51C432C60F8
:10161000521C102AFFF444AFBDE8F88F003C014093
:101620004438024000300140000002400004024003
:1016300000080240000C024000100240001402406A
:1016400000180240001C024000200240002402401A
:101650000AB1816170470904FBE700000148806816
:10166000704700003400002002488168027811446D
:1016700081607047340000200B4810B5016841F4C8
:1016800000710160016841F480610160016841F40A
:1016900080710160032000F0DDF8002000F006F802
:1016A00000F024F8002010BD003C024070B50D4D44
:1016B00004464FF47A712878B1FBF0F00A490968C2
:1016C000B1FBF0F000F0EDFC48B9102C07D200227D
:1016D0002146501E00F09EF800206C6070BD012075
:1016E00070BD000034000020400000201F4808B5F5
:1016F000016841F480410160006800F4804000907E
:101700001A48001F016841F080510160006800F034
:1017100080500090032000F09DF8002211466FF0E9
:101720000B0000F077F8002211466FF00A0000F07D
:1017300071F8002211466FF0090000F06BF80022EA
:101740001146501F00F066F800221146101F00F0ED
:1017500061F800221146901E00F05CF80022BDE8FE
:1017600008401146501E00F055B8000044380240B1
:101770002DE9F04116460F46040004D094F83900D4
:10178000002518B107E00120BDE8F08184F8385049
:10179000204600F0F7FF242084F839002068C16853
:1017A00021F40051C160204602F020FE206801694A
:1017B00021F4904101612068416921F02A014161D1
:1017C0002068016921F00F01016120680169394336
:1017D00001612068C16821F40061C1602068C168AE
:1017E0003143C1602068C16841F40051C160E563C4
:1017F000202084F8390084F83A000020C4E700F083
:101800001F02012191404009800000F1E020C0F852
:1018100000117047F0B40E4B1B680C46C3F3022353
:10182000C3F10705042D00D90425191D072901D28C
:10183000002300E0DB1E012606FA05F1491E2140C7
:1018400099409E40761E16403143F0BC02F046BAE5
:101850000CED00E0064900F0070208684FF6FF03B0
:10186000184040EA0220034A104308607047000015
:101870000CED00E00000FA052DE9F8431748016877
:1018800041F0805101600068154F00F08050012642
:1018900000903E64FFF7E2FE05464FF47A78114C63
:1018A00005E000BFFFF7DAFE401B40450DD8606839
:1018B000C003F7D57E64FFF7D1FE0546464607E034
:1018C000FFF7CCFE401BB04202D90320BDE8F883ED
:1018D00060688003F4D50020F8E70000403802403B
:1018E00000000E42007000402DE9F0470E46050052
:1018F00065D0DFF81481D8F80000F7B200F00F00CF
:10190000B04207D288F80070D8F8000000F00F004D
:10191000B04254D128683D4C810712D5400703D509
:10192000206840F4E05020602878000703D5206844
:1019300040F4604020602068A96820F0F00008436F
:1019400020602878C0072DD0304968680839012800
:1019500012D0022813D0032811D009688907002962
:101960002DDA216821F0030101432160FFF776FEA3
:10197000814641F2883A0EE009688903EFE7096879
:101980008901ECE7FFF76AFEA0EB0901514502D996
:101990000320BDE8F0872068696800F00C00B0EB18
:1019A000810FEFD1D8F80010404601F00F01B1428D
:1019B00007D90770006800F00F00B04201D0012085
:1019C000E7E72878400705D52068E96820F4E0506B
:1019D000084320602878000706D52068296920F48C
:1019E000604040EAC100206000F03CF82168084AED
:1019F000C1F30311515CC840064908600020FFF79D
:101A000055FE0020C5E70000003C024008380240B7
:101A10005051000840000020014800687047000055
:101A2000400000200448054900680968044AC1F3E1
:101A30008221515CC84070474000002008380240B5
:101A4000605100080448054900680968044AC1F368
:101A50004231515CC84070474000002008380240C5
:101A600060510008154810B5006810F00C021448C9
:101A700013D01449042A0FD0082A0ED10F4C241F6A
:101A80002268236802F03F025B0207D52068C0F39A
:101A90008810A0FB010106E0084610BD2168C1F3D3
:101AA0008811A1FB00010023FEF79CFB2168C1F314
:101AB0000141491C4900B0FBF1F010BD083802405B
:101AC0000024F400001BB7002DE9F84F050076D084
:101AD0002878DFF8F8B2BE4CC00749D0DBF8001018
:101AE0005846C1F38101012908D00068C0F3810084
:101AF00002280AD1201D0068400206D52068800314
:101B000036D568680028E2D032E06868B0F5803FDA
:101B100010D0B0F5A02F206810D020F480302060C5
:101B2000206820F4802020606868A0B1FFF796FD4F
:101B300006460CE0206840F48030F4E740F4802052
:101B40002060F7E7FFF78AFD801B642873D82068C0
:101B50008003F7D50CE0FFF781FD064605E000BFE6
:101B6000FFF77CFD801B6428F0D820688003F7D441
:101B70002878DFF8608280074FF000093ED5DBF857
:101B80000010584611F00C0F09D00068C0F3810016
:101B900002280BD18D48001F0068400206D420683F
:101BA000800715D5E868012809D111E0E868B8B1C7
:101BB0000120C8F80000FFF751FD064605E002E1EC
:101BC000FFF74CFD801B0228C0D820688007F7D59E
:101BD0002068296920F0F80040EAC10020600DE08B
:101BE000C8F80090FFF73AFD064604E0FFF736FD1F
:101BF000801B02281FD820688007F7D428780007A8
:101C000022D5724E744869696C3671B10121016048
:101C1000FFF724FD074604E0FFF720FDC01B022864
:101C200009D830688007F7D50EE0C0F80090FFF7BC
:101C300015FD074605E083E0FFF710FDC01B0228F5
:101C40007ED830688007F7D42878400768D5DFF859
:101C50007CA100270AF1380ADAF80000C0000BD492
:101C6000DAF8001041F08051CAF80010DAF80000EC
:101C7000012700F080500090584E3068C00510D405
:101C8000306840F480703060FFF7E8FC009005E0B9
:101C9000FFF7E4FC0099401A022851D83068C005CB
:101CA000F6D54A4EA868683601280FD00528306856
:101CB00010D020F001003060306820F00400306067
:101CC000A868B8B1FFF7CAFC00900FE0306840F098
:101CD0000100F4E740F004003060F7E7FFF7BEFCD6
:101CE0000099411A41F28830814264D830688007F7
:101CF000F4D50EE0FFF7B2FC009007E0FFF7AEFC72
:101D00000099411A41F28830814254D830688007E6
:101D1000F4D42FB1DAF8001021F08051CAF8001085
:101D2000A869C0B3DBF80010C1F3810102294AD0D1
:101D30000228484607D0C8F86000FFF78FFC00E093
:101D400039E005463AE04746C8F86000FFF786FCF0
:101D5000064604E0FFF782FC801B02282BD820688F
:101D60008001F7D4D5E907010843A96A1C4A49084C
:101D700002EB01416A6A41EA8211084395F82C108E
:101D800040EA01611148001F016001203866FFF739
:101D900065FC054605E014E0FFF760FC401B0228E7
:101DA00009D820688001F7D50BE000BFFFF756FC8B
:101DB000401B022802D90320BDE8F88F206880016B
:101DC000F4D40020F8E70120F6E7000008380240CC
:101DD0000038024000004742800E47420070004039
:101DE0000000FFFF70B5040005D00025A56294F83F
:101DF000510010B106E0012070BD84F8505020461B
:101E000000F030F8022084F851002068016821F0C9
:101E100040010160D4E901010843D4E903121143F0
:101E2000084361690843218B01F400710843E169AB
:101E30000843216A0843A16A084321680860A06931
:101E4000042101EA1040616A084321684860206863
:101E5000C16921F40061C1616565012084F8510008
:101E6000002070BD00B500680E4987B0884217D1C8
:101E70000D480021026842F480120260006800F4FC
:101E8000801005904FF4607000900220CDE90101B0
:101E9000032003900520049069460448FFF7F2FAF6
:101EA00007B000BD00500140443802400014024019
:101EB0002DE9F84F044690F8500000260A9F9A46F4
:101EC00093460D464FF0010801280ED0012084F8FA
:101ED0005000FFF7C3FB814694F851006168012868
:101EE0000CD0B1F5827F07D102E00220BDE8F88F67
:101EF000A16809B9042801D00226BDE055B1BBF1A3
:101F0000000F07D0BAF1000F04D094F85100012857
:101F100002D004E00126AFE0052084F85100002043
:101F20006065C4F838B0A4F83EA0A4F83CA02563CE
:101F3000A4F836A0A4F834A0206460642068016886
:101F4000490603D4016841F040010160E068B0F542
:101F5000006F606804D0E8B3E08E01283BD06AE0EF
:101F600010B1E08E01282ED1216835F8020BC8602F
:101F7000E08E401EE08626E0B8F1000F0DD0E08E26
:101F800058B120688168890707D535F8021BC16000
:101F9000E08E401EE0864FF00008E08F58B12068C8
:101FA0008168C90707D0C0682BF8020BE08F401E7C
:101FB000E0874FF00108781C05D0FFF74FFBA0EB3E
:101FC0000900B84246D2E08E0028D5D1E08F002823
:101FD000D2D136E0FFE7216815F8010B0873E08ED7
:101FE000401EE08627E000BFB8F1000F0DD0E08E64
:101FF00058B120688168890707D515F8011B01735E
:10200000E08E401EE0864FF00008E08F58B1206857
:102010008168C90707D0C0680BF8010BE08F401E2C
:10202000E0874FF00108781C05D0FFF717FBA0EB05
:102030000900B8420ED2E08E0028D5D1E08F0028EA
:10204000D2D13B46012202212046CDF8009001F07A
:1020500072FE08B103260FE04A463946204601F0D9
:102060005AFE18B101262020606505E0A06818B965
:102070002068C16880680090012084F85100002029
:1020800084F85000304631E74FF0E0210428086919
:1020900003D020F004000861704740F00400FAE724
:1020A000704710B5401EB0F1807F01D3012010BDF4
:1020B0004FF0E02460610F21601701F00FFE002057
:1020C000A06107202061002010BD10B5FFF7E8FFD8
:1020D00010BD7047704730B590F83820012A20D0E5
:1020E000012280F83820022380F8393003685C68C8
:1020F00024F070045C6003685C680D682C435C60CD
:1021000003689C6824F080049C6003689C684968AC
:102110000C439C6080F83920002180F83810084674
:1021200030BD022030BD10B5040003D094F8390052
:1021300010B107E0012010BD002084F838002046CF
:1021400000F00CF8022084F83900211D206801F00D
:10215000C9FE012084F83900002010BD08B5174AD7
:1021600001681748914207D1016841F002010160FE
:10217000006800F0020009E0124A914208D10168AB
:1021800041F004010160006800F00400009008BD07
:102190000D4A914207D1016841F0100101600068C9
:1021A00000F01000F2E7094A9142F0D1016841F0D5
:1021B00040010160006800F04000E7E700040040D3
:1021C0004038024000080040001000400018004065
:1021D0000168CA6842F00102CA600068016841F003
:1021E000010101600020704770B5044690F8380086
:1021F000012817D0012584F83850022084F83900CE
:102200002068826822F0770222F47F4282600868A8
:10221000502837D00DDC202859D005DC88B3102891
:1022200041D151E0022070BD302853D040283AD12E
:102230003FE060282ED070280BD0B0F5805F03D02F
:10224000B0F5005F2FD110E02068816821F0070110
:1022500015E0CB68D1E90121206801F0A3FE2168D7
:10226000886840F0770088601DE0CB68D1E90121E3
:10227000206801F097FE2068816841F48041816008
:1022800011E01EE0CA684968206801F053FF502140
:10229000206806E0CA684968206801F05CFF602198
:1022A000206801F089FE84F83950002084F8380055
:1022B00070BDCA684968206801F03CFF4021206871
:1022C000EFE700212068ECE710212068E9E72021F2
:1022D0002068E6E730212068E3E7704770B50446E0
:1022E000006801694FF00005C943890715D4C1682A
:1022F000C943890711D4E91E0161012020762068B5
:1023000080698007204602D0FFF7E7FF04E000F075
:10231000D5F8204600F057F9257620680169C943B1
:10232000490717D4C168C943490713D46FF00401A2
:102330000161022020762068806910F4407F2046E9
:1023400002D0FFF7CAFF04E000F0B8F8204600F022
:102350003AF9257620680169C943090716D4C1688E
:10236000C943090712D46FF00801016104202076E7
:102370002068C0698007204602D0FFF7AEFF04E066
:1023800000F09CF8204600F01EF9257620680169CF
:10239000C943C90617D4C168C943C90613D46FF02D
:1023A00010010161082020762068C06910F4407F88
:1023B000204602D0FFF791FF04E000F07FF82046AE
:1023C00000F001F9257620680169C943C90708D1E1
:1023D000C168C943C90704D1891E0161204600F0C4
:1023E000F3F820680169C943090609D4C168C943E3
:1023F000090605D46FF0800101612046FFF769FEF0
:1024000020680169C943490609D4C168C94349061E
:1024100005D46FF040010161204600F0F1F820681A
:102420000169C94389060BD4C168C943890607D429
:102430006FF0200101612046BDE87040FFF74ABE01
:1024400070BD000000B517490268022085B08A42BD
:102450000AD11021CDE90010012102910321CDE91B
:102460000310694610480BE0104B00219A420BD133
:1024700092140092CDE90101CDE9031069460C48A0
:10248000FFF700F805B000BD0A4B9A42FAD14FF4AD
:1024900010720092CDE901010920CDE903106946CF
:1024A0000548EDE700040040000402400008004039
:1024B000000C024000180040001C0240704770B53C
:1024C000044690F838000D4601280DD0012684F806
:1024D0003860022084F8390042B1042A18D0082A52
:1024E0002AD00C2A4DD139E0022070BD206801F0BD
:1024F0006BFD2068816941F0080181612068816974
:1025000021F004018161206881692A69114311E089
:10251000206801F085FD2068816941F400618161D6
:102520002068816921F480618161206881692A695C
:1025300041EA0221816124E0206801F0A3FD2068C6
:10254000C16941F00801C1612068C16921F004013D
:10255000C1612068C1692A69114311E0206801F056
:10256000C1FD2068C16941F40061C1612068C16991
:1025700021F48061C1612068C1692A6941EA0221B0
:10258000C16184F83960002084F8380070BD10B54E
:10259000040003D094F8390010B107E0012010BD09
:1025A000002084F83800204600F00CF8022084F85F
:1025B0003900211D206801F095FC012084F83900C4
:1025C000002010BD7047704710B500680A49884266
:1025D00011D10A4C05212088B0FBF1F201FB120059
:1025E00008B900F091FE2088B0F57A7F01D2401C36
:1025F00000E00020208010BD001000402C000020D2
:102600007047704710F8391F407808437047000042
:1026100070B5026804461068D168536910F00F0F56
:1026200050D003F0010501F4907635435DD0C20728
:1026300005D0CA0503D5E26B42F00102E26342070E
:1026400005D5DA0703D0E26B42F00202E2638207AB
:1026500005D5DA0703D0E26B42F00402E263020719
:1026600005D5DA0703D0E26B42F00802E263E26BC1
:10267000002A33D0800604D5880602D5204601F012
:1026800046FE20684069E16BC0F38010090700D462
:1026900028B3204601F024FE2068416949061AD576
:1026A000416921F040014161606BA0B11B490165A6
:1026B000606BFEF74CFD002810D0606B016DBDE82B
:1026C00070400847830610D58B060ED52046BDE81E
:1026D000704001F01CBE2046FFF793FF70BD2046FE
:1026E000FFF78FFF0020E06370BD030606D50B06E1
:1026F00004D52046BDE8704001F0CEBF4006F3D5BA
:102700004806F1D5D168204621F04001D160202152
:1027100084F8391000F04CFB70BD00004142000805
:1027200070B5040004D094F83900002510B106E01B
:10273000012070BD84F83850204600F023F8242092
:1027400084F839002068C16821F40051C160204636
:1027500001F04CFE2068016921F49041016120687C
:10276000416921F02A0141612068C16841F40051AA
:10277000C160E563202084F8390084F83A00002025
:1027800070BD00002DE9F04F07466A4A0168002439
:10279000694803250226DFF8A4A187B04FF0010C99
:1027A0004FF00808914216D1016841F40021016000
:1027B00000688DE8601000F40020CDE904806946CF
:1027C00003955046FEF75EFE002202213420FFF7FB
:1027D00021F834205CE0584A594B121D4FF007098C
:1027E0004FF0006B99422ED1106840F0100010603D
:1027F000106802AB00F010000590C020CDE9000683
:1028000083E8300269464F48FEF73CFE4F4D4E4884
:102810002860C5E901B40015C5E9034080106C616A
:10282000C5E906404FF44030C5E908042846FEF7E4
:1028300071FD18B1DD2146A001F0F1FF7D63AF63AA
:1028400007B0BDE8F08F464B994224D1016841F4AE
:10285000003101600068CDE9026500F400300590A8
:102860000420CDE9000669465046CDF81090FEF7E9
:1028700009FE02AA694682E83002CDE90086504688
:10288000FEF700FE002203212620FEF7C3FF2620CC
:10289000FEF7B5FFD4E7334B994233D1016841F4D9
:1028A000802101600068694600F4802005904FF4A3
:1028B00040708DE84110CDE903592B48FEF7E2FD49
:1028C000224D2A4860352860C5E901B40015C5E9E4
:1028D000034080106C61C5E906404002C5E9080468
:1028E0002846FEF717FD20B14FF4947118A001F0AF
:1028F00096FF7D63002211462720AF63FEF78AFF13
:102900002720C5E71A4881429AD1106840F020007C
:102910001060106802AB00F0200005904FF4844076
:10292000CDE9000683E8300169461248FEF7AAFDAA
:1029300086E70000004C00404038024000000240A2
:10294000001001400004024040640240D80400200E
:102950002E2E2F5372632F75736172742E630000D5
:102960000044004000480040000C02402860024043
:102970000014014000180240F8B5044690F83A00EF
:1029800020283CD1C1B3BAB394F83800012836D01E
:10299000012084F83800A162A2850025E563222089
:1029A00084F83A00636B1748D863636B1648186461
:1029B000636B1648D864606B134605650846666B02
:1029C000216802463046091DFEF70EFD20680168A9
:1029D0004168009184F83850C16841F48071C16049
:1029E0002068416941F0010141612068416941F07D
:1029F000400141610020F8BDFFE70120FBE7022014
:102A0000F9E700009B420008D74200085142000845
:102A100090F83A30202B1DD1D1B1CAB190F838309E
:102A2000012B17D081628285C2850021C1632222D9
:102A300080F83A2080F8381001684A6942F00102B3
:102A40004A610068C16841F49071C160002070471C
:102A5000012070470220704770B504462DED048BAD
:102A600000689649884201D101F088FB94492068AA
:102A70000025884266D1934C6078092810D2DFE89F
:102A800000F0050A141D26313B444F00207826280B
:102A900009D1012003E02078252804D102206070AC
:102AA000BDEC048B70BD6570FAE7A188207801EB5E
:102AB0000021A1804B3020720320F0E7A18820780C
:102AC0000144A180217A084420720420E7E720789D
:102AD0002D2802D1A1884942A180217A0844207280
:102AE0000520DCE7E188207801EB0021E180217AF4
:102AF000084420720620D2E7E18820780144E18072
:102B0000217A084420720720C9E720782D2802D1B5
:102B1000E1884942E180217A084420720820BEE71A
:102B2000207A21784FF47A73884201D1522002E052
:102B3000A580E5805720A0700122A11C624800F00A
:102B4000DAF8B0E7614988425AD1614C94F8B9008B
:102B5000552803D194F8BA0052280BD000F04AFA55
:102B6000BDEC048B2122BDE8704059495948AE3173
:102B7000FFF702BF5FF00000221894F8D01092F81F
:102B8000B920401C114484F8D0100A28F4DBC8B2E4
:102B900094F8C310884283D1B4F9BB00FDF7EDFC73
:102BA0009FED4D8B53EC182BFDF706FC9FED4C9BD6
:102BB00053EC192BFDF700FCFDF716FD2065B4F969
:102BC000BD00FDF7DAFC53EC182BFDF7F5FB53ECD9
:102BD000192BFDF7F1FBFDF707FDE064B4F9BF0029
:102BE000FDF7CBFC53EC182BFDF7E6FB53EC192B50
:102BF000FDF7E2FBFDF7F8FCA06484F8D0504FE746
:102C000039498842FBD139480278817D02F07F0240
:102C10000244517001784A0602D14278242AEED14A
:102C2000491C017001F07F010829417D827D02D09D
:102C30001144417534E791423CD12D4A002143189B
:102C40001B795354491C0429F9DB29498278891ED0
:102C5000642A21D0692A10D0702A2BD18269D1F838
:102C600002101160C1782D2924D1816991ED000AEB
:102C7000B1EE400A81ED000A1CE08269D1F8021031
:102C80005160C1782D2915D1816991ED010AB1EE0C
:102C9000400A81ED010A0DE08269D1F80210D1608D
:102CA000C1782D2906D1816991ED030AB1EE400A60
:102CB00081ED030A45750570F2E600000010014041
:102CC00000440040CE0E00201804002000480040C0
:102CD0004800002058040020000000000000003FD1
:102CE0000000000000409F40004C0040D80E002033
:102CF0002E00002070472DE9F843044690F8390073
:102D00001F4616460D46202850D1A5B19EB194F815
:102D1000380001284AD0012084F838004FF000081C
:102D2000C4F83C80212084F83900FEF797FCA68483
:102D30008146E68426E00120BDE8F883E08C401E51
:102D4000E084A0684B46B0F5805F4FF000024FF082
:102D500080012046009703D001F0CFFCE8B90DE0D8
:102D600001F0CBFCC8B928882168C0F3080048608E
:102D7000206908B16D1C05E0AD1C03E0216815F861
:102D8000010B4860E08C0028D8D14B46002240213E
:102D90002046009701F0B1FC08B10320CCE72020C9
:102DA00084F8390084F838800020C5E70220C3E7A2
:102DB0007047000001A001F033FDFBE7657272006F
:102DC00070B50D4C0025C4F894520C48016821F4EC
:102DD00040710160016841F480710160C4F8905253
:102DE000022004F5247402F07BF8012060600220C8
:102DF00002F076F8656070BD0000424200100240AB
:102E000003480121C0F89412C0F8901270470000E6
:102E10000000424270B50D4C0025C4F894520C4895
:102E2000016821F440710160016841F48071016022
:102E30000126C4F89062022004F5247402F050F8D0
:102E40006660022002F04CF8656070BD00004242EE
:102E5000001002402DE9F047814616480024016821
:102E600021F44071016001680160134E2546274638
:102E70004FF00108C6F89472022002F031F8C6F84B
:102E800094826006040ED6F8100208B1641CE4B205
:102E9000012002F025F86D1CEDB2082DEAD3B9F13E
:102EA000000F04D0FFF78CFF2046BDE8F087FFF746
:102EB000B1FFF9E700100240000042422DE9F04165
:102EC00006461448016821F440710160016841F42C
:102ED00080710160104C0027C4F894723D464FF099
:102EE0000108F009C4F890027006060E022001F0F5
:102EF000F7FFC4F89482022001F0F2FFC4F8947244
:102F0000022001F0EDFF6D1CEDB2082DE9D3BDE804
:102F1000F0810000001002400000424270B50D48F0
:102F2000016821F440710160016841F48071016021
:102F3000094C0120C4F89002C4F89402042004F55E
:102F4000247401F0CDFF00252560042001F0C8FFA6
:102F5000656070BD00100240000042420E4810B58E
:102F6000016821F440710160016841F480710160E1
:102F70000A4C0020C4F89402C4F89002042004F51E
:102F8000247401F0ADFF012060602060BDE81040B6
:102F9000042001F0A5BF00000010024000004242E2
:102FA00070B512480024016821F440710160016885
:102FB00001600F4D0126C5F89062304601F090FF88
:102FC000C5F89462012001F08BFF07E0641CE4B2B5
:102FD000FA2C03D9FFF7C2FF012070BDD5F810020B
:102FE0000028F3D1C5F8940270BD00000010024023
:102FF0000000424208B507A04FF47A7300680090C1
:10300000032269460448FFF776FE0A2001F05AFFC2
:1030100008BD0000FFAA52005804002090ED024AAB
:1030200090ED013AD0ED073A30EEC41A90ED132A34
:10303000D0ED141A9FED2E5A01EE233AB1EE421A4A
:1030400031EE611A80ED0E1AD0ED154A30EE430ACA
:10305000F1EE642AC0ED0F2AC0ED102A80ED115A5E
:10306000D0ED125A45EE234A42EEA31A41EE235AFE
:1030700090ED041A02EEA32AD0ED052A35EE811A4E
:1030800074EEA23A80ED091AC0ED0A1AD0ED062AB4
:1030900072EE814AC0ED0B4A81EEA45AC1EE242A99
:1030A00005EE004AC0ED0C2A02EE803A80ED0D5A82
:1030B00080ED030A30EEC40AF0EE420A80ED013AD8
:1030C00080ED024A80ED000AB0EE410A42EEC20AEB
:1030D00002EEC10A45EE603A45EE401A80ED120A52
:1030E000C0ED130AC0ED141AC0ED153A7047000088
:1030F000000000009FED130A002180ED040A9FEDFF
:10310000120A80ED050AB6EE000A80ED060A9FED70
:103110000F0A80ED070A9FED0E0A00BF00EB810247
:10312000491CC9B282ED0E0A0429F7D3F7EE000A52
:10313000C0ED120A80ED130A80ED140AC0ED150AE5
:10314000704700006F12833AA69B443B0AD7A33B0B
:10315000000000002DE9F0412A4941F684402DEDA0
:10316000028B0024488501F5C07140F2A2309FED2A
:10317000268ADFED268A4FF47A754885A1F5F06638
:103180005FEA850704EB440006EBC010B0EE481A76
:10319000F0EE680AB7EE080A2B463A4603212C30B7
:1031A00000F0ACFD641C042CECDB2C462B4641F2F9
:1031B00088359FED171ADFED170A9FED170A2A468B
:1031C0000321164800F09AFD0E48B0EE481AF0EEC2
:1031D000480A9FED130A4FF4FA73224603212C305C
:1031E00000F08CFDB0EE481AF0EE480AB0EE480A46
:1031F000BDEC028B23462A46BDE8F0410321094875
:1032000000F07CBDC00B002000000000CDCCCC3D08
:103210001F85EB3ECDCCCCBD9A99A9C0CC0C00202B
:103220003333A3C14C0E00202DE9F05FDFF85C8042
:10323000142400273E463D4608F1340B08F1320ABB
:1032400008F1300910E05A465146484600F076F938
:10325000B8F93010B8F934000F44B8F93210054409
:103260000E44642001F02EFE641EECD2142197FB64
:10327000F1F2404620F8422F96FBF1F295FBF1F176
:103280004280A8F84610BDE8F09F000048000020EA
:1032900010B5FFF7B5FD80216B2000F0F4F9642034
:1032A00001F010FE00216B2000F0EDF9032000F08A
:1032B000B6F9002000F0AEF9322000F0CDF900217F
:1032C000382000F0E0F900216A2000F0DCF900214C
:1032D000232000F0D8F98021372000F0D4F97520A0
:1032E00000F045F9682801D0012010BD01216B20B4
:1032F00000F0C9F900216C2000F0C5F9322000F07F
:10330000ABF9002010BD000030B50E222DED048B6E
:1033100085B069463B2000F0C1F8BDF800002E4999
:1033200040BA00B208800446BDF8020040BA4880A6
:10333000BDF8040040BA05B28D80BDF8060040BA61
:1033400000EE100AB8EE400A81ED030ABDF808004D
:1033500040BAC880BDF80A0040BA00B20881BDF882
:103360000C20404252BA4A81FDF707F99FED1B1B22
:1033700053EC112BFDF792F8FDF736F908EE100A21
:103380002846FDF7FAF841EC190B2046FDF7F5F851
:1033900041EC100BB0EE491AF0EE691A01F0CCFBCB
:1033A0009FED101B51EC100B53EC112BFDF704F8A3
:1033B0009FED0E1B53EC112BFDF770F8FDF714F980
:1033C00000EE100A0448F0EE480A6830FFF726FEC7
:1033D00005B0BDEC048B30BD1C010020666666663E
:1033E000666630400000000000806640000000403B
:1033F000FB21094030B585B00024142212496846EB
:10340000FCF721FF6420FEF72BF8752000F022F86E
:103410000E494FEA0D05087005EB4400417815F898
:10342000140000F065F80120FEF71AF8641CE4B2FD
:103430000A2CF1D30648FFF75DFE05485838FFF720
:1034400059FE05B0002030BD3451000801000020B5
:1034500084010020F8B50E4C0021C4F898120D4DDF
:1034600040F0800037262871EA1C0123511C0A48CD
:1034700004F526740096FEF71BFDEA1C0123511C7F
:1034800005480096FEF714FD01202060E878F8BD9D
:10349000008042420100002050020020F8B5114C8B
:1034A0000F4600211646C4F898120F4940F08000DC
:1034B00037258871C91D8A1E08700123491E0B48D3
:1034C00004F526740095FEF7F3FC074933463A46A7
:1034D000C91D06480095FEF7EBFC01202060002086
:1034E000F8BD000000804242010000205002002090
:1034F000F8B50F4C0F460021C4F898120D4D00F09E
:103500007F003726A8706A1C0123511C0A4804F565
:1035100026740096FEF7CCFCAF706A1C0123511C88
:1035200005480096FEF7C4FC012020600020F8BD8D
:103530000080424201000020500200207CB5144669
:103540000D4606466B4606224321682000F02CF803
:1035500000280BD1BDF8001049BA3180BDF8021027
:1035600049BA2980BDF8041049BA21807CBD10B544
:103570000446FFF7D3FCD020FFF7A0FCFFF710FDB7
:103580002046FFF79BFCFFF70BFDFFF7C7FCD120A0
:10359000FFF794FCFFF704FD0020FFF75BFC0446F7
:1035A000FFF7DCFC204610BD2DE9F0411D46144616
:1035B0000F460646FFF7B2FC7006000EFFF77EFCD2
:1035C000FFF7EEFC20B1FFF7C9FC0120BDE8F08158
:1035D0003846FFF773FCFFF7E3FCFFF79FFC012081
:1035E00000EB4600C0B2FFF769FCFFF7D9FC09E029
:1035F000012C0DD05FF00100FFF72CFC641E05F8D4
:10360000010BE4B2002CF3D1FFF7A8FC0020DDE7AA
:103610000020F1E7C006010E1C2000F034B8C006FF
:10362000010E1B2000F02FB8BC2801D3012110E0AF
:10363000622801D302210CE02A2801D3032108E0EB
:10364000142801D3042104E00A2801D3052100E055
:1036500006211A2000F017B810B504464FF47A700E
:10366000844201D9044602E0042C00D20424B0FBB9
:10367000F4F0401EC1B2192000F005F86008BDE862
:103680001040FFF7D1BF70B50C460546FFF746FC6A
:10369000D020FFF713FCFFF783FC50B92846FFF753
:1036A0000DFCFFF77DFC2046FFF708FCFFF778FCD8
:1036B00018B1FFF753FC012070BDFFF74FFC00204D
:1036C00070BD0000104810B50E4901600521416031
:1036D00000214FF400328160C0E9031252014261BF
:1036E0000176012242768176C17601774277FDF735
:1036F0001BFC002805D0BDE810404B2103A001F0C1
:103700008EB810BD006400400C0200202E2E2F53F6
:1037100072632F63616E2E6300000000114808B5CC
:10372000016841F480010160016801F480010091A9
:10373000016841F4001101600068002200F40010EB
:10374000009011460C20FEF765F80C20FEF757F8A4
:10375000002211463A20FEF75DF8BDE808403A2005
:10376000FEF74DB8303802402DE9F043464887B0A7
:103770000025016841F040010160016801F040014D
:103780000591016841F002010160016801F0020148
:103790000591016841F010010160016801F010011C
:1037A0000591016841F008010160016801F008011C
:1037B0000591016841F080010160016801F080011C
:1037C0000591016841F020010160016801F02001CC
:1037D0000591016841F00101016000682B4F00F084
:1037E00001004FF400540590002221463846FDF7B1
:1037F0002FFFDFF89C900122B0214846FDF728FFFB
:10380000DFF89080002240214046FDF721FF012291
:10381000960331464046FDF71BFF00940124CDE995
:103820000145694638460395FDF72CFE3020CDE969
:1038300000040320CDE9024069464846FDF722FE18
:1038400040208DE83100694640460395FDF71AFE99
:10385000A002CDE90005694602940F48FDF712FE6B
:10386000CDE9006469464046CDE90245FDF70AFE10
:103870008020CDE9000469464846CDE90245FDF7C0
:1038800001FE07B0BDE8F083303802400018024066
:103890000010024000140240000C0240114810B514
:1038A0000F4901604FF48271416000218160C16065
:1038B0004FF400720161C0E905123022C0E907210E
:1038C000416281620A21C162FEF78CFA002805D0AC
:1038D000BDE81040452104A000F0A1BF10BD0000CC
:1038E00000500140500200202E2E2F5372632F7380
:1038F00070692E630000000010B524488CB0224986
:10390000016059210024C0E9011440F6C311C0E947
:103910000314FEF708FC18B1B5211DA000F07FFFCD
:103920004FF48050079007A91848FEF75DFC18B1C6
:10393000BB2117A000F073FF1448FEF728FE18B152
:10394000C02113A000F06BFF602000904FF47A704C
:10395000CDE90104002269460C480494FEF7AFFD4E
:1039600018B1C9210AA000F05AFF0422694607488D
:10397000FEF7A5FD18B1CE2105A000F050FF0348C9
:10398000FEF760FD0CB010BD001800405C03002085
:103990002E2E2F5372632F74696D2E63000000006A
:1039A00010B525488EB023490160B3210024C0E939
:1039B00001144FF47A71C0E90314FEF7B4FB18B197
:1039C00042211EA000F02BFF4FF48050079007A962
:1039D0001948FEF709FC18B1482118A000F01FFF94
:1039E0001548FEF7D4FD18B14D2114A000F017FFC3
:1039F0000B940BA910480C94FEF76DFB18B15421E1
:103A00000EA000F00CFF602000904FF4FA70CDE99A
:103A100001040022694608480494FEF750FD18B1DD
:103A20005D2106A000F0FBFE0348FEF70BFD0EB083
:103A300010BD000000040040A80200202E2E2F53CD
:103A400072632F74696D2E630000000010B5254865
:103A50008EB02349016059210024C0E9011440F2CD
:103A6000CF71C0E90314FEF75EFB18B171211EA0EF
:103A700000F0D5FE4FF48050079007A91948FEF7D3
:103A8000B3FB18B1772118A000F0C9FE1548FEF766
:103A90007EFD18B17C2114A000F0C1FE0B940BA98F
:103AA00010480C94FEF717FB18B183210EA000F00C
:103AB000B6FE602000904FF4FA70CDE901040022B8
:103AC000694608480494FEF7FAFC18B18C2106A058
:103AD00000F0A5FE0348FEF7B5FC0EB010BD0000D7
:103AE00000080040E40200202E2E2F5372632F7432
:103AF000696D2E63000000001CB510480E490024BB
:103B000001605921C0E9011440F2E731C160FEF7BC
:103B10000AFB18B19D210AA000F081FE00946946BD
:103B200006480194FEF7D7FA002803D0A42104A088
:103B300000F075FE1CBD00000010004020030020B6
:103B40002E2E2F5372632F74696D2E6300000000B8
:103B50000D4810B50B4901604FF4E131416000217F
:103B600081600C22C160C0E904128161C161FEF76D
:103B7000D7FD002805D0BDE810404D2103A000F07E
:103B80004EBE10BD004C0040980300202E2E2F5337
:103B900072632F75736172742E6300000D4810B547
:103BA0000B4901600C494160002181600C22C16019
:103BB000C0E9041281610A46C161FDF7D9FD002800
:103BC00005D0BDE81040602104A000F028BE10BD63
:103BD00000100140D8030020A08601002E2E2F5394
:103BE00072632F75736172742E6300000E4810B5F6
:103BF0000C4901604FF4E1314160002181600C22E9
:103C0000C160C0E9041281610A46C161FDF7B0FDDF
:103C1000002805D0BDE81040732104A000F0FFBDCE
:103C200010BD000000440040180400202E2E2F5329
:103C300072632F75736172742E6300000D4810B5A6
:103C40000B4901604FF4E1314160002181600C2299
:103C5000C160C0E904128161C161FEF761FD002805
:103C600005D0BDE81040862103A000F0D8BD10BDEE
:103C700000480040580400202E2E2F5372632F75E9
:103C8000736172742E6300000E4810B50C49016018
:103C90004FF4E1314160002181600C22C160C0E934
:103CA000041281610A46C161FDF762FD002805D05A
:103CB000BDE81040992104A000F0B1BD10BD000086
:103CC00000140140980400202E2E2F5372632F758C
:103CD000736172742E630000FEE770470907090ED6
:103CE000002806DA00F00F0000F1E02080F8141D33
:103CF000704700F1E02080F80014704730B4034CA6
:103D00008466034CC46630BC01F0F8B9FD5000086D
:103D10000F510008704738B50B4600920446002248
:103D2000802100F008F8002804D0606D40F02000E9
:103D30006065032038BD2DE9F0411D4617460E464B
:103D40000446DDF8188035E0681C33D02DB1FDF74E
:103D500085FCA0EB0800A8422CD32068416821F024
:103D6000E00141606068B0F5827F0BD1A068B0F5DA
:103D7000004F02D0B0F5806F04D12068016821F0B7
:103D800040010160A06AB0F5005F0AD120680168B7
:103D90004DF6FF72114001602068016841F4005146
:103DA0000160012084F85100002084F850000320B5
:103DB000BDE8F0812068806836EA000004D0002069
:103DC000B842C1D10020F3E70120F9E7704710B5F0
:103DD000FDF74AFCBDE81040FEF777B930B527483B
:103DE00093B00025016841F080510160006800F047
:103DF000805011902248016841F440410160006800
:103E0000022400F440401190012000900004019031
:103E10008001CDE9064006200890B420CDE90904D0
:103E200004200B906846FDF74FFE00B1FEE7FDF75A
:103E300023FD00B1FEE70CA90F2081E831004FF40B
:103E4000A0500F904FF48050109005210CA8FDF762
:103E50004BFD00B1FEE7FDF7DFFD4FF47A71B0FBDB
:103E6000F1F0FEF71EF90420FEF70EF900221146CC
:103E7000501EFDF7CFFC13B030BD000040380240AB
:103E8000007000401048016841F4700101600F4863
:103E9000016841F0010101600C4A00210832116003
:103EA00002680B4B1A400260031D0A4A1A6002683E
:103EB00022F48022026005480C3001600249580655
:103EC000803908607047000088ED00E0003802404B
:103ED000FFFFF6FE103000240148FEF7FFB9000096
:103EE00020030020F0B50268234B244D244E254FBB
:103EF000254C4FF0804C984209D0604507D0A8422D
:103F000005D0B04203D0B84201D0A04204D122F083
:103F1000700E4A6842EA0E0298421BD0604519D0E2
:103F2000A84217D0B04215D0B84213D0A04211D049
:103F3000164DA8420ED0164DA8420BD0154DA842E2
:103F400008D0154DA84205D0144DA84202D0144DFA
:103F5000A84203D122F44075CA682A4302608A68E5
:103F6000C2620A688262984201D0A04201D1096906
:103F7000016301214161F0BD0000014000040040E7
:103F800000080040000C00400004014000400140D7
:103F9000004401400048014000180040001C00405F
:103FA0000020004010B5846842EA032224F47F44D4
:103FB0000A432243826010BD826822F070020A43E5
:103FC00042F007018160704730B5026A22F00102B9
:103FD0000262026A436884690D6824F07304254311
:103FE00022F002048A6822430B4CA04202D00B4C00
:103FF000A0420BD122F00804CA6823F44073224384
:104000004C6922F004021C438B69234343608561A1
:1040100049684163026230BD000001400004014074
:1040200030B5026A22F010020262026A43688469B3
:104030000D6824F4E64444EA05248D6822F0200249
:1040400042EA05120D4DA84202D00D4DA8420ED1F4
:10405000CD6822F0800242EA05124D6923F44063E4
:1040600043EA85038D6922F0400243EA85034360F9
:10407000846149688163026230BD00000000014034
:104080000004014030B5026A22F480720262036AC1
:104090004268C46923F4007324F073050C682C4350
:1040A0008D6843EA05230D4DA84202D00C4DA8426D
:1040B0000ED1CD6823F4006343EA05234D6922F451
:1040C000405242EA05128D6923F4806342EA0512E8
:1040D0004260C4614968C163036230BD00000140B1
:1040E0000004014030B5026A22F480520262046A80
:1040F0004268C3690D6823F4E64343EA05238D68EB
:1041000024F4005444EA0534084DA84202D0084D76
:10411000A84204D14D6922F4804242EA85124260ED
:10412000C36149680164046230BD000000000140C1
:104130000004014010B5036A046A24F0010404621B
:10414000846924F0F00444EA021423F00A020A43CA
:104150008461026210BD10B5036A23F0100303628C
:104160008369046A23F4704343EA023224F0A00313
:1041700043EA01118261016210BD00001D480188FF
:10418000C1F30A0200F11201A2F580620A804278AE
:10419000D308827843EA4213C3F30A03A3F580638A
:1041A0004B80C378920942EA8303027943EA82236F
:1041B000C3F30A03A3F580638B805308427943EA73
:1041C000C213C3F30A03A3F58063CB8093090B7278
:1041D000C2F301124A72C2884A8102898A814289E5
:1041E000CA81027B0A74427B4A74C2894A82008A6D
:1041F000888270479805002070B50E48FEF708FACF
:104200000D4C0025256002E02068401C2060094814
:10421000FEF7F8F92028F7D12560084D02E0206864
:10422000401C2060012229460248FEF7F1FB0028CD
:10423000F5D170BD9803002024000020EE0E002070
:1042400010B5806B0021C185C184FEF7DAF910BD7D
:1042500070B5846B2068406994F83910C0F3C010C1
:104260000025212904D118B1E584204600F046F844
:104270002068406994F83A10C0F38010222904D1D4
:1042800018B1E585204600F02BF8E06B40F01000F7
:10429000E0632046FEF7B5F970BD10B50146806BAE
:1042A00009680968C90513D40021C1850168CA6875
:1042B00022F48072CA6001684A6922F001024A61F0
:1042C00001684A6922F040024A61202180F83A10D0
:1042D000FEF7C2FB10BD10B5806BFEF70BFD10BDE5
:1042E0000168CA6822F49072CA6001684A6922F0C3
:1042F00001024A61202180F83A1070470168CA68BB
:1043000022F0C002CA60202180F83910704710B531
:1043100090F83A10222901D0022010BD8168B1F531
:10432000805F11D00169002901681FD0496801F040
:104330007F03816A4A1C82620B70C18D491E090489
:10434000090CC18518D026E00269816A002A02683A
:10435000526805D0D2B20A80816A491C8162ECE7BA
:10436000C2F308020A80816A891CF7E74A68816AF9
:104370004B1C83620A70E0E70168CA6822F49072FD
:10438000CA6001684A6922F001024A61202180F86E
:104390003A10FEF761FB002010BD000070B500244C
:1043A0000D460646182900D91825242000F0B4FE31
:1043B000252000F0B1FE2846FCF7F0F89FED091B20
:1043C00053EC112BFBF7F8FFFCF7F5F8C0B200F047
:1043D000A3FE04E0305D00F09FFE641C64B2AC42BA
:1043E000F8DB70BD000000000000D03F2DE9F04177
:1043F00004460068016921F44052E16811430161FB
:104400002168C86849F20C6290432369A268E56993
:104410001A4363692B431A430243CA6021684869FF
:1044200020F44072A06910434861E1696425B1F548
:10443000004F9748974A21684FF032083FD0914289
:1044400001D081427CD1FDF7FDFA00EBC00101EB08
:10445000001061688900B0FBF1F6FDF7F3FA00EB9C
:10446000C00101EB001061688900B0FBF1F0B0FB06
:10447000F5F06FF01801484306EB800108EB0110DE
:10448000B0FBF5F000F0F006FDF7DCFA00EBC00140
:1044900001EB001061688900B0FBF1F0B0FBF5F0B2
:1044A00006EB0016FDF7CEFA00EBC00101EB0010A1
:1044B00061688900B0FBF1F7FDF7C4FAD2E09142E0
:1044C00001D081423DD1FDF7BDFA00EBC00101EB07
:1044D000001061684900B0FBF1F0B0FBF5F0060197
:1044E000FDF7B0FA00EBC00101EB00106168490074
:1044F000B0FBF1F7FDF7A6FA00EBC00101EB0010ED
:1045000061684900B0FBF1F0B0FBF5F06FF0180105
:10451000484307EB800108EBC100B0FBF5F000F069
:10452000F80006EB4006FDF78DFA00EBC00101EB49
:10453000001061684900B0FBF1F7FDF783FA3CE039
:1045400055E0FDF76FFA00EBC00101EB0010616868
:104550004900B0FBF1F0B0FBF5F00601FDF762FA9F
:1045600000EBC00101EB001061684900B0FBF1F7FE
:10457000FDF758FA00EBC00101EB0010616849003B
:10458000B0FBF1F0B0FBF5F06FF01801484307EB1A
:10459000800108EBC100B0FBF5F000F0F80006EB7D
:1045A0004006FDF73FFA00EBC00101EB0010616827
:1045B0004900B0FBF1F7FDF735FA00EBC00101EB64
:1045C000001061684900B0FBF1F0B0FBF5F06FF04E
:1045D0001801484307EB800108EBC100B0FBF5F080
:1045E00000F00700216830448860BDE8F081FDF7E5
:1045F00019FA00EBC00101EB001061688900B0FB03
:10460000F1F6FDF70FFA00EBC00101EB0010616855
:104610008900B0FBF1F0B0FBF5F06FF018014843F2
:1046200006EB800108EB0110B0FBF5F000F0F0069E
:10463000FDF7F8F900EBC00101EB0010616889009B
:10464000B0FBF1F0B0FBF5F006EB0016FDF7EAF970
:1046500000EBC00101EB001061688900B0FBF1F7CD
:10466000FDF7E0F900EBC00101EB00106168890083
:10467000B0FBF1F0B0FBF5F06FF01801484307EB29
:10468000800108EB0110B0FBF5F000F00F00A9E786
:10469000001401400010014090F83910212901D088
:1046A000022070478168B1F5805F016A0BD04A1C17
:1046B0000262026809785160C18C491E0904090C24
:1046C000C1840ED017E009880268C1F30801516067
:1046D00001690029016A02D0491C0162ECE7891CCA
:1046E000FBE70168CA6822F08002CA600068C168FE
:1046F00041F04001C160002070472DE9F04198462B
:1047000017460E460446069D1DE0681C1BD02DB1C1
:10471000FCF7A4FFA0EB0800A84214D92068C168E8
:1047200021F4D071C1602068416921F0010141612B
:10473000202084F8390084F83A00002084F83800FA
:104740000320BDE8F0812068006836EA000004D04C
:104750000020B842D9D00020F3E70120F9E700009B
:1047600070B50E48FDF754FF0D4C0025256002E0A2
:104770002068401C20600948FDF744FF2028F7D13D
:10478000256002E02068401C2060012205490348A2
:10479000FEF73EF90028F5D170BD00001804002096
:1047A00024000020CE0E002008B50E48FDF730FF93
:1047B0000D490C4A0020086010680368DB0610D51C
:1047C000036840680090506B026852680A60006895
:1047D00040680860BDE80840212204490148FEF70E
:1047E000CBB808BD5804002024000020F6000020AB
:1047F00010B50848FDF70CFF0648FDF703FF202819
:10480000FAD1012204490348FEF702F90028F8D141
:1048100010BD00009804002028000020FEE7FEE7FD
:10482000014A024900F02FBB2D4F00084400002030
:1048300003B401984100009850EAC12018BF042039
:104840004A0D18BF40F0010040F2FF72B2EB515F19
:1048500008BF40F00200012808BF052002B07047E1
:1048600070B59B482DED020B2DED068B079D25F0B5
:104870000044A04218DC9748844202DC0AD1069822
:1048800040B19DED060BBDEC068B02B0BDE870405B
:1048900000F0C6BA002DCCBF9FED8F0B9FED900BA3
:1048A000BDEC068B02B070BD8F48A04215DD8F486D
:1048B000A042D8BF4FF0FF3458DD9DED060B51EC00
:1048C000100BFFF7B5FF042808BF00F0BDFA9DEDFF
:1048D000060BBDEC068B02B070BD9DED060B51ECD6
:1048E000100B00F017FBCDE9060181489FED828B8C
:1048F000A0423CDD8248A0421FDD00249FED82AB38
:104900009DED060B53EC1A2B51EC100BFBF7ADFC95
:104910009DED060B41EC190B53EC1A2B51EC100BCF
:10492000FBF74AFD53EC182BFBF740FD53EC192B1A
:10493000FBF7B4FDCDE9060149E09DED060B01242E
:1049400053EC182B51EC100BFBF78FFC9DED060B75
:1049500041EC190B53EC182B51EC100BFBF726FD17
:1049600053EC192BFBF79AFDCDE906012FE06848BF
:10497000A0421FDD02249FED689B9DED060B53ECCA
:10498000192B51EC100BFBF717FD53EC182BFBF711
:104990006CFC9DED060B41EC180B53EC192B51EC04
:1049A000100BFBF703FD53EC182BFBF777FDCDE95C
:1049B00006010CE09DED060B032453EC102B9FED3C
:1049C000580B51EC100BFBF769FDCDE906019DED8D
:1049D000060B53EC102B51EC100BFBF7EDFC41ECEC
:1049E000180B53EC182BFBF7E7FC41EC190B4E4866
:1049F0000621B0EE490AF0EE690A784400F094F915
:104A000053EC182B51EC100BFBF7D6FC41EC180BB8
:104A10004648B0EE490AF0EE690A0521784400F0F4
:104A200083F953EC192B51EC100BFBF7C5FC41EC4F
:104A3000100B51EC180B53EC102B002C0EDAFBF77B
:104A400014FC9DED061B53EC112BFBF7B5FC9DED03
:104A5000061B53EC112BFBF7ACFC35E0FBF705FC18
:104A60009DED061B53EC112BFBF7A6FC41EC100B44
:104A70002F48784400EBC40090ED001B51EC100B64
:104A800053EC112BFBF792FC9DED061B53EC112B05
:104A9000FBF78CFC41EC100B2648784400EBC4007B
:104AA00090ED001B51EC100B53EC112BFBF781FC2C
:104AB00041EC100B002DA2BFBDEC068B02B070BD07
:104AC00051EC100B81F0004141EC100B01E70000AC
:104AD000000010440000F07F182D4454FB21F93FE2
:104AE000182D4454FB21F9BF0000DC3F0000203E9C
:104AF0000000F33F00000000000000000000F03F55
:104B00000000E63F00000000000000000000004040
:104B10000080034000000000000000000000F83F9B
:104B2000000000000000F0BFD2070000880700006E
:104B300012070000CA06000070B56B4E2DED040B85
:104B40002DED028B82B0DDF81CC0DDE905235C424F
:104B50002CF000411C4341EAD474049D22F0004033
:104B6000B44205D86C422C4340EAD474B4420BD909
:104B70009DED061B9DED040B02B0BDEC028B04B055
:104B8000BDE8704000F056B9ACF14054A4F17F6428
:104B90001C430BD0022404EAAC7444EAD2740543EB
:104BA0009FED538B9FED542B07D015E09DED040B2B
:104BB00051EC100B00F078F942E0002C11BF012CF1
:104BC0009DED040B02B0BDEC028B04BF04B070BDC0
:104BD000022C38D0032C3BD00B439FED491B9FED9B
:104BE0004A0B0AD0B14218D1B04209D121F080411C
:104BF00020F08040079105900FE0002A15DA10E0C0
:104C0000434B7B44002C08BF93ED000B0DD0012CCF
:104C100010D0022C17D0032C1AD0B0421DD1002A7C
:104C200003DAB0EE410AF0EE610A02B0BDEC028B8D
:104C300004B070BD93ED000B51EC100B81F00041FE
:104C400041EC100BF1E7B0EE480AF0EE680AECE731
:104C5000B0EE420AF0EE620AE7E7401A00153C287F
:104C6000C8BF8DED000B19DCBCF1000FBEBF10F109
:104C70003C0F9FED290B8DED000B0FDB9DED060B1F
:104C800053EC102B9DED040B51EC100BFBF706FCC5
:104C900000F040F900F008F9CDE90001002C08BF50
:104CA0009DED000BC1D0012C10D0022C9FED1C0BF0
:104CB00053EC102B9DED000B51EC100B0DD0FBF7BE
:104CC00075FB53EC182BFBF771FBB9E7019880F0EB
:104CD000004001909DED000BA7E7FBF767FB53EC4D
:104CE000182BFBF766FBABE70000F07F000000002D
:104CF000182D4454FB210940182D4454FB2109C0B0
:104D0000182D4454FB21F9BF182D4454FB21F93FC1
:104D1000FA05000000000000000000000000000094
:104D2000075C143326A6A13C70B504462DED028B1A
:104D30004D1E00EBC500B0EE408AF0EE608A90EDAB
:104D4000000B35F0060017D053EC182B51EC100B6C
:104D5000FBF732FB41EC100B6D1E04EBC50090ED30
:104D6000001B51EC100B53EC112BFBF77EFA41ECBE
:104D7000100B35F00600E7D1022D36D0042D1CD0E3
:104D8000062D1CBFBDEC028B70BD53EC182B51ECF3
:104D9000100BFBF711FB94ED0A1B53EC112BFBF7E7
:104DA00064FA53EC182BFBF707FB94ED081B53EC4C
:104DB000112BFBF75AFA41EC100B53EC182B51EC6A
:104DC000100BFBF7F9FA94ED061B53EC112BFBF7D4
:104DD0004CFA53EC182BFBF7EFFA94ED040B53EC61
:104DE000102BFBF742FA41EC100B53EC182B51EC53
:104DF000100BFBF7E1FA94ED021B53EC112BFBF7C0
:104E000034FA53EC182BFBF7D7FA94ED001B53EC54
:104E1000112BFBF72AFABDEC028B41EC100B70BD95
:104E200010B553EC102B51EC100BFBF71EFA41ECB4
:104E3000100B10BD10B553EC112B51EC100BFBF700
:104E400014FA41EC100B10BD9FED050B10B553EC9F
:104E5000102B51EC100BFBF7AFFA41EC100B10BD0F
:104E6000000000000000001002E008C8121F08C186
:104E7000002AFAD170477047002001E001C1121FDB
:104E8000002AFBD170472DE9F04116460F46044633
:104E9000002503E03946B047641C6D1C20780028CB
:104EA000F8D12846BDE8F08110B541EC100BFFF7B2
:104EB000D7FC51EC100B10BD014908707047000081
:104EC0000000002070B5054600244FF47A7603E018
:104ED000304600F005F8641CAC42F9D370BD000008
:104EE00070B54FF0E024002265690949A36909788B
:104EF0004843A1699942FCD002D2A3EB010302E02E
:104F0000A5EB010633441A440B468242F1D370BD2F
:104F10000000002082B0CDE9000121F000400190A6
:104F20009DED000B02B051EC100B704704490A686C
:104F30005206FCD5024AC1B2121D11607047000032
:104F4000004C00402DED088BFCF796FBFEF746FF6A
:104F5000B420FFF7B1FFFEF707FCFEF7DFFBFEF71B
:104F6000B1FBFEF773FDFEF7C7FDFEF7C5FCFEF7CC
:104F7000EFFDFEF713FEFEF787FEFEF737FEFEF7A6
:104F80000FFDFEF75BFEFEF789FC002202213620B2
:104F9000FCF740FC3620FCF732FC002204214720BD
:104FA000FCF738FC4720FCF72AFCFEF771F9FEF706
:104FB0003BF9FEF71FFAFEF71DF821223C493D4858
:104FC000FDF7DAFC12223C493C48FDF7D5FC0122F2
:104FD0003B493C48FDF71CFDFBF7FCFB3A48FDF75D
:104FE000F7F8FEF7B7F8394F0020C7F8B802344990
:104FF000374816399FED37BADFF8DC80374E384C2A
:10500000384D9FED399B9FED3AAB886196ED000AD4
:1050100030EE0B0A10EE100A86ED000A404503DD63
:105020009FED350A86ED000A94ED1B0A85ED000A16
:1050300094ED050A85ED010AB4F90400FBF79DFA29
:1050400041EC180BB4F90000FBF797FA41EC100B98
:10505000B0EE481AF0EE681AFFF76EFD53EC192B0C
:1050600051EC100BFBF7A8F953EC1A2BFBF716FACF
:10507000FBF7BAFAA860B4F90800182100EE100A8C
:10508000B8EEC00A85ED030AB4F90A0000EE100A72
:105090001448B8EEC00A85ED040AFFF77FF96420D2
:1050A000FCF7DEF9D7F8B802C043C7F8B802ADE79D
:1050B000F60000205804002098050020D8030020A6
:1050C000EE0E0020980300202003002000804242C2
:1050D0004C0E0020CDCCCC3DC3F54840180000203C
:1050E0001C010020DC010020000000000080664060
:1050F00000000040FB210940C3F548C000F15C0CF2
:105100008CE80E0080ED031A80EC020A704780EDF7
:10511000031A80EC020A7047044909680A68D243FE
:105120005206FBD402490860704700009803002033
:10513000044C00406B806B036C001A021B181C109F
:105140001D026A200000000000061016000610165E
:105150000000000000000000010203040607080927
:1051600000000000010203044FBB610567ACDD3F96
:10517000182D4454FB21E93F9BF681D20B73EF3F7E
:10518000182D4454FB21F93FE2652F227F2B7A3CF6
:10519000075C143326A6813CBDCBF07A8807703CAF
:1051A000075C143326A6913CC4EB98999999C9BF22
:1051B000711623FEC671BCBF6D9A74AFF2B0B3BF57
:1051C0009AFDDE522DDEADBF2F6C6A2C44B4A2BF17
:1051D0000D5555555555D53FFF8300922449C23F83
:1051E0006E204CC5CD45B73F513DD0A0660DB13FB7
:1051F000EB0D76244B7BA93F11DA22E33AAD903FC9
:1052000000000000000000002852000800000020FC
:1052100048000000684E0008705200084800002056
:10522000B0120000784E00080000000000000000EE
:10523000FF0000000000000000000000000000006F
:10524000000000000000000000000000000000005E
:10525000000000000000000000000000010000004D
:1052600010000000000000000024F4000000000016
:04000005080001AD41
:00000001FF
