:020000040800F2
:1000000088130020C10100084B3E0008C12F0008E2
:10001000493E000835080008354C00080000000083
:10002000000000000000000000000000E5410008A2
:10003000A10B0008000000002D410008E741000866
:10004000DB010008DB010008DB010008DB01000820
:10005000DB010008DB010008DB010008DB01000810
:10006000DB010008DB010008DB010008DB01000800
:10007000E50A0008DB010008DB010008DB010008DD
:10008000DB010008DB010008DB0100088108000833
:1000900075080008DB010008DB010008DB0100082F
:1000A000DB010008DB010008DB010008DB010008C0
:1000B000DB010008DB010008DB010008DB010008B0
:1000C000DB010008DB010008DB010008DB010008A0
:1000D000DB010008DB010008794B0008C14B000878
:1000E000DB010008DB010008DB010008DB01000880
:1000F000DB010008DB010008DB010008DB01000870
:10010000DB010008DB010008DB010008DB0100085F
:1001100011460008DB010008F1420008DB0100087D
:10012000DB010008DB010008F10A0008DB01000820
:10013000DB010008DB010008DB010008DB0100082F
:10014000DB010008DB010008DB010008DB0100081F
:10015000DB010008DB010008DB010008094C000896
:10016000DB010008DB010008DB010008DB010008FF
:10017000DB010008DB010008DB01000800000000D3
:10018000DB010008DB010008DB010008DB010008DF
:10019000DB010008DB010008DB010008DB010008CF
:1001A0000000000000000000DB010008DFF80CD0B8
:1001B00000F02EFB004800476D5600088813002011
:1001C0000648804706480047FEE7FEE7FEE7FEE7F1
:1001D000FEE7FEE7FEE7FEE7FEE7FEE79D420008DA
:1001E000AD0100082DE9F05F0546002092469B46D0
:1001F00088460646814640241BE02846414647463D
:10020000224600F04EFA53465A46C01A914110D386
:1002100011461846224600F035FA2D1A67EB010800
:100220004F4622460120002100F02CFA17EB00096E
:100230004E41201EA4F10104DFDC484631462A4627
:100240004346BDE8F09F40EA01039B0703D009E065
:1002500008C9121F08C0042AFAD203E011F8013BB2
:1002600000F8013B521EF9D270472DE9FE4F80463F
:1002700081EA0300C00F0C46009021F0004123F0FA
:100280000045B8EB0200A94105D240462146904600
:100290001C460B46024623F00040104347D0270D72
:1002A000C7F30A00C3F30A510290401A0190402894
:1002B0006BDAC3F3130040F4801B0098924620B120
:1002C0000023D2EB030A63EB0B0B01985946C0F1F4
:1002D0004002504600F0D6F906460D4650465946B3
:1002E000019A00F0EEF910EB08006141002487EA62
:1002F000115284EAE7731A4340D0009A62B3019A1C
:10030000012A4FEA075215DC001B61EB02014FF096
:10031000004202EA0752CDE90042001C41F580117B
:1003200032462B4600F025FA03B0BDE8F08F404678
:100330002146F9E7001B61EB0201001C41F5801327
:1003400000185B412018A2F5001747EB030140EAB3
:10035000D570B6196D4111E06D084FEA360645EAD1
:10036000C0754FEA0752001B61EB0201001C41F50A
:10037000801149084FEA30000019514132462B469E
:1003800003B0BDE8F04F00F0E5B90098012240004D
:100390000023D0EB020263EBE073009821464FEAA2
:1003A000E074B8EB000061EB0401E9E783F000437F
:1003B0005BE781F0004158E72DE9FE4F81EA030435
:1003C00004F0004421F0004100944FF0000B23F0B2
:1003D000004350EA01045ED052EA03045BD0C3F349
:1003E0000A54C1F30A552C44A4F2F3340194A0FB3F
:1003F0000254C1F3130141F48011C3F3130343F416
:10040000801301FB024400FB034E840A970A44EA6E
:10041000815447EA8357A4FB076802958D0A05FBC0
:1004200007854FEA932C04FB0C542705029D4FEAE5
:10043000065847EA1637B5EB08056EEB070C870E32
:10044000920E47EA811742EA8312A7FB0201B6EB3C
:100450000B0164EB00042B0D43EA0C335E1844EBF4
:100460001C50DA465146E7FB0201C5F313044FEA7C
:100470000B3343EA14534FEA0432019C43EA060368
:10048000A4F10C040294009CCDE900B400F071F9D1
:1004900003B0BDE8F08F00200146F9E72DE9F04DEB
:1004A00081EA030404F0004B21F0004514464FF0AC
:1004B000000A23F0004150EA050220D054EA01026C
:1004C0001DD0C5F30A570246C5F31303C1F3130049
:1004D000C1F30A5640F4801543F48013A7EB0608D5
:1004E000101BD64608F2FD3873EB050002D308F165
:1004F000010801E092185B41B8F1000F03DA002017
:100500000146BDE8F08D00204FF480110646844678
:100510000EE0171B73EB050705D3121B63EB0503F6
:1005200006434CEA010C49084FEA300092185B413F
:1005300050EA0107EDD152EA030012D082EA04002A
:1005400083EA0501084305D0101BAB4106D2012206
:10055000002306E000224FF0004302E06FF00102AA
:1005600053101AEB06004CEB085110EB0A0041EB5C
:100570000B01BDE8F04D00F0EDB80EB5C10F80EAFB
:10058000E0700844CA07002140F233438DE80E00B2
:100590000A460B4600F0EDF803B000BD0EB540F280
:1005A000334102910021CDE900110A460B4600F0CB
:1005B000E0F803B000BD70B5C1F30A5201F0004588
:1005C0000024C1F3130140F2FF3341F480119A4239
:1005D00001DA002070BD40F233439A42A2F2334266
:1005E00003DC524200F05DF800E090402C43F1D073
:1005F000404270BDC1F30A5210B5C1F3130140F27D
:10060000FF3341F480119A4201DA002010BD40F21C
:1006100033439A42A2F2334203DC524200F041F8E3
:1006200010BD904010BD00F0004230F000400AD0F4
:10063000C10D01F56071C0F3160042EA0151C20814
:1006400040071143704700200146704701F0004306
:1006500030B421F0004150EA010206D00A0DA2F5A3
:100660006072C1F31301002A02DC30BC0020704725
:10067000440F44EAC104C100E01830BC00EBC25092
:1006800000F031B8202A04DB203A00FA02F1002001
:1006900070479140C2F1200320FA03F319439040C0
:1006A0007047202A04DB203A21FA02F0002170472B
:1006B00021FA02F3D040C2F12002914008431946CA
:1006C0007047202A06DBCB17203A41FA02F043EAB2
:1006D000E07306E041FA02F3D040C2F120029140FB
:1006E0000843194670470029A8BF7047401C4900BD
:1006F00008BF20F00100704710B4B0FA80FC00FA87
:100700000CF050EA010404BF10BC704749B1CCF1B1
:10071000200421FA04F411FA0CF118BF012121433D
:100720000843A3EB0C01CB1D4FEA00614FEA1020F8
:1007300042BF002010BC704700EBC350104400299A
:10074000A4BF10BC7047401C490008BF20F0010046
:1007500010BC704710B5141E73F1000408DA401C79
:1007600041F1000192185B411A4301D120F00100D0
:1007700010BD2DE9F04D92469B4611B1B1FA81F2C0
:1007800002E0B0FA80F220329046FFF77BFF044689
:100790000F4640EA0A0041EA0B0153465A46084315
:1007A00013D0114653EA010019D0C8F14002504657
:1007B000FFF777FF05460E46504659464246FFF77B
:1007C00061FF084305D0012004E020463946BDE81A
:1007D000F08D0020054346EAE0762C4337430A9823
:1007E0006305E40AA0EB08000022FD0A44EA47542E
:1007F0000A3002D500200146E9E7010510196941D8
:10080000DDE9084500196941BDE8F04DA2E70000A7
:10081000064C074D06E0E06840F0010394E807004D
:1008200098471034AC42F6D3FFF7C4FC28590008AF
:1008300048590008FEE7000000B58BB000200121F8
:10084000CDE9060103900891049000900E210190DB
:100850000290099105906946054800F01BFA0221B3
:10086000034800F09EF9024800F0F6FC0BB000BD12
:100870009C020020014800F011BB00009C020020F7
:10088000014800F00BBB00009C020020F0B5066898
:10089000012300220A241D037E48A6F20126072E0A
:1008A0002ED2DFE806F0042E67A0D9E1EF000D8814
:1008B000784F6DBA05804D886DBA45808D886DBAC8
:1008C0002DB285808979C180416A4E19466290F8BF
:1008D00008C0B97FBCF1010F07EB410103D1B1F9A9
:1008E0000A70F61B46624D81817F491CC9B281772F
:1008F000092901D982770372416A91FBF4F10184DD
:10090000F0BD0D88634F6DBAA0F880514D886DBA67
:10091000A0F882518D886DBA2DB2A0F884518979E2
:10092000A0F88611D0F8A4114E19C0F8A46190F86F
:1009300088C197F89E11BCF1010F07EB410104D16A
:10094000B1F98A71F61BC0F8A461A1F88A5190F838
:100950009E11491CC9B280F89E11092903D980F85B
:100960009E2180F88831D0F8A41191FBF4F1A0F811
:10097000A011F0BD0D886DBAA0F800534D886DBA76
:10098000A0F802538D886DBA2DB2A0F8045389796E
:10099000A0F80613D0F824134E193E49C0F824637A
:1009A00090F808C391F81E73BCF1010F01EB4701E9
:1009B00004D1B1F90A73F61BC0F82463A1F80A53F5
:1009C00090F81E13491CC9B280F81E13092903D9D7
:1009D00080F81E2380F80833D0F8241391FBF4F13B
:1009E000A0F82013F0BD0D882A4F6DBAA0F88054EE
:1009F0004D886DBAA0F882548D886DBA2DB2A0F8DA
:100A000084548979A0F88614D0F8A4144E19C0F83B
:100A1000A46490F888C497F89E14BCF1010F07EB0A
:100A2000410104D1B1F98A74F61BC0F8A464A1F89D
:100A30008A5490F89E14491CC9B280F89E14092962
:100A400003D980F89E2480F88834D0F8A41491FB50
:100A5000F4F1A0F8A014F0BD088842BA0E4806E0F0
:100A6000A2F500520280F0BD088842BA0B48AA42A3
:100A700002804B885BBA4380898849BA8180EFD86D
:100A8000F0BDFFE7088842BA05480280498849BAA4
:100A90004180F5E750060020500C0020D00D0020CA
:100AA000500F002030B40D4B40F2FF141C600024A6
:100AB0009C60DC6008241C61094B040A1C7058709F
:100AC000080A9870D970100A18715A7103491B1FCF
:100AD00030BC1A1D01F1180000F077B88402002024
:100AE00020000020014800F0FDBB0000C8050020E8
:100AF000014800F0F7BB00006805002001681823DA
:100B0000CAB2103AB2FBF3F2054B6FF30901032AA4
:100B10009B5CC36500D9091D8165084670470000CC
:100B2000E457000810B5014600208B698A6A4FF02F
:100B3000C07453B1B3F5005F15D072B1012A0CD067
:100B4000022A0AD0032A09D104E01AB1012A06D0E8
:100B5000022A03D1C96AC90100D5012010BDC96AA2
:100B6000A142FAD010BD002AF7D0012AF2D0022A01
:100B7000F3D0032AF3D010BD30B50468256825F4FE
:100B800080252560046863608368402B036803D078
:100B900099600068C26030BD9A600068C16030BD75
:100BA000704790F82020012A09D090F82020022ACE
:100BB00005D0416A41F480214162012070470068FC
:100BC00042690A43426100207047F0B590F8204026
:100BD000012C07D090F82040022C03D0416A41F448
:100BE000802153E00468A5686D0105D4A5682D0136
:100BF00002D4A568ED0046D5A4680125C4F30164BC
:100C0000A5401D608D684FF4C0739DB1CE6835431B
:100C10004E6845EAC605066803EB0417F5514FF424
:100C2000C275076805EB04150E697E51097D01291F
:100C300005D009E00E88CD6845EA4655EBE7016826
:100C40004E5946F480764E511179D2F805504FF442
:100C5000C67641EA0521056806EB0416A95111780C
:100C6000D2F801204FF4C47541EA0221026805EB75
:100C700004155151006803EB0411425842F001027F
:100C800042500020F0BD416A41F400114162012050
:100C9000F0BD000010B590F82020012A09D090F88E
:100CA0002020022A05D0416A41F4802141620120BE
:100CB00010BD3A48D0F8002242F00102C0F80022EC
:100CC000D0F8002222F47C52C0F80022D0F8002292
:100CD0004B6A42EA0322C0F800220B7D01229A40AF
:100CE000D0F81C329343C0F81C32CB69B3B9D0F8AA
:100CF0000C329343C0F80C328C894B6864F31F4369
:100D00004C6900EBC404C4F840320C890B6864F3EE
:100D10001F434C6900EBC404C4F84432CB69012B77
:100D200016D1D0F80C321343C0F80C320C884B6843
:100D300064F31F434C6900EBC404C4F840320C89CF
:100D4000CB6864F31F434C6900EBC404C4F844321D
:100D50008B69002BD0F804320ED01343C0F8043254
:100D60000B69002BD0F8143208D01343C0F81432AA
:100D7000096A012904D008E09343EFE79343F5E7BC
:100D8000D0F81C121143C0F81C12D0F8001221F048
:100D90000101C0F80012002010BD000000640040F6
:100DA000704730B590F82040012C07D090F82040D3
:100DB000022C03D0416A41F4802109E011B10129DC
:100DC00009D00CE00468E46807E0416A41F40011CE
:100DD0004162012030BD04682469A407F5D04FF4B6
:100DE000D874056804EB01142D5915F004059560BD
:100DF00005682D5942D0ED08556005682C59C4F39B
:100E00004004D4604FF4DA74056804EB01142D59E2
:100E100005F00F05156105682D59C5F30725956186
:100E200005682C59240C54614FF4DC72046802EB01
:100E30000112A4581C700468A458240A5C70046849
:100E4000A458240C9C700468A258120EDA704FF457
:100E5000DE72046802EB0112A4581C710468A458E5
:100E6000240A5C710468A458240C9C710468A2587C
:100E7000120EDA7129B1012909D00DE06D0D15604E
:100E8000BBE70068C16841F02001C16004E0006870
:100E9000016941F020010161002030BD2DE9F05FC2
:100EA0000546006800244669D0F804908768D0F8A9
:100EB0000CB0D0F810A0D0F81880F10748D0F9078E
:100EC00014D001218160B80703D5284600F0F1F95C
:100ED0000CE0780702D54FF4006407E0380702D52C
:100EE0004FF4805402E0284600F0E2F9F80516D5E8
:100EF00029684FF480708860B80503D5284600F053
:100F0000DAF90CE0780502D544F4005407E038051E
:100F100002D544F4804402E0284600F0CBF9F803FF
:100F200016D529684FF480308860B80303D5284669
:100F300000F0C3F90CE0780302D544F4004407E064
:100F4000380302D544F4803402E0284600F0B4F9B6
:100F5000300707D55FEACB6004D52968102044F438
:100F60000074C86070074FF0080707D55FEA0B7080
:100F700004D52868C760284600F050F9B00706D5A8
:100F80002868C068800702D0284600F049F970063A
:100F900007D55FEACA6004D52968102044F480644C
:100FA0000861B00607D55FEA0A7004D528680761B2
:100FB000284600F04DF9F00606D52868006980073C
:100FC00002D0284600F045F9B00308D55FEAC960B1
:100FD00005D5296810204860284600F03BF9F00349
:100FE00007D55FEA097004D528684760284600F0F5
:100FF00065F9300446D55FEA497040D5F00504D55F
:101000005FEAC87001D044F00104B00504D55FEA7E
:10101000887001D544F00204700504D55FEA487079
:1010200001D544F00404300529D518F0700F26D0FE
:1010300008F07000402815D006DC102809D02028C0
:101040000AD0302816D10AE050280ED0602811D1DD
:101050000EE044F008040DE044F010040AE044F00F
:10106000200407E044F0400404E044F0800401E080
:1010700044F480742868816921F0700181612968D5
:1010800004204860002C05D0686A20436862284626
:10109000FFF786FEBDE8F09F70B5040003D094F81A
:1010A000200010B104E0012070BD204600F082F85D
:1010B0002068016821F00201016000F087FB05460D
:1010C000052604E000F082FB401B0A2811D82068A6
:1010D00040688007F6D42068016841F00101016092
:1010E00000F074FB05460BE000F070FB401B0A2883
:1010F00006D9606A40F40030606284F82060D2E76C
:1011000020684068C007EFD0207E01282068016871
:101110003DD021F080010160607E012820680168D7
:1011200038D021F040010160A07E012820680168CC
:1011300033D021F020010160E07E012820680168A1
:101140002ED041F010010160207F01282068016845
:1011500029D021F008010160607F01282068016822
:1011600024D021F004010160D4E902010843D4E94C
:101170000412114308436168491E08432168C8618D
:1011800000206062012084F82000002070BD41F042
:101190008001C0E741F04001C5E741F02001CAE706
:1011A00021F01001CFE741F00801D4E741F004013C
:1011B000D9E7000000B50068154987B0884225D1FD
:1011C00014480021026842F00072026000680222A6
:1011D00000F0007005900320CDE90210CDE9000277
:1011E0000920049069460C4800F004FA00221146D8
:1011F000132000F0C7FB132000F0B9FB00220121EF
:10120000142000F0BFFB142000F0B1FB07B000BDBC
:101210000064004040380240000C0240704700006B
:1012200010B5084A016891420AD1074B074A0021CC
:10123000FFF7B7FDBDE8104003490448FFF726BBA0
:1012400010BD00000064004028000020C4020020FF
:10125000704770477047000070B5044690F8200052
:10126000012804D0606A40F40020606218E0022087
:1012700084F820002068016821F00101016000F07D
:10128000A5FA05460EE000BF00F0A0FA401B0A28B0
:1012900008D9606A40F400306062052084F82000BC
:1012A000012070BD20684068C007EDD1606270BD4C
:1012B000704770477047704770477047704790F8A5
:1012C0003510022903D08021416501207047052196
:1012D00080F835100068016821F0010101600020EC
:1012E000704700002DE9F84304464FF00009CDF89F
:1012F000009063484FF41651A56D0068B0FBF1F7FC
:101300002E6894F85C10082000FA01F131420FD0E9
:1013100021680A6852070BD50A6822F004020A60A5
:1013200094F85C108840A860606D40F00100606532
:1013300094F85C104FF0010808FA01F0304208D030
:1013400021684969090604D5A860606D40F0020073
:10135000606594F85C1004208840304208D0216811
:101360000968890704D5A860606D40F004006065D5
:1013700094F85C1010208840304218D02168096829
:10138000090714D5A86020680168490304D50068DE
:10139000000308D5A16C07E00168C90503D4016802
:1013A00021F008010160216C09B12046884794F8BA
:1013B0005C1020208840304231D021680968C9067D
:1013C0002DD5A86094F8350005282068016806D05E
:1013D000490347D5006800031DD4616C1CE021F06F
:1013E000160101602068416921F080014161206C93
:1013F00008B9A06C20B12068016821F008010160E3
:1014000094F85C103F208840A86084F8349084F8F9
:101410003580216D1FE0E16B09B120468847606D82
:1014200000282BD0606DC00714D0052084F835004B
:101430002068016821F0010101600098401C0090C3
:10144000B84203D820680068C007F6D184F8349009
:1014500084F83580E16C002910D001B02046BDE849
:10146000F04308470168C905D5D4016821F010018F
:10147000016084F8349084F83580CCE7BDE8F883C7
:10148000CC0000202DE9F041044600F09FF906460B
:101490005CB1002584F83450022084F835002068BF
:1014A000016821F0010101600DE00120BDE8F0813B
:1014B00000F08CF9801B052805D9202060650320E9
:1014C00084F83500F2E720680068C007F0D1226890
:1014D000116820480140D4E901031843D4E90336D8
:1014E0003343184363691843A3691843E3691843F6
:1014F000236A18430843616A042903D1D4E90B1312
:1015000019430843106020684069666A20F00701AB
:1015100030460E43012704280CD1A06A0643E06A36
:1015200040B12046FFF7FEFA20B14020606584F804
:101530003570BAE7206846612046FFF7DFFA94F875
:101540005C203F2191408160656584F83570002002
:10155000ACE700003F8010F02DE9F0410446866DB5
:1015600090F83400002501280DD0012084F83400C3
:1015700094F835700020012F07D084F8340002253C
:101580002846BDE8F0810220FBE7022784F8357089
:1015900060652046FFF7F0FA94F85C103F20884021
:1015A000B0602068016841F016010160206841695F
:1015B00041F080014161206C20B12068016841F058
:1015C000080101602068016841F001010160D7E76E
:1015D00070B5044600F0FAF80546601C02D00448D5
:1015E0000078044400F0F2F8401BA042FAD370BD2A
:1015F000C00000202DE9F84FDFF890B100224FF035
:1016000001084FF0030A4FF00F090BF1040E00BF61
:101610000B6808FA02F42340A3426ED14D68022DF4
:1016200001D0122D0ED1D50800EB850CDCF820502E
:101630005607F70E09FA07F6B5430E69BE402E436A
:10164000CCF82060066855000F790AFA05FC07F00F
:10165000030726EA0C06AF40374307604E68012EA9
:1016600005D0022E03D0112E01D0122E0ED1876884
:10167000CE6827EA0C07AE403E4386604668A64324
:101680000C79C4F30014944034434460C4688E68F9
:1016900024EA0C04AE402643C6604C68E4006FD5D3
:1016A0003B4C256845F480452560246822F00305FD
:1016B00004F480440094374C2E19D6F80848950756
:1016C0002F0F09FA07F5AC43334DA84201D100258D
:1016D0002EE0324DA84201D1012529E0304DA8422B
:1016E00001D1022524E02F4DA84201D103251FE09E
:1016F0002D4DA84202D104251AE041E02B4DA8420D
:1017000001D1052514E02A4DA84201D106250FE09C
:10171000284DA84201D107250AE0274DA84201D152
:10172000082505E0254DA84201D1092500E00A253C
:10173000BD402543C6F80858DBF800405D464E68BA
:101740009C43F60300D51C432C60DEF80040754630
:101750004E689C43B60300D51C432C600B4D0835E6
:101760002C684E689C43F60200D51C432C60074D44
:101770000C352C684E689C43B60200D51C432C6087
:10178000521C102AFFF444AFBDE8F88F003C014022
:101790004438024000300140000002400004024092
:1017A00000080240000C02400010024000140240F9
:1017B00000180240001C02400020024000240240A9
:1017C0000AB1816170470904FBE7000001488068A5
:1017D00070470000C0000020024881680278114470
:1017E00081607047C00000200B4810B5016841F4CB
:1017F00000710160016841F480610160016841F499
:1018000080710160032000F0DDF8002000F006F890
:1018100000F024F8002010BD003C024070B50D4DD2
:1018200004464FF47A712878B1FBF0F00A49096850
:10183000B1FBF0F000F0EDFC48B9102C07D200220B
:101840002146501E00F09EF800206C6070BD012003
:1018500070BD0000C0000020CC0000201F4808B56B
:10186000016841F480410160006800F4804000900C
:101870001A48001F016841F080510160006800F0C3
:1018800080500090032000F09DF8002211466FF078
:101890000B0000F077F8002211466FF00A0000F00C
:1018A00071F8002211466FF0090000F06BF8002279
:1018B0001146501F00F066F800221146101F00F07C
:1018C00061F800221146901E00F05CF80022BDE88D
:1018D00008401146501E00F055B800004438024040
:1018E0002DE9F04116460F46040004D094F8390063
:1018F000002518B107E00120BDE8F08184F83850D8
:10190000204601F049F8242084F839002068C16895
:1019100021F40051C160204602F074FF2068016983
:1019200021F4904101612068416921F02A0141615F
:101930002068016921F00F010161206801693943C4
:1019400001612068C16821F40061C1602068C1683C
:101950003143C1602068C16841F40051C160E56352
:10196000202084F8390084F83A000020C4E700F011
:101970001F02012191404009800000F1E020C0F8E1
:1019800000117047F0B40E4B1B680C46C3F30223E2
:10199000C3F10705042D00D90425191D072901D21B
:1019A000002300E0DB1E012606FA05F1491E214056
:1019B00099409E40761E16403143F0BC02F046BA74
:1019C0000CED00E0064900F0070208684FF6FF033F
:1019D000184040EA0220034A1043086070470000A4
:1019E0000CED00E00000FA052DE9F8431748016806
:1019F00041F0805101600068154F00F080500126D1
:101A000000903E64FFF7E2FE05464FF47A78114CF1
:101A100005E000BFFFF7DAFE401B40450DD86068C7
:101A2000C003F7D57E64FFF7D1FE0546464607E0C2
:101A3000FFF7CCFE401BB04202D90320BDE8F8837B
:101A400060688003F4D50020F8E7000040380240C9
:101A500000000E42007000402DE9F0470E460500E0
:101A600065D0DFF81481D8F80000F7B200F00F005D
:101A7000B04207D288F80070D8F8000000F00F00DC
:101A8000B04254D128683D4C810712D5400703D598
:101A9000206840F4E05020602878000703D52068D3
:101AA00040F4604020602068A96820F0F0000843FE
:101AB00020602878C0072DD030496868083901288F
:101AC00012D0022813D0032811D0096889070029F1
:101AD0002DDA216821F0030101432160FFF776FE32
:101AE000814641F2883A0EE009688903EFE7096808
:101AF0008901ECE7FFF76AFEA0EB0901514502D925
:101B00000320BDE8F0872068696800F00C00B0EBA6
:101B1000810FEFD1D8F80010404601F00F01B1421B
:101B200007D90770006800F00F00B04201D0012013
:101B3000E7E72878400705D52068E96820F4E050F9
:101B4000084320602878000706D52068296920F41A
:101B5000604040EAC100206000F03CF82168084A7B
:101B6000C1F30311515CC840064908600020FFF72B
:101B700055FE0020C5E70000003C02400838024046
:101B8000EC570008CC0000200148006870470000B6
:101B9000CC0000200448054900680968044AC1F3E4
:101BA0008221515CC8407047CC00002008380240B8
:101BB000FC5700080448054900680968044AC1F355
:101BC0004231515CC8407047CC00002008380240C8
:101BD000FC570008154810B5006810F00C021448B6
:101BE00013D01449042A0FD0082A0ED10F4C241FF9
:101BF0002268236802F03F025B0207D52068C0F329
:101C00008810A0FB010106E0084610BD2168C1F361
:101C10008811A1FB00010023FEF7E4FA2168C1F35B
:101C20000141491C4900B0FBF1F010BD08380240E9
:101C30000024F400001BB7002DE9F84F050076D012
:101C40002878DFF8F8B2BE4CC00749D0DBF80010A6
:101C50005846C1F38101012908D00068C0F3810012
:101C600002280AD1201D0068400206D520688003A2
:101C700036D568680028E2D032E06868B0F5803F69
:101C800010D0B0F5A02F206810D020F48030206054
:101C9000206820F4802020606868A0B1FFF796FDDE
:101CA00006460CE0206840F48030F4E740F48020E1
:101CB0002060F7E7FFF78AFD801B642873D820684F
:101CC0008003F7D50CE0FFF781FD064605E000BF75
:101CD000FFF77CFD801B6428F0D820688003F7D4D0
:101CE0002878DFF8608280074FF000093ED5DBF8E6
:101CF0000010584611F00C0F09D00068C0F38100A5
:101D000002280BD18D48001F0068400206D42068CD
:101D1000800715D5E868012809D111E0E868B8B155
:101D20000120C8F80000FFF751FD064605E002E17A
:101D3000FFF74CFD801B0228C0D820688007F7D52C
:101D40002068296920F0F80040EAC10020600DE019
:101D5000C8F80090FFF73AFD064604E0FFF736FDAD
:101D6000801B02281FD820688007F7D42878000736
:101D700022D5724E744869696C3671B101210160D7
:101D8000FFF724FD074604E0FFF720FDC01B0228F3
:101D900009D830688007F7D50EE0C0F80090FFF74B
:101DA00015FD074605E083E0FFF710FDC01B022884
:101DB0007ED830688007F7D42878400768D5DFF8E8
:101DC0007CA100270AF1380ADAF80000C0000BD421
:101DD000DAF8001041F08051CAF80010DAF800007B
:101DE000012700F080500090584E3068C00510D494
:101DF000306840F480703060FFF7E8FC009005E048
:101E0000FFF7E4FC0099401A022851D83068C00559
:101E1000F6D54A4EA868683601280FD005283068E4
:101E200010D020F001003060306820F004003060F5
:101E3000A868B8B1FFF7CAFC00900FE0306840F026
:101E40000100F4E740F004003060F7E7FFF7BEFC64
:101E50000099411A41F28830814264D83068800785
:101E6000F4D50EE0FFF7B2FC009007E0FFF7AEFC00
:101E70000099411A41F28830814254D83068800775
:101E8000F4D42FB1DAF8001021F08051CAF8001014
:101E9000A869C0B3DBF80010C1F3810102294AD060
:101EA0000228484607D0C8F86000FFF78FFC00E022
:101EB00039E005463AE04746C8F86000FFF786FC7F
:101EC000064604E0FFF782FC801B02282BD820681E
:101ED0008001F7D4D5E907010843A96A1C4A4908DB
:101EE00002EB01416A6A41EA8211084395F82C101D
:101EF00040EA01611148001F016001203866FFF7C8
:101F000065FC054605E014E0FFF760FC401B022875
:101F100009D820688001F7D50BE000BFFFF756FC19
:101F2000401B022802D90320BDE8F88F20688001F9
:101F3000F4D40020F8E70120F6E70000083802405A
:101F40000038024000004742800E474200700040C7
:101F50000000FFFF70B5040005D00025A56294F8CD
:101F6000510010B106E0012070BD84F850502046A9
:101F700000F030F8022084F851002068016821F058
:101F800040010160D4E901010843D4E9031211437F
:101F9000084361690843218B01F400710843E1693A
:101FA0000843216A0843A16A084321680860A069C0
:101FB000042101EA1040616A0843216848602068F2
:101FC000C16921F40061C1616565012084F8510097
:101FD000002070BD00B500680E4987B0884217D157
:101FE0000D480021026842F480120260006800F48B
:101FF000801005904FF4607000900220CDE901013F
:10200000032003900520049069460448FFF7F2FA84
:1020100007B000BD005001404438024000140240A7
:102020002DE9F84F044690F8500000260A9F9A4682
:1020300093460D464FF0010801280ED0012084F888
:102040005000FFF7C3FB814694F8510061680128F6
:102050000CD0B1F5827F07D102E00220BDE8F88FF5
:10206000A16809B9042801D00226BDE055B1BBF131
:10207000000F07D0BAF1000F04D094F851000128E6
:1020800002D004E00126AFE0052084F851000020D2
:102090006065C4F838B0A4F83EA0A4F83CA025635D
:1020A000A4F836A0A4F834A0206460642068016815
:1020B000490603D4016841F040010160E068B0F5D1
:1020C000006F606804D0E8B3E08E01283BD06AE07E
:1020D00010B1E08E01282ED1216835F8020BC860BE
:1020E000E08E401EE08626E0B8F1000F0DD0E08EB5
:1020F00058B120688168890707D535F8021BC1608F
:10210000E08E401EE0864FF00008E08F58B1206856
:102110008168C90707D0C0682BF8020BE08F401E0A
:10212000E0874FF00108781C05D0FFF74FFBA0EBCC
:102130000900B84246D2E08E0028D5D1E08F0028B1
:10214000D2D136E0FFE7216815F8010B0873E08E65
:10215000401EE08627E000BFB8F1000F0DD0E08EF2
:1021600058B120688168890707D515F8011B0173EC
:10217000E08E401EE0864FF00008E08F58B12068E6
:102180008168C90707D0C0680BF8010BE08F401EBB
:10219000E0874FF00108781C05D0FFF717FBA0EB94
:1021A0000900B8420ED2E08E0028D5D1E08F002879
:1021B000D2D13B46012202212046CDF8009001F009
:1021C000C6FF08B103260FE04A463946204601F013
:1021D000AEFF18B101262020606505E0A06818B99F
:1021E0002068C16880680090012084F851000020B8
:1021F00084F85000304631E74FF0E02104280869A8
:1022000003D020F004000861704740F00400FAE7B2
:10221000704710B5401EB0F1807F01D3012010BD82
:102220004FF0E02460610F21601701F00FFE0020E5
:10223000A06107202061002010BD10B5FFF7E8FF66
:1022400010BD7047704730B590F83820012A20D073
:10225000012280F83820022380F8393003685C6856
:1022600024F070045C6003685C680D682C435C605B
:1022700003689C6824F080049C6003689C6849683B
:102280000C439C6080F83920002180F83810084603
:1022900030BD022030BD10B5040003D094F83900E1
:1022A00010B107E0012010BD002084F8380020465E
:1022B00000F00CF8022084F83900211D206802F09B
:1022C0001DF8012084F83900002010BD08B5174A18
:1022D00001681748914207D1016841F0020101608D
:1022E000006800F0020009E0124A914208D101683A
:1022F00041F004010160006800F00400009008BD96
:102300000D4A914207D1016841F010010160006857
:1023100000F01000F2E7094A9142F0D1016841F063
:1023200040010160006800F04000E7E70004004061
:1023300040380240000800400010004000180040F3
:102340000168CA6842F00102CA600068016841F091
:10235000010101600020704770B5044690F8380014
:10236000012817D0012584F83850022084F839005C
:102370002068826822F0770222F47F428260086837
:10238000502837D00DDC202859D005DC88B3102820
:1023900041D151E0022070BD302853D040283AD1BD
:1023A0003FE060282ED070280BD0B0F5805F03D0BE
:1023B000B0F5005F2FD110E02068816821F007019F
:1023C00015E0CB68D1E90121206801F0F7FF216811
:1023D000886840F0770088601DE0CB68D1E9012172
:1023E000206801F0EBFF2068816841F48041816042
:1023F00011E01EE0CA684968206802F0A7F8502181
:10240000206806E0CA684968206802F0B0F86021D8
:10241000206801F0DDFF84F83950002084F838008E
:1024200070BDCA684968206802F090F840212068B1
:10243000EFE700212068ECE710212068E9E7202180
:102440002068E6E730212068E3E7704770B504466E
:10245000006801694FF00005C943890715D4C168B8
:10246000C943890711D4E91E016101202076206843
:1024700080698007204602D0FFF7E7FF04E000F004
:10248000D5F8204600F057F9257620680169C94340
:10249000490717D4C168C943490713D46FF0040131
:1024A0000161022020762068806910F4407F204678
:1024B00002D0FFF7CAFF04E000F0B8F8204600F0B1
:1024C0003AF9257620680169C943090716D4C1681D
:1024D000C943090712D46FF0080101610420207676
:1024E0002068C0698007204602D0FFF7AEFF04E0F5
:1024F00000F09CF8204600F01EF92576206801695E
:10250000C943C90617D4C168C943C90613D46FF0BB
:1025100010010161082020762068C06910F4407F16
:10252000204602D0FFF791FF04E000F07FF820463C
:1025300000F001F9257620680169C943C90708D16F
:10254000C168C943C90704D1891E0161204600F052
:10255000F3F820680169C943090609D4C168C94371
:10256000090605D46FF0800101612046FFF769FE7E
:1025700020680169C943490609D4C168C9434906AD
:1025800005D46FF040010161204600F043F9206856
:102590000169C94389060BD4C168C943890607D4B8
:1025A0006FF0200101612046BDE87040FFF74ABE90
:1025B00070BD000000B517490268022085B08A424C
:1025C0000AD11021CDE90010012102910321CDE9AA
:1025D0000310694610480BE0104B00219A420BD1C2
:1025E00092140092CDE90101CDE9031069460C482F
:1025F000FFF700F805B000BD0A4B9A42FAD14FF43C
:1026000010720092CDE901010920CDE9031069465D
:102610000548EDE7000400400004024000080040C7
:10262000000C024000180040001C0240704770B5CA
:10263000044690F838000D4601280DD0012684F894
:102640003860022084F8390042B1042A18D0082AE0
:102650002AD00C2A4DD139E0022070BD206801F04B
:10266000BFFE2068816941F00801816120688169AD
:1026700021F004018161206881692A69114311E018
:10268000206801F0D9FE2068816941F40061816110
:102690002068816921F480618161206881692A69EB
:1026A00041EA0221816124E0206801F0F7FE206800
:1026B000C16941F00801C1612068C16921F00401CC
:1026C000C1612068C1692A69114311E0206801F0E5
:1026D00015FF2068C16941F40061C1612068C169CA
:1026E00021F48061C1612068C1692A6941EA02213F
:1026F000C16184F83960002084F8380070BD10B5DD
:10270000040003D094F8390010B107E0012010BD97
:10271000002084F83800204600F00CF8022084F8ED
:102720003900211D206801F0E9FD012084F83900FD
:10273000002010BD7047704770B500682F4988426F
:102740005AD12F4CDFED2F0A04F10806608800EE05
:10275000100A6078B8EE400A36F8100060EE200AE1
:1027600000EE100AB8EE401A80EE810A10EE100A50
:10277000FDF759FF41EC100B02F07EFA51EC100B03
:10278000FDF719FF204D288500F050FEB5F928000F
:1027900000EE100A1D48F8EEC00A90ED090A05F196
:1027A0002C0001F063FBBDEEC00A10EE100AA5F884
:1027B0007C0100F069FD1648B5F97C110022B0F9E2
:1027C0007C01FEF76FF960786188002236F81030DE
:1027D0008B4202D9491C618003E062802178491C48
:1027E00021702178142902D12270401C6070C0B27F
:1027F000402801D12A85FEE770BD0000001000408E
:1028000038000020DA0FC940D00D0020D800002089
:10281000500C00207047704710F8391F407808436B
:102820007047000070B5026804461068D1685369AB
:1028300010F00F0F50D003F0010501F490763543EE
:102840005DD0C20705D0CA0503D5E26B42F0010294
:10285000E263420705D5DA0703D0E26B42F00202D9
:10286000E263820705D5DA0703D0E26B42F0040287
:10287000E263020705D5DA0703D0E26B42F00802F3
:10288000E263E26B002A33D0800604D5880602D5C5
:10289000204601F048FF20684069E16BC0F38010DA
:1028A000090700D428B3204601F026FF20684169BB
:1028B00049061AD5416921F040014161606BA0B120
:1028C0001B490165606BFEF7FAFC002810D0606BB5
:1028D000016DBDE870400847830610D58B060ED504
:1028E0002046BDE8704001F01EBF2046FFF793FF71
:1028F00070BD2046FFF78FFF0020E06370BD030628
:1029000006D50B0604D52046BDE8704002F0D0B8CD
:102910004006F3D54806F1D5D168204621F04001A4
:10292000D160202184F8391000F048FB70BD000010
:102930005946000870B5040004D094F83900002509
:1029400010B106E0012070BD84F83850204600F038
:1029500023F8242084F839002068C16821F400514C
:10296000C160204601F04EFF2068016921F49041CA
:1029700001612068416921F02A0141612068C16834
:1029800041F40051C160E563202084F8390084F8E7
:102990003A00002070BD00002DE9F04F07466A4A5A
:1029A00001680024694803250226DFF8A4A187B046
:1029B0004FF0010C4FF00808914216D1016841F424
:1029C0000021016000688DE8601000F40020CDE96E
:1029D0000480694603955046FEF70CFE0022022152
:1029E0003420FEF7CFFF34205CE0584A594B121DCB
:1029F0004FF007094FF0006B99422ED1106840F05C
:102A000010001060106802AB00F010000590C020AC
:102A1000CDE9000683E8300269464F48FEF7EAFD3B
:102A20004F4D4E482860C5E901B40015C5E9034083
:102A300080106C61C5E906404FF44030C5E90804D8
:102A40002846FEF71FFD18B1DD2146A002F0F3F87D
:102A50007D63AF6307B0BDE8F08F464B994224D148
:102A6000016841F4003101600068CDE9026500F4BD
:102A7000003005900420CDE9000669465046CDF8A7
:102A80001090FEF7B7FD02AA694682E83002CDE950
:102A900000865046FEF7AEFD002203212620FEF7F9
:102AA00071FF2620FEF763FFD4E7334B994233D101
:102AB000016841F4802101600068694600F48020CB
:102AC00005904FF440708DE84110CDE903592B4833
:102AD000FEF790FD224D2A4860352860C5E901B413
:102AE0000015C5E9034080106C61C5E9064040024D
:102AF000C5E908042846FEF7C5FC20B14FF49471DF
:102B000018A002F098F87D63002211462720AF63D9
:102B1000FEF738FF2720C5E71A4881429AD110688E
:102B200040F020001060106802AB00F0200005901B
:102B30004FF48440CDE9000683E83001694612482D
:102B4000FEF758FD86E70000004C00404038024088
:102B500000000240001001400004024040640240B6
:102B6000680500202E2E2F5372632F7573617274C7
:102B70002E6300000044004000480040000C02406A
:102B8000286002400014014000180240F8B50446D5
:102B900090F83A0020283CD1C1B3BAB394F8380079
:102BA000012836D0012084F83800A162A2850025D2
:102BB000E563222084F83A00636B1748D863636B9F
:102BC00016481864636B1648D864606B1346056535
:102BD0000846666B216802463046091DFEF7BCFCBC
:102BE000206801684168009184F83850C16841F458
:102BF0008071C1602068416941F001014161206834
:102C0000416941F0400141610020F8BDFFE701202A
:102C1000FBE70220F9E70000B3460008EF46000892
:102C20006946000890F83A30202B1DD1D1B1CAB1C5
:102C300090F83830012B17D081628285C28500213F
:102C4000C163222280F83A2080F8381001684A696E
:102C500042F001024A610068C16841F49071C160AC
:102C600000207047012070470220704770B504466D
:102C70002DED048B00689449884201D101F08AFC53
:102C8000924920680025884266D1914C60780928D5
:102C900010D2DFE800F0050A141D26313B444F0036
:102CA0002078262809D1012003E02078252804D1A6
:102CB00002206070BDEC048B70BD6570FAE7A188DE
:102CC000207801EB0021A1804B3020720320F0E737
:102CD000A18820780144A180217A08442072042030
:102CE000E7E720782D2802D1A1884942A180217AE6
:102CF000084420720520DCE7E188207801EB002100
:102D0000E180217A084420720620D2E7E188207809
:102D10000144E180217A084420720720C9E7207825
:102D20002D2802D1E1884942E180217A08442072AD
:102D30000820BEE7207A21784FF47A73884201D1C7
:102D4000522002E0A580E5805720A0700122A11C3E
:102D5000604800F0D6F8B0E75F4988425AD15F4C2E
:102D600094F8B900552803D194F8BA0052280BD032
:102D700000F046FABDEC048B2122BDE870405749B3
:102D80005748AE31FFF702BF5FF00000221894F8F9
:102D9000D01092F8B920401C114484F8D0100A28B1
:102DA000F4DBC8B294F8C310884283D1B4F9BB00F5
:102DB000FDF7E3FB9FED4B8B53EC182BFDF7FCFA73
:102DC0009FED4A9B53EC192BFDF7F6FAFDF73EFCFD
:102DD0002065B4F9BD00FDF7D0FB53EC182BFDF7CF
:102DE000EBFA53EC192BFDF7E7FAFDF72FFCE06443
:102DF000B4F9BF00FDF7C1FB53EC182BFDF7DCFA6B
:102E000053EC192BFDF7D8FAFDF720FCA06484F8E9
:102E1000D0504FE737498842FBD137480278817D4F
:102E200002F07F020244517001784A0602D14278D2
:102E3000242AEED1491C017001F07F010829417D4F
:102E4000827D02D01144417534E7914239D12B4A39
:102E5000002143181B795354491C0429F9DB2749E5
:102E60008278091F642A1FD0692A0FD0702A28D1BE
:102E7000826949681160C1782D2922D1816991ED5B
:102E8000000AB1EE400A81ED000A1AE08269496841
:102E90005160C1782D2914D1816991ED010AB1EEFB
:102EA000400A81ED010A0CE082694968D160C1786D
:102EB0002D2906D1816991ED030AB1EE400A81ED19
:102EC000030A45750570F5E6001001400044004016
:102ED0005E0F0020A804002000480040D800002019
:102EE000E8040020000000000000003F0000000097
:102EF00000409F40004C0040680F00203C00002034
:102F000070472DE9F843044690F839001F461646ED
:102F10000D46202850D1A5B19EB194F83800012863
:102F20004AD0012084F838004FF00008C4F83C80F3
:102F3000212084F83900FEF749FCA6848146E68406
:102F400026E00120BDE8F883E08C401EE084A06804
:102F50004B46B0F5805F4FF000024FF080012046F5
:102F6000009703D001F0D5FDE8B90DE001F0D1FDE7
:102F7000C8B928882168C0F308004860206908B1F2
:102F80006D1C05E0AD1C03E0216815F8010B4860DD
:102F9000E08C0028D8D14B460022402120460097E3
:102FA00001F0B7FD08B10320CCE7202084F83900F8
:102FB00084F838800020C5E70220C3E7704700008E
:102FC00001A001F039FEFBE76572720070B50D4C8F
:102FD0000025C4F894520C48016821F44071016046
:102FE000016841F480710160C4F89052022004F538
:102FF000247402F009FB01206060022002F004FB4F
:10300000656070BD0000424200100240034801218B
:10301000C0F89412C0F890127047000000004242BD
:1030200070B50D4C0025C4F894520C48016821F489
:1030300040710160016841F4807101600126C4F8AB
:103040009062022004F5247402F0DEFA6660022029
:1030500002F0DAFA656070BD0000424200100240E2
:103060002DE9F047814616480024016821F440719B
:10307000016001680160134E254627464FF00108A4
:10308000C6F89472022002F0BFFAC6F89482600675
:10309000040ED6F8100208B1641CE4B2012002F05C
:1030A000B3FA6D1CEDB2082DEAD3B9F1000F04D0CC
:1030B000FFF78CFF2046BDE8F087FFF7B1FFF9E787
:1030C00000100240000042422DE9F041064614483B
:1030D000016821F440710160016841F48071016070
:1030E000104C0027C4F894723D464FF00108F009D7
:1030F000C4F890027006060E022002F085FAC4F8A9
:103100009482022002F080FAC4F89472022002F045
:103110007BFA6D1CEDB2082DE9D3BDE8F08100000B
:10312000001002400000424270B50D48016821F4D1
:1031300040710160016841F480710160094C012017
:10314000C4F89002C4F89402042004F5247402F038
:103150005BFA00252560042002F056FA656070BD18
:1031600000100240000042420E4810B5016821F4F0
:1031700040710160016841F4807101600A4C0020D7
:10318000C4F89402C4F89002042004F5247402F0F8
:103190003BFA012060602060BDE81040042002F08E
:1031A00033BA0000001002400000424270B51248DD
:1031B0000024016821F440710160016801600F4D35
:1031C0000126C5F89062304602F01EFAC5F89462F6
:1031D000012002F019FA07E0641CE4B2FA2C03D9CA
:1031E000FFF7C2FF012070BDD5F810020028F3D10F
:1031F000C5F8940270BD0000001002400000424279
:1032000008B507A04FF47A7300680090032269465E
:103210000448FFF776FE0A2002F0E8F908BD000036
:10322000FFAA5200E80400209FED130A002180ED60
:10323000040A9FED120A80ED050AB6EE000A80ED41
:10324000060A9FED0F0A80ED070A9FED0E0A00BFE8
:1032500000EB8102491CC9B282ED0E0A0429F7D3A2
:10326000F7EE000AC0ED120A80ED130A80ED140A91
:10327000C0ED150A704700006F12833AA69B443BCD
:103280000AD7A33B0000000070B52948B0F902003E
:10329000FDF773F99FED271B53EC112BFCF7E5FFAE
:1032A000FDF789F9254C00B241F62C216085884252
:1032B00000DA6185B4F92A1041F6DC60814200DD54
:1032C000608520880546A0F5E0508438002803DC9E
:1032D00041F6844028444042C0F51670FDF74DF990
:1032E0009FED171B53EC112BFDF766F89FED161B96
:1032F00053EC112BFDF7D2F8FDF7A8F9C4F8100133
:10330000134890ED0A1AB4F92A0000EE100A114889
:10331000F8EEC00A00EE105AB8EE400A00F088FE3F
:10332000BDEEC00A10EE100AA4F87C0170BD0000CA
:103330003A060020000000000084BC40500C002031
:103340007B14AE47E17A94BF0000000000C08240C9
:10335000D80000205C0D00202DE9F0412A4941F6FB
:1033600084402DED028B0024488501F5C07140F2A8
:10337000A2309FED268ADFED268A4FF47A754885C4
:10338000A1F5F0665FEA850704EB440006EBC01088
:10339000B0EE481AF0EE680AB7EE080A2B463A4635
:1033A00003212C3000F0B6FE641C042CECDB2C4610
:1033B0002B4641F288359FED171ADFED170A9FED76
:1033C000170A2A460321164800F0A4FE0E48B0EE64
:1033D000481AF0EE480A9FED130A4FF4FA7322469A
:1033E00003212C3000F096FEB0EE481AF0EE480AA9
:1033F000B0EE480ABDEC028B23462A46BDE8F041F8
:103400000321094800F086BE500C00200000000097
:10341000CDCCCC3D1F85EB3ECDCCCCBD9A99A9C07F
:103420005C0D00203333A3C1DC0E00201B4A10B515
:10343000911E881E00F039F9184A243A911E881E00
:1034400000F01AF91548343830F9301FB0F912205D
:10345000891A00EE101AF8EEC00A9FED110A80EEEC
:10346000801A00ED031AB0F90210B0F91420891A7D
:1034700000EE901AF8EEE00A80EE801A00ED021AD3
:10348000B0F90410B0F91620891A00EE901AF8EE7F
:10349000E00A80EE801A00ED011A10BD0C01002038
:1034A000333383412DE9F05FDFF85C80142400277B
:1034B0003E463D4608F1340B08F1320A08F1300966
:1034C00010E05A465146484600F0EFF8B8F930107F
:1034D000B8F934000F44B8F9321005440E446420A2
:1034E00002F084F8641EECD2142197FBF1F24046FE
:1034F00020F8422F96FBF1F295FBF1F14280A8F8FB
:103500004610BDE8F09F0000D800002010B5FFF77E
:103510007DFD80216B2000F06EF9642002F066F8DA
:1035200000216B2000F067F9032000F030F9002043
:1035300000F028F9322000F047F90021382000F08F
:103540005AF900216A2000F056F90021232000F0EA
:1035500052F98021372000F04EF9752000F0BEF8B6
:10356000682801D0012010BD01216B2000F043F933
:1035700000216C2000F03FF9322000F025F90020F6
:1035800010BD000030B585B00024142212496846F1
:10359000FCF759FE6420FEF71BF8752000F022F8B6
:1035A0000E494FEA0D05087005EB4400417815F807
:1035B000140000F03BF80120FEF70AF8641CE4B2A6
:1035C0000A2CF1D30648FFF72FFE05485838FFF7BD
:1035D0002BFE05B0002030BDD057000801000020B0
:1035E00014020020F8B50E4C0021C4F898120D4DBD
:1035F00040F0800037262871EA1C0123511C0A483C
:1036000004F526740096FEF70BFDEA1C0123511CFD
:1036100005480096FEF704FD01202060E878F8BD1B
:103620000080424201000020E0020020F8B50F4C6B
:103630000F460021C4F898120D4D00F07F00372688
:10364000A8706A1C0123511C0A4804F526740096D0
:10365000FEF7E6FCAF706A1C0123511C054800967A
:10366000FEF7DEFC012020600020F8BD0080424211
:1036700001000020E00200207CB514460D460646FD
:103680006B4606223B21682000F046F800280BD14B
:10369000BDF8001049BA3180BDF8021049BA29803E
:1036A000BDF8041049BA21807CBD7CB514460D4696
:1036B00006466B4606224321682000F02DF80028BC
:1036C0000BD1BDF8001049BA3180BDF8021049BADB
:1036D0002980BDF8041049BA21807CBD10B504468C
:1036E000FFF722FDD020FFF7EFFCFFF75FFD20463C
:1036F000FFF7EAFCFFF75AFDFFF716FDD120FFF7B1
:10370000E3FCFFF753FD0020FFF7AAFC0446FFF798
:103710002BFD204610BD00002DE9F0411D4614464A
:103720000F460646FFF700FD7006000EFFF7CCFCC3
:10373000FFF73CFD20B1FFF717FD0120BDE8F08148
:103740003846FFF7C1FCFFF731FDFFF7EDFC012024
:1037500000EB4600C0B2FFF7B7FCFFF727FD09E01A
:10376000012C0DD05FF00100FFF77AFC641E05F814
:10377000010BE4B2002CF3D1FFF7F6FC0020DDE7EB
:103780000020F1E7C006010E1C2000F034B8C0068E
:10379000010E1B2000F02FB8BC2801D3012110E03E
:1037A000622801D302210CE02A2801D3032108E07A
:1037B000142801D3042104E00A2801D3052100E0E4
:1037C00006211A2000F017B810B504464FF47A709D
:1037D000844201D9044602E0042C00D20424B0FB48
:1037E000F4F0401EC1B2192000F005F86008BDE8F1
:1037F0001040FFF7D1BF70B50C460546FFF794FCAB
:10380000D020FFF761FCFFF7D1FC50B92846FFF745
:103810005BFCFFF7CBFC2046FFF756FCFFF7C6FC2E
:1038200018B1FFF7A1FC012070BDFFF79DFC00203F
:1038300070BD0000104810B50E49016005214160BF
:1038400000214FF400328160C0E90312520142614D
:103850000176012242768176C17601774277FDF7C3
:103860001BFC002805D0BDE810404B2103A001F04F
:10387000E2B910BD006400409C0200202E2E2F53A0
:1038800072632F63616E2E6300000000114808B55B
:10389000016841F480010160016801F48001009138
:1038A000016841F4001101600068002200F400107A
:1038B000009011460C20FEF765F80C20FEF757F833
:1038C000002211463A20FEF75DF8BDE808403A2094
:1038D000FEF74DB8303802402DE9F043464887B036
:1038E0000025016841F040010160016801F04001DC
:1038F0000591016841F002010160016801F00201D7
:103900000591016841F010010160016801F01001AA
:103910000591016841F008010160016801F00801AA
:103920000591016841F080010160016801F08001AA
:103930000591016841F020010160016801F020015A
:103940000591016841F00101016000682B4F00F012
:1039500001004FF400540590002221463846FDF73F
:103960002FFFDFF89C900122B0214846FDF728FF89
:10397000DFF89080002240214046FDF721FF012220
:10398000960331464046FDF71BFF00940124CDE924
:103990000145694638460395FDF72CFE3020CDE9F8
:1039A00000040320CDE9024069464846FDF722FEA7
:1039B00040208DE83100694640460395FDF71AFE28
:1039C000A002CDE90005694602940F48FDF712FEFA
:1039D000CDE9006469464046CDE90245FDF70AFE9F
:1039E0008020CDE9000469464846CDE90245FDF74F
:1039F00001FE07B0BDE8F0833038024000180240F5
:103A00000010024000140240000C0240114810B5A2
:103A10000F4901604FF48271416000218160C160F3
:103A20004FF400720161C0E905123022C0E907219C
:103A3000416281620A21C162FEF78CFA002805D03A
:103A4000BDE81040452104A001F0F5B810BD00000C
:103A500000500140E00200202E2E2F5372632F737E
:103A600070692E630000000010B524488CB0224914
:103A7000016059210024C0E9011440F6C311C0E9D6
:103A80000314FEF708FC18B1B5211DA001F0D3F80E
:103A90004FF48050079007A91848FEF75DFC18B155
:103AA000BB2117A001F0C7F81448FEF728FE18B193
:103AB000C02113A001F0BFF8602000904FF47A708D
:103AC000CDE90104002269460C480494FEF7AFFDDD
:103AD00018B1C9210AA001F0AEF8042269460748CE
:103AE000FEF7A5FD18B1CE2105A001F0A4F803480A
:103AF000FEF760FD0CB010BD00180040EC03002084
:103B00002E2E2F5372632F74696D2E6300000000F8
:103B100010B525488EB023490160B3210024C0E9C7
:103B200001144FF47A71C0E90314FEF7B4FB18B125
:103B300042211EA001F07FF84FF48050079007A9A2
:103B40001948FEF709FC18B1482118A001F073F8D4
:103B50001548FEF7D4FD18B14D2114A001F06BF803
:103B60000B940BA910480C94FEF76DFB18B154216F
:103B70000EA001F060F8602000904FF4FA70CDE9DB
:103B800001040022694608480494FEF750FD18B16C
:103B90005D2106A001F04FF80348FEF70BFD0EB0C3
:103BA00010BD000000040040380300202E2E2F53CB
:103BB00072632F74696D2E630000000010B52548F4
:103BC0008EB02349016059210024C0E9011440F25C
:103BD000CF71C0E90314FEF75EFB18B171211EA07E
:103BE00001F029F84FF48050079007A91948FEF713
:103BF000B3FB18B1772118A001F01DF81548FEF7A6
:103C00007EFD18B17C2114A001F015F80B940BA9CE
:103C100010480C94FEF717FB18B183210EA001F099
:103C20000AF8602000904FF4FA70CDE901040022F8
:103C3000694608480494FEF7FAFC18B18C2106A0E6
:103C400000F0F9FF0348FEF7B5FC0EB010BD000010
:103C500000080040740300202E2E2F5372632F742F
:103C6000696D2E63000000001CB510480E49002449
:103C700001605921C0E9011440F2E731C160FEF74B
:103C80000AFB18B19D210AA000F0D5FF00946946F7
:103C900006480194FEF7D7FA002803D0A42104A017
:103CA00000F0C9FF1CBD000000100040B003002060
:103CB0002E2E2F5372632F74696D2E630000000047
:103CC0000D4810B50B4901604FF4E131416000210E
:103CD00081600C22C160C0E904128161C161FEF7FC
:103CE00029FE002805D0BDE810404D2103A000F0BA
:103CF000A2BF10BD004C0040280400202E2E2F53E0
:103D000072632F75736172742E6300000D4810B5D5
:103D10000B4901600C494160002181600C22C160A7
:103D2000C0E9041281610A46C161FDF7D9FD00288E
:103D300005D0BDE81040602104A000F07CBF10BD9C
:103D40000010014068040020A08601002E2E2F5391
:103D500072632F75736172742E6300000E4810B584
:103D60000C4901604FF4E1314160002181600C2277
:103D7000C160C0E9041281610A46C161FDF7B0FD6E
:103D8000002805D0BDE81040732104A000F053BF07
:103D900010BD000000440040A80400202E2E2F5328
:103DA00072632F75736172742E6300000D4810B535
:103DB0000B4901604FF4E1314160002181600C2228
:103DC000C160C0E904128161C161FEF7B3FD002842
:103DD00005D0BDE81040862103A000F02CBF10BD27
:103DE00000480040E80400202E2E2F5372632F75E8
:103DF000736172742E6300000E4810B50C490160A7
:103E00004FF4E1314160002181600C22C160C0E9C2
:103E1000041281610A46C161FDF762FD002805D0E8
:103E2000BDE81040992104A000F005BF10BD0000BE
:103E300000140140280500202E2E2F5372632F7589
:103E4000736172742E630000FEE770470907090E64
:103E5000002806DA00F00F0000F1E02080F8141DC1
:103E6000704700F1E02080F80014704700B530EE94
:103E7000C01A80ED090AC0ED060A80ED0C1AD0EDDB
:103E8000151A01469FED692A30EEC00AF5EEC01AF8
:103E9000B1EE400AF1EE10FA0ED0B5EEC01AF1EE16
:103EA00010FA02DDF0EE410A01E0F0EE400AF4EE15
:103EB000E10AF1EE10FA12DCD1ED160AF5EEC00AB5
:103EC000F1EE10FA0ED0B5EEC01AF1EE10FA01DDE7
:103ED000B0EE410AB4EEE00AF1EE10FA02D2B0EE12
:103EE000420A00BDC86D01F13802032802D004283F
:103EF00038D07AE091ED000A104620EE010A81EDFB
:103F00000D0A91ED0E0AD1ED010A00EE810A81ED54
:103F10000E0A91ED0B0AD1ED030A31EE400A20EEB4
:103F2000200A81ED0F0A91ED190AB8EE400A01F05E
:103F300042FB91ED0D0AD1ED0E0A01F1400030EE89
:103F4000200AD1ED0F0A30EE200A81ED100A91ED22
:103F5000180AB8EE400A01F02EFB91ED100A81ED2F
:103F6000110A42E091ED0B0AD1ED001A104671EEF4
:103F7000400A60EEA10AC1ED0D0AD1ED010A60EE22
:103F8000810AC1ED0E0AF0EE000A00EE601A91ED12
:103F90000A0AD1ED030A31EE000A20EE200A81ED73
:103FA0000F0A91ED190AB8EE400A01F004FB91EDF9
:103FB0000D0AD1ED0E0A01F14C0030EE200AD1EDD0
:103FC0000F0A30EE200A81ED120AD1ED140A30EE0C
:103FD000800A81ED130A91ED180AB8EE400A01F04B
:103FE000EAFA91ED130A81ED140A91ED0B0A81EDC5
:103FF0000A0A91ED0C0A81ED0B0A91ED080A81ED98
:10400000070A91ED090A81ED080A91ED050A81ED93
:10401000040A91ED060A81ED050AC86D032802D055
:1040200091ED130A00BD91ED100A00BD00000000E3
:1040300000B580ED090A30EEC00AC0ED060A01465F
:1040400080ED0C0AC06D03283FD1D1ED000A2F4A44
:1040500060EE800AC1ED0D0AD1ED010AF0EEE01A22
:1040600011EE900A904206DBD1ED0E1A40EE801A56
:10407000C1ED0E1A03E09FED260A81ED0E0A91EDC7
:10408000030A01F1380020EE410A81ED0F0A91ED9B
:10409000190AB8EE400A01F08EFA91ED0D0AD1ED41
:1040A0000E0A01F1400030EE200AD1ED0F0A30EE89
:1040B000200A81ED100A91ED180AB8EE400A01F0CD
:1040C0007AFA91ED100A81ED110A91ED0B0A81ED5A
:1040D0000A0A91ED0C0A81ED0B0A91ED080A81EDB7
:1040E000070A91ED090A81ED080A91ED050A81EDB3
:1040F000040A91ED060A81ED050AC86D032802D075
:1041000091ED130A00BD91ED100A00BD6F12833AC4
:104110000000000030B4034C8466034CC46630BC1D
:1041200001F03ABB99570008AB570008704738B503
:104130000B46009204460022802100F008F8002877
:1041400004D0606D40F020006065032038BD2DE98B
:10415000F0411D4617460E460446DDF8188035E04E
:10416000681C33D02DB1FDF731FBA0EB0800A8424D
:104170002CD32068416821F0E00141606068B0F50F
:10418000827F0BD1A068B0F5004F02D0B0F5806FF0
:1041900004D12068016821F040010160A06AB0F5F7
:1041A000005F0AD1206801684DF6FF72114001607E
:1041B0002068016841F400510160012084F8510039
:1041C000002084F850000320BDE8F081206880685A
:1041D00036EA000004D00020B842C1D10020F3E745
:1041E0000120F9E7704710B5FDF7F6FABDE8104079
:1041F000FEF723B830B5274893B00025016841F099
:1042000080510160006800F08050119022480168E0
:1042100041F4404101600068022400F440401190E4
:1042200001200090000401908001CDE906400620A5
:104230000890B420CDE9090404200B906846FDF7EE
:10424000FBFC00B1FEE7FDF7CFFB00B1FEE70CA9D8
:104250000F2081E831004FF4A0500F904FF48050B0
:10426000109005210CA8FDF7F7FB00B1FEE7FDF764
:104270008BFC4FF47A71B0FBF1F0FDF7CAFF04201C
:10428000FDF7BAFF00221146501EFDF77BFB13B06D
:1042900030BD000040380240007000401048016806
:1042A00041F4700101600F48016841F001010160B3
:1042B0000C4A00210832116002680B4B1A40026060
:1042C000031D0A4A1A60026822F48022026005482F
:1042D0000C300160024958068039086070470000C0
:1042E00088ED00E000380240FFFFF6FE10300024A9
:1042F0000148FEF7ABB80000B0030020F0B502683B
:10430000234B244D244E254F254C4FF0804C984292
:1043100009D0604507D0A84205D0B04203D0B842CA
:1043200001D0A04204D122F0700E4A6842EA0E0287
:1043300098421BD0604519D0A84217D0B04215D082
:10434000B84213D0A04211D0164DA8420ED0164D3F
:10435000A8420BD0154DA84208D0154DA84205D053
:10436000144DA84202D0144DA84203D122F4407546
:10437000CA682A4302608A68C2620A6882629842F6
:1043800001D0A04201D10969016301214161F0BD61
:10439000000001400004004000080040000C004004
:1043A0000004014000400140004401400048014039
:1043B00000180040001C00400020004010B5846838
:1043C00042EA032224F47F440A432243826010BD60
:1043D000826822F070020A4342F007018160704750
:1043E00030B5026A22F001020262026A43688469FF
:1043F0000D6824F07304254322F002048A682243E6
:104400000B4CA04202D00B4CA0420BD122F008046E
:10441000CA6823F4407322434C6922F004021C430F
:104420008B6923434360856149684163026230BD03
:10443000000001400004014030B5026A22F0100281
:104440000262026A436884690D6824F4E64444EA1F
:1044500005248D6822F0200242EA05120D4DA84283
:1044600002D00D4DA8420ED1CD6822F0800242EA62
:1044700005124D6923F4406343EA85038D6922F0F8
:10448000400243EA850343608461496881630262B4
:1044900030BD0000000001400004014030B5026A58
:1044A00022F480720262036A4268C46923F40073D2
:1044B00024F073050C682C438D6843EA05230D4DE9
:1044C000A84202D00C4DA8420ED1CD6823F400635F
:1044D00043EA05234D6922F4405242EA05128D69F0
:1044E00023F4806342EA05124260C4614968C163F3
:1044F000036230BD000001400004014030B5026A93
:1045000022F480520262046A4268C3690D6823F48F
:10451000E64343EA05238D6824F4005444EA053455
:10452000084DA84202D0084DA84204D14D6922F49A
:10453000804242EA85124260C361496801640462B4
:1045400030BD0000000001400004014010B5036AC6
:10455000046A24F001040462846924F0F00444EA4B
:10456000021423F00A020A438461026210BD10B5EE
:10457000036A23F0100303628369046A23F470431F
:1045800043EA023224F0A00343EA0111826101628E
:1045900010BD00001D480188C1F30A0200F112019C
:1045A000A2F580620A804278D308827843EA4213F7
:1045B000C3F30A03A3F580634B80C378920942EAF0
:1045C0008303027943EA8223C3F30A03A3F58063DA
:1045D0008B805308427943EAC213C3F30A03A3F55D
:1045E0008063CB8093090B72C2F301124A72C288B6
:1045F0004A8102898A814289CA81027B0A74427B8C
:104600004A74C2894A82008A88827047280600203C
:1046100070B50E48FEF706F90D4C0025256002E046
:104620002068401C20600948FEF7F6F82028F7D1E2
:104630002560084D02E02068401C206001222946C8
:104640000248FEF7EFFA0028F5D170BD28040020DB
:10465000300000207E0F002010B5806B0021C18546
:10466000C184FEF7D8F810BD70B5846B206840692E
:1046700094F83910C0F3C0100025212904D118B1D5
:10468000E584204600F046F82068406994F83A1026
:10469000C0F38010222904D118B1E585204600F02E
:1046A0002BF8E06B40F01000E0632046FEF7B3F813
:1046B00070BD10B50146806B09680968C90513D43F
:1046C0000021C1850168CA6822F48072CA6001684D
:1046D0004A6922F001024A6101684A6922F04002F7
:1046E0004A61202180F83A10FEF7C0FA10BD10B5DB
:1046F000806BFEF705FC10BD0168CA6822F4907259
:10470000CA6001684A6922F001024A61202180F8EA
:104710003A1070470168CA6822F0C002CA602021BE
:1047200080F83910704710B590F83A10222901D05E
:10473000022010BD8168B1F5805F11D001690029A8
:1047400001681FD0496801F07F03816A4A1C8262B8
:104750000B70C18D491E0904090CC18518D026E0D3
:104760000269816A002A0268526805D0D2B20A80C2
:10477000816A491C8162ECE7C2F308020A80816AFF
:10478000891CF7E74A68816A4B1C83620A70E0E77C
:104790000168CA6822F49072CA6001684A6922F00E
:1047A00001024A61202180F83A10FEF75FFA0020EA
:1047B00010BD000070B500240D460646182900D92A
:1047C0001825242000F0F6FF252000F0F3FF2846EE
:1047D000FBF7E4FE9FED091B53EC112BFBF7ECFDFF
:1047E000FBF708FFC0B200F0E5FF04E0305D00F029
:1047F000E1FF641C64B2AC42F8DB70BD0000000055
:104800000000D03F2DE9F04104460068016921F421
:104810004052E168114301612168C86849F20C62A5
:1048200090432369A268E5691A4363692B431A43DD
:104830000243CA602168486920F44072A0691043AD
:104840004861E1696425B1F5004F9748974A2168AE
:104850004FF032083FD0914201D081427CD1FDF728
:10486000A9F900EBC00101EB001061688900B0FB01
:10487000F1F6FDF79FF900EBC00101EB0010616854
:104880008900B0FBF1F0B0FBF5F06FF01801484380
:1048900006EB800108EB0110B0FBF5F000F0F0062C
:1048A000FDF788F900EBC00101EB00106168890099
:1048B000B0FBF1F0B0FBF5F006EB0016FDF77AF96E
:1048C00000EBC00101EB001061688900B0FBF1F75B
:1048D000FDF770F9D2E0914201D081423DD1FDF760
:1048E00069F900EBC00101EB001061684900B0FB01
:1048F000F1F0B0FBF5F00601FDF75CF900EBC0014B
:1049000001EB001061684900B0FBF1F7FDF752F9C7
:1049100000EBC00101EB001061684900B0FBF1F051
:10492000B0FBF5F06FF01801484307EB800108EB8E
:10493000C100B0FBF5F000F0F80006EB4006FDF713
:1049400039F900EBC00101EB001061684900B0FBD0
:10495000F1F7FDF72FF93CE055E0FDF71BF900EB0F
:10496000C00101EB001061684900B0FBF1F0B0FB41
:10497000F5F00601FDF70EF900EBC00101EB0010A8
:1049800061684900B0FBF1F7FDF704F900EBC001E5
:1049900001EB001061684900B0FBF1F0B0FBF5F0ED
:1049A0006FF01801484307EB800108EBC100B0FB32
:1049B000F5F000F0F80006EB4006FDF7EBF800EB31
:1049C000C00101EB001061684900B0FBF1F7FDF791
:1049D000E1F800EBC00101EB001061684900B0FB99
:1049E000F1F0B0FBF5F06FF01801484307EB8001E0
:1049F00008EBC100B0FBF5F000F00700216830447F
:104A00008860BDE8F081FDF7C5F800EBC00101EB5F
:104A1000001061688900B0FBF1F6FDF7BBF800EB10
:104A2000C00101EB001061688900B0FBF1F0B0FB40
:104A3000F5F06FF01801484306EB800108EB011018
:104A4000B0FBF5F000F0F006FDF7A4F800EBC001B4
:104A500001EB001061688900B0FBF1F0B0FBF5F0EC
:104A600006EB0016FDF796F800EBC00101EB001015
:104A700061688900B0FBF1F7FDF78CF800EBC0012D
:104A800001EB001061688900B0FBF1F0B0FBF5F0BC
:104A90006FF01801484307EB800108EB0110B0FBF1
:104AA000F5F000F00F00A9E70014014000100140EC
:104AB00090F83910212901D0022070478168B1F5A2
:104AC000805F016A0BD04A1C02620268097851605B
:104AD000C18C491E0904090CC1840ED017E0098855
:104AE0000268C1F30801516001690029016A02D01E
:104AF000491C0162ECE7891CFBE70168CA6822F0E7
:104B00008002CA600068C16841F04001C1600020B5
:104B100070472DE9F041984617460E460446069D1B
:104B20001DE0681C1BD02DB1FCF750FEA0EB080067
:104B3000A84214D92068C16821F4D071C1602068EE
:104B4000416921F001014161202084F8390084F895
:104B50003A00002084F838000320BDE8F081206886
:104B6000006836EA000004D00020B842D9D0002006
:104B7000F3E70120F9E7000070B50E48FDF752FE9B
:104B80000D4C0025256002E02068401C206009488B
:104B9000FDF742FE2028F7D1256002E02068401C86
:104BA0002060012205490348FEF73CF80028F5D1B2
:104BB00070BD0000A8040020300000205E0F00201F
:104BC00008B50E48FDF72EFE0D490C4A002008607E
:104BD00010680368DB0610D5036840680090506BCE
:104BE000026852680A60006840680860BDE80840D2
:104BF000212204490148FDF7C9BF08BDE80400208F
:104C0000300000208601002010B50848FDF70AFE9C
:104C10000648FDF701FE2028FAD101220449034885
:104C2000FEF700F80028F8D110BD0000280500208C
:104C300034000020FEE7FEE7014A024900F0AABC6A
:104C400055560008D000002003B401984100009898
:104C500050EAC12018BF04204A0D18BF40F00100DF
:104C600040F2FF72B2EB515F08BF40F00200012832
:104C700008BF052002B0704710B52F499FED2C1BCF
:104C80002DED020B84B0059820F000408842DCBF77
:104C900000209DED040B32DD2849884209D104989B
:104CA00040B94FF0010000F06FFC00F03DFC06B091
:104CB00010BD05DB9DED040B00F02AFC06B010BD15
:104CC00068469DED040B00F03BF810F0030011D096
:104CD000012818D09DED021B9DED000B02281AD073
:104CE00000F04AFA51EC100B81F0004106B041ECA3
:104CF000100B10BD9DED021B9DED000B012000F07F
:104D00006FFB06B010BD9DED021B9DED000B00F08A
:104D100033FA06B010BD012000F062FB51EC100B1D
:104D200081F0004106B041EC100B10BD0000000006
:104D30000000000000000000FB21E93F0000F07FC0
:104D40002DE9F14F04462DED020B2DED088B8AB0B5
:104D50009FEDE70B80ED020B139EE74826F0004520
:104D600085420ADC9DED120B002084ED000B0AB099
:104D7000BDEC088B03B0BDE8F08FE0489FEDE0ABE1
:104D80009FEDE1BBA84247DDE14F9FEDE39B9FED27
:104D9000E48B9DED120B53EC1A2B51EC100B002EF3
:104DA0001CDDFBF703FB41EC100BBD4208D053ECBC
:104DB0001B2B51EC100BFBF7F9FAC4E900010BE0D7
:104DC00053EC192B51EC100BFBF7F0FA53EC182BAA
:104DD000FBF7ECFAC4E900010120C8E7FBF745FA4C
:104DE00041EC100BBD4208D053EC1B2B51EC100BC7
:104DF000FBF73BFAC4E900010BE053EC192B51EC33
:104E0000100BFBF732FA53EC182BFBF72EFAC4E920
:104E100000014FF0FF30AAE7C348A84279DB9DEDBF
:104E2000120B51EC100B00F009FC41EC180B9FED3C
:104E3000C00B53EC102BFBF7BFFA9FEDBF1B53ECDD
:104E4000112BFBF712FAFBF7B6FB0746FBF795FBB6
:104E500041EC190B53EC1A2BFBF7AEFA53EC182B61
:104E6000FBF7A7FA41EC180B53EC1B2B51EC190B79
:104E7000FBF7A2FADFF8C8A241EC100B4FEA155875
:104E80000125FA4453EC102B51EC180BFBF78EFA6A
:104E9000032DC4E900013DD0C1F30A5005EB4511D3
:104EA000A8EB00001139814234DA0AEB051BB0EEA1
:104EB00048AA9BED000BF0EE68AA53EC102B51ECC6
:104EC000190BFBF779FA41EC1B0B51EC1A0B53EC65
:104ED0001B2BFBF76BFA41EC180B51EC1A0B53EC44
:104EE000182BFBF763FA53EC1B2BFBF75FFA9BEDD8
:104EF000020B41EC1A0B53EC102B51EC190BFBF786
:104F00005BFA53EC1A2BFBF751FA41EC100B6D1CBA
:104F1000B8E70EE0002EA8BF3846BFF628AF94EDE4
:104F2000000B51EC100B81F00041C4E90001784204
:104F30001DE7C6F3130040F4801EC6F30A50A0F22A
:104F4000F530471100F01F05C5F12000DDF848B02D
:104F500008900020069007900520EC467949002D26
:104F600007EB0002794408BF51F8221009D051F82C
:104F7000223001EB8201AB404A68089922FA01F124
:104F80001943A1FB0E26A1FB0B131A449A4234BF0E
:104F90000123002303EB06080CEB8003D3E901A6F1
:104FA0000E448E4234BF0121002192448A4411B143
:104FB000924502D903E0924501D2012100E000218F
:104FC000C3E901A641444CF82010011EA0F10100E4
:104FD000C4DC029800F10050850F0298DDE90367F8
:104FE0008000DDF81480FBF7C8FA41EC1A0B30465C
:104FF000FBF7D4FA9FED541B53EC112BFBF7DCF9B4
:1050000041EC1B0B3846FBF7C9FA9FED511B53ECE3
:10501000112BFBF7D1F941EC180B4046FBF7BEFA18
:105020009FED4D1B53EC112BFBF7C6F941EC190B0F
:1050300051EC180B53EC192BFBF717F953EC1B2B06
:10504000FBF713F953EC1A2BFBF70FF9CDE9080125
:10505000002008909DED080B53EC1A2B51EC100B1F
:10506000FBF7A4F953EC1B2BFBF7A0F953EC182B1F
:10507000FBF79CF953EC192BFBF79BF99FED381BC1
:1050800053EC112BFBF798F99FED370B41EC180B04
:1050900053EC102B9DED080B51EC100BFBF78CF92A
:1050A00053EC182BFBF7E1F89FED310B41EC180B9B
:1050B00053EC102B9DED080B51EC100BFBF77CF91A
:1050C00053EC182BFBF7D1F841EC100B139810F0B0
:1050D000004F06D06D4251EC100B81F0004141ECC5
:1050E000100B284684ED000B41E600000000000094
:1050F0000000000000000000FB21E93F7CD90240D5
:1051000000004054FB21F93F3163621A61B4D03D85
:10511000FB21F93F000000000000601A61B4D03D9F
:105120007370032E8A19A33BFB2139410000000054
:1051300083C8C96D305FE43F000000000000E03F1D
:10514000B209000000090000000000000000103E4D
:10515000000000000000103C000000000000103AB9
:10516000182D4454FB21F93D3326A611460B113C62
:1051700000000054FB21F93D10B52DED040B2DED81
:10518000088B82B0B0EE419AF0EE619A0B9820F055
:1051900000449FED4BABB4F1795F11DA9DED0A0B42
:1051A00051EC100BFBF707FA002801BFB0EE4A0ADA
:1051B000F0EE6A0A02B0BDEC088B04BF04B010BD6B
:1051C0009DED0A0B53EC102B51EC100BFBF7F4F890
:1051D00041EC180B3C480621B0EE480AF0EE680A94
:1051E000784400F081F853EC182B51EC100BFBF7CE
:1051F000E3F89DED0A0B41EC1B0B53EC192B51EC22
:10520000100BFBF7D9F841EC190B53EC1B2B51ECAD
:10521000180BFBF7D1F853EC192BFBF7C7F89FEDF0
:105220002C0B41EC190B53EC102B51EC180BFBF72A
:10523000C3F841EC100B2848844210DA53EC192BC8
:1052400051EC100BFBF7B2F853EC1A2BFBF7B1F84B
:1052500041EC100B02B0BDEC088B04B010BD1F4830
:10526000A042BCBF9FED1E1B8DED001B06DBA4F50D
:1052700000100190002000909DED001B51EC100BE0
:1052800053EC112BFBF792F89DED000B41EC180B42
:1052900053EC102B51EC1A0BFBF788F841EC1A0B6E
:1052A00053EC192B51EC180BFBF780F853EC1A2B2D
:1052B000FBF77FF841EC100BCCE70000000000008A
:1052C000000000000000F03F240600000000000085
:1052D000000000000000E03F3333D33F0000E93F0F
:1052E000000000000000D23F70B504462DED028B97
:1052F0004D1E00EBC500B0EE408AF0EE608A90EDE6
:10530000000B35F0060017D053EC182B51EC100BA6
:10531000FBF752F841EC100B6D1E04EBC50090ED4D
:10532000001B51EC100B53EC112BFAF79EFF41ECD4
:10533000100B35F00600E7D1022D36D0042D1CD01D
:10534000062D1CBFBDEC028B70BD53EC182B51EC2D
:10535000100BFBF731F894ED0A1B53EC112BFAF705
:1053600084FF53EC182BFBF727F894ED081B53EC44
:10537000112BFAF77AFF41EC100B53EC182B51EC80
:10538000100BFBF719F894ED061B53EC112BFAF7F1
:105390006CFF53EC182BFBF70FF894ED040B53EC58
:1053A000102BFAF762FF41EC100B53EC182B51EC69
:1053B000100BFBF701F894ED021B53EC112BFAF7DD
:1053C00054FF53EC182BFAF7F7FF94ED001B53EC46
:1053D000112BFAF74AFFBDEC028B41EC100B70BDAC
:1053E00031B504462DED040B2DED0A8BB0EE41BA1C
:1053F000F0EE61BA0B989DED0A0B20F00040B0F181
:10540000795F0DDA51EC100BFFF71EFC042808BF82
:1054100000F09AF89DED0A0BBDEC0A8B05B030BD8B
:1054200053EC102B51EC100BFAF7C6FF41EC180BA4
:105430009DED0A0B53EC182B51EC100BFAF7BCFF47
:1054400041EC190B2C48B0EE480AF0EE680A052131
:105450007844FFF749FF9FED2ACBB0EE40AAF0EE6B
:1054600060AA9CB353EC1C2B51EC190BFAF7A4FF68
:1054700041EC1C0B53EC1A2B51EC190BFAF79CFF67
:105480009FED210B41EC190B53EC102B51EC1B0B36
:10549000FAF792FF53EC192BFAF788FF53EC182B0D
:1054A000FAF78AFF53EC1B2BFAF780FF53EC1C2B07
:1054B000FAF77CFF9DED0A1B53EC112BFAF779FFED
:1054C000BDEC0A8B05B041EC100B30BDFFE753EC8F
:1054D0001A2B51EC180BFAF76FFF53EC1C2BFAF751
:1054E000C4FE53EC192BFAF767FF9DED0A1B53EC32
:1054F000112BFAF7BAFEE3E7AC040000000000004D
:10550000495555555555C5BF000000000000E03F06
:1055100010B553EC102B51EC100BFAF7A6FE41EC32
:10552000100B10BD000000009FED050B10B553ECF3
:10553000102B51EC100BFAF7B1FF41EC100B10BD22
:1055400000000000000000009FED050B10B553ECBB
:10555000102B51EC100BFAF72FFF41EC100B10BD84
:10556000000000000000001002E008C8121F08C17F
:10557000002AFAD170477047002001E001C1121FD4
:10558000002AFBD170470000014908607047000005
:10559000D40000202DE9F04116460F4604460025B0
:1055A00003E03946B047641C6D1C20780028F8D110
:1055B0002846BDE8F081D0ED000AF4EEC00AF1EE15
:1055C00010FA01DD80ED000AD0ED000AB1EE400ACC
:1055D000F4EEC00AF1EE10FA01D280ED000A704735
:1055E00001490870704700000000002070B50546B2
:1055F00000244FF47A7603E0304600F005F8641C8E
:10560000AC42F9D370BD000070B54FF0E024002229
:1056100065690949A36909784843A1699942FCD0A1
:1056200002D2A3EB010302E0A5EB010633441A44C6
:105630000B468242F1D370BD0000002082B0CDE95C
:10564000000121F0004001909DED000B02B051ECF3
:10565000100B704704490A685206FCD5024AC1B2D1
:10566000121D116070470000004C00402DED028BB0
:10567000FCF7BAF8FEF7BEFDB420FFF7B1FFFEF766
:105680002BF9FEF703F9FEF7D5F8FEF797FAFEF7C8
:10569000EBFAFEF7E9F9FEF713FBFEF737FBFEF72F
:1056A000ABFBFEF75BFBFEF733FAFEF77FFBFEF783
:1056B000ADF9002202213620FCF764F93620FCF710
:1056C00056F9002204214720FCF75CF94720FCF73B
:1056D0004EF9FDF71BFFFDF7E5FEFDF753FFFDF764
:1056E0008FFD21221E491F48FDF750FA12221E4944
:1056F0001E48FDF74BFA01221D491E48FDF792FA9C
:10570000FBF79AF81C48FCF71BFEFDF725FE1B4C27
:105710000020C4F8B802164919481639DFED198A75
:10572000194E1A4D9FED1A8AC1F8180095ED000A1E
:1057300030EE280A10EE100A85ED000AB04201DDB5
:1057400085ED008A18211348FFF734F86420FBF731
:105750003FFFD4F8B802C043C4F8B802E6E700003F
:1057600086010020E80400202806002068040020AC
:105770007E0F002028040020B00300200080424259
:10578000DC0E0020CDCCCC3DC3F5484018000020F5
:10579000C3F548C06C02002000F15C0C8CE80E00E0
:1057A00080ED031A80EC020A704780ED031A80EC4A
:1057B000020A7047044909680A68D2435206FBD4BA
:1057C000024908607047000028040020044C004093
:1057D0006B806B036C001A021B181C101D026A20E0
:1057E0000000000000061016000610160000000061
:1057F0000000000001020304060708090000000081
:1058000001020304000000004C5555555555A53FB5
:105810007751C1166CC156BF9015CB19A001FA3E45
:10582000AD529C804F7E92BEC4B1B4BD9EEE213E6F
:10583000D43888BEE9FAA8BD00004054FB21F93FE6
:105840003163621A61B4D03D0000601A61B4D03D8A
:105850007370032E8A19A33B0000002E8A19A33B04
:10586000C14920259A837B39000000000000000018
:105870006E83F9A22915444ED15727FCC0DD34F5BB
:10588000999562DB4190433CAB6351FE61C5BBDE41
:105890003A6E24B7E0D24D42EA2E49061C92D10955
:1058A0001CEB1DFE3EA729B1F53582E88444BB2ED2
:1058B00026709CE9417E5FB439D69139F43953831F
:1058C0008B5F849C3B28F9BDFF97F81F0F9805DE7E
:1058D0008B112FEF1F6D0A5ACF7E366DB709CB277C
:1058E000663F464F2DEA5F9EC7BA27757BF1E5EB11
:1058F000F739073DEA92528AB15FFB6B085D8D1F55
:10590000A6F810111111813FD561C119A0012ABF5C
:105910007DFEB157E31DC73EEB9C2B8AE6E55ABEE0
:105920007CD5CF5A3AD9E53D4859000800000020FF
:10593000D800000068550008205A0008D800002050
:10594000B0120000785500080000000000000000C0
:10595000FF00000000000000000000000000000048
:105960000000000000000000000000000000000037
:105970000000000000000000000000000000000027
:105980000000000000000000E8039B02F401900109
:105990004D011E01FA00DE00C800B600A7009A0003
:1059A0008F0085007D0076006F00690064005F0055
:1059B0005B005700530050004D004A00470045006F
:1059C000430041003F003D003B00390038003600F5
:1059D000350033003200310030002F002D002A0046
:1059E0002600240021001F001D001C001A001900C1
:1059F000140011000E000D000B000A000900080041
:105A00000500040003000200010000001000000077
:105A1000000000000024F40000000000000000006E
:04000005080001AD41
:00000001FF
