:020000040800F2
:1000000050100020C10100084F350008F52A0008F3
:100010004D35000895070008554000080000000015
:100020000000000000000000000000004F37000842
:10003000F90A0008000000004D3700085137000899
:10004000DB010008DB010008DB010008DB01000820
:10005000DB010008DB010008DB010008DB01000810
:10006000DB010008DB010008DB010008DB01000800
:10007000DB010008DB010008DB010008DB010008F0
:10008000DB010008DB010008DB010008E1070008D4
:10009000D5070008DB010008DB010008DB010008D0
:1000A000DB010008DB010008DB010008DB010008C0
:1000B000DB010008DB010008DB010008DB010008B0
:1000C000DB010008DB010008DB010008DB010008A0
:1000D000DB010008DB010008FD3F0008DB01000830
:1000E000DB010008DB010008DB010008DB01000880
:1000F000DB010008DB010008DB010008DB01000870
:10010000DB010008DB010008DB010008DB0100085F
:10011000013B0008DB0100085D380008DB01000836
:10012000DB010008DB010008490A0008DB010008C8
:10013000DB010008DB010008DB010008DB0100082F
:10014000DB010008DB010008DB010008DB0100081F
:10015000DB010008DB010008DB0100082940000882
:10016000DB010008DB010008DB010008DB010008FF
:10017000DB010008DB010008DB01000800000000D3
:10018000DB010008DB010008DB010008DB010008DF
:10019000DB010008DB010008DB010008DB010008CF
:1001A0000000000000000000DB010008DFF80CD0B8
:1001B00000F0DEFA00480047514A000850100020C5
:1001C0000648804706480047FEE7FEE7FEE7FEE7F1
:1001D000FEE7FEE7FEE7FEE7FEE7FEE70938000878
:1001E000AD0100082DE9F05F0546002092469B46D0
:1001F00088460646814640241BE02846414647463D
:10020000224600F006FA53465A46C01A914110D3CE
:1002100011461846224600F0EDF92D1A67EB010849
:100220004F4622460120002100F0E4F917EB0009B7
:100230004E41201EA4F10104DFDC484631462A4627
:100240004346BDE8F09F2DE9FE4F804681EA03005A
:10025000C00F0C46009021F0004123F00045B8EBA0
:100260000200A94105D24046214690461C460B4655
:10027000024623F00040104347D0270DC7F30A0081
:10028000C3F30A510290401A019040286BDAC3F37D
:10029000130040F4801B0098924620B10023D2EB5B
:1002A000030A63EB0B0B01985946C0F1400250461C
:1002B00000F0A0F906460D4650465946019A00F056
:1002C000B8F910EB08006141002487EA115284EA72
:1002D000E7731A4340D0009A62B3019A012A4FEAA9
:1002E000075215DC001B61EB02014FF0004202EAED
:1002F0000752CDE90042001C41F5801132462B46E1
:1003000000F0B8F903B0BDE8F08F40462146F9E7A8
:10031000001B61EB0201001C41F5801300185B41DA
:100320002018A2F5001747EB030140EAD570B61973
:100330006D4111E06D084FEA360645EAC0754FEA97
:100340000752001B61EB0201001C41F580114908B6
:100350004FEA30000019514132462B4603B0BDE848
:10036000F04F00F078B90098012240000023D0EB54
:10037000020263EBE073009821464FEAE074B8EBA9
:10038000000061EB0401E9E783F000435BE781F0E3
:10039000004158E72DE9FE4F81EA030404F00044D0
:1003A00021F0004100944FF0000B23F0004350EA8D
:1003B00001045ED052EA03045BD0C3F30A54C1F3D4
:1003C0000A552C44A4F2F3340194A0FB0254C1F367
:1003D000130141F48011C3F3130343F4801301FBB1
:1003E000024400FB034E840A970A44EA815447EA18
:1003F0008357A4FB076802958D0A05FB07854FEA22
:10040000932C04FB0C542705029D4FEA065847EA3B
:100410001637B5EB08056EEB070C870E920E47EA10
:10042000811742EA8312A7FB0201B6EB0B0164EBD2
:1004300000042B0D43EA0C335E1844EB1C50DA46E3
:100440005146E7FB0201C5F313044FEA0B3343EABD
:1004500014534FEA0432019C43EA0603A4F10C044E
:100460000294009CCDE900B400F004F903B0BDE8AB
:10047000F08F00200146F9E72DE9F04D81EA0304F1
:1004800004F0004B21F0004514464FF0000A23F021
:10049000004150EA050220D054EA01021DD0C5F304
:1004A0000A570246C5F31303C1F31300C1F30A56FA
:1004B00040F4801543F48013A7EB0608101BD646C2
:1004C00008F2FD3873EB050002D308F1010801E0E2
:1004D00092185B41B8F1000F03DA00200146BDE835
:1004E000F08D00204FF48011064684460EE0171B65
:1004F00073EB050705D3121B63EB050306434CEAB8
:10050000010C49084FEA300092185B4150EA01079C
:10051000EDD152EA030012D082EA040083EA050119
:10052000084305D0101BAB4106D20122002306E090
:1005300000224FF0004302E06FF0010253101AEB6B
:1005400006004CEB085110EB0A0041EB0B01BDE833
:10055000F04D00F080B80EB540F233410291002119
:10056000CDE900110A460B4600F084F803B000BD47
:10057000C1F30A5210B5C1F3130140F2FF3341F445
:1005800080119A4201DA002010BD40F233439A42B2
:10059000A2F2334203DC524200F03BF810BD90401F
:1005A00010BD00F0004230F000400AD0C10D01F54E
:1005B0006071C0F3160042EA0151C20840071143BE
:1005C000704700200146704730B50B4601460020B9
:1005D0002022012409E021FA02F59D4205D303FA05
:1005E00002F5491B04FA02F52844151EA2F1010286
:1005F000F1DC30BD202A04DB203A00FA02F10020B1
:1006000070479140C2F1200320FA03F31943904050
:100610007047202A04DB203A21FA02F000217047BB
:1006200021FA02F3D040C2F120029140084319465A
:100630007047202A06DBCB17203A41FA02F043EA42
:10064000E07306E041FA02F3D040C2F1200291408B
:1006500008431946704710B5141E73F1000408DAF8
:10066000401C41F1000192185B411A4301D120F076
:10067000010010BD2DE9F04D92469B4611B1B1FA33
:1006800081F202E0B0FA80F220329046FFF7B2FF2A
:1006900004460F4640EA0A0041EA0B0153465A4617
:1006A000084313D0114653EA010019D0C8F14002A3
:1006B0005046FFF7AEFF05460E46504659464246A5
:1006C000FFF798FF084305D0012004E02046394693
:1006D000BDE8F08D0020054346EAE0762C43374321
:1006E0000A986305E40AA0EB08000022FD0A44EA28
:1006F00047540A3002D500200146E9E701051019E8
:100700006941DDE9084500196941BDE8F04DA2E7FE
:10071000C1F30A52C1F3130140F2FF3341F48011D7
:100720009A4202DA00200146704740F233439A426F
:10073000A2F2334202DC5242FFF76BBFFFF75ABF0F
:1007400030B5041E71F1000404DB4FF00044404258
:1007500064EB0101141E73F1000405DB1C464FF02D
:100760000043524263EB0403994208BF904230BDFC
:10077000064C074D06E0E06840F0010394E80700EE
:1007800098471034AC42F6D3FFF714FDFC4C000838
:100790001C4D0008FEE7000000B58BB000200121D1
:1007A000CDE9060103900891049000900E2101907C
:1007B0000290099105906946054800F04BFA022124
:1007C000034800F0CFF9024800F026FD0BB000BD51
:1007D000AC000020014800F041BB0000AC0000204C
:1007E000014800F03BBB0000AC000020F0B50568FC
:1007F000002201230A247E48A5F20125072D2ED2CE
:10080000DFE805F0042E67A0D9E4EE000D886DBA8C
:1008100005804D886DBA45808D886DBA2DB2858072
:100820008979C180416A4E197149466290F808C0C1
:100830008F7FBCF1010F01EB470103D1B1F90A70C1
:10084000F61B46624D81817F491CC9B28177092917
:1008500001D982770372416A91FBF4F10184F0BD02
:100860000D886DBAA0F874514D886DBAA0F8765114
:100870008D886DBA2DB2A0F878518979A0F87A11D7
:10088000D0F898114E195A49C0F8986190F87CC177
:1008900091F89271BCF1010F01EB470104D1B1F95C
:1008A0007E71F61BC0F89861A1F87E5190F8921104
:1008B000491CC9B280F89211092903D980F8922104
:1008C00080F87C31D0F8981191FBF4F1A0F89411E4
:1008D000F0BD0D886DBAA0F8E8524D886DBAA0F849
:1008E000EA528D886DBA2DB2A0F8EC528979A0F841
:1008F000EE12D0F80C134E193D49C0F80C6390F875
:10090000F0C291F80673BCF1010F01EB470104D16D
:10091000B1F9F272F61BC0F80C63A1F8F25290F82C
:100920000613491CC9B280F80613092903D980F8B7
:10093000062380F8F032D0F80C1391FBF4F1A0F804
:100940000813F0BD0D882A4F6DBAA0F85C544D888D
:100950006DBAA0F85E548D886DBA2DB2A0F86054BF
:100960008979A0F86214D0F880144E19C0F8806418
:1009700090F864C497F87A14BCF1010F07EB4101B9
:1009800004D1B1F96674F61BC0F88064A1F866540E
:1009900090F87A14491CC9B280F87A14092903D94D
:1009A00080F87A2480F86434D0F8801491FBF4F154
:1009B000A0F87C14F0BD088842BA0E4802804A882C
:1009C00052BA4280898849BA8180F0BD088842BA0B
:1009D000094802804A8852BA42808A8852BA828084
:1009E000088842BA05480280498849BA4180F0BD6A
:1009F0007C0300204C090020C00A0020340C002099
:100A000030B40F4C4FF4007525600025A560E560FB
:100A1000082525610B4C050A25706070080AA07036
:100A2000E170100A20716271180AA071E371231F2E
:100A3000034930BC1A1D01F1180000F0A7B80000EE
:100A4000940000200C000020014800F02BBC0000A6
:100A5000F402002001681823CAB2103AB2FBF3F284
:100A6000054B6FF30901032A9B5CC36500D9091D7F
:100A70008165084670470000DC4C000810B501464F
:100A800000208B698A6A4FF0C07453B1B3F5005FE0
:100A900015D072B1012A0CD0022A0AD0032A09D13A
:100AA00004E01AB1012A06D0022A03D1C96AC90199
:100AB00000D5012010BDC96AA142FAD010BD002A9C
:100AC000F7D0012AF2D0022AF3D0032AF3D010BDC6
:100AD00030B50468256825F48025256004686360C6
:100AE0008368402B036803D099600068C26030BD02
:100AF0009A600068C16030BD704700002DE9F05F6A
:100B0000DFF85C80142400273E463D4608F1340B94
:100B100008F1320A08F1300910E05A4651464846B9
:100B200002F0B5F9B8F93010B8F934000F44B8F94B
:100B3000321005440E44642003F030FF641EECD2F2
:100B4000142197FBF1F2404620F8422F96FBF1F278
:100B500095FBF1F14280A8F84610BDE8F09F000037
:100B60004000002090F82020012A09D090F8202091
:100B7000022A05D0416A41F4802141620120704778
:100B8000006842690A43426100207047F0B590F85E
:100B90002040012C07D090F82040022C03D0416A5D
:100BA00041F4802153E00468A5686D0105D4A5686F
:100BB0002D0102D4A568ED0046D5A4680125C4F333
:100BC0000164A5401D608D684FF4C0739DB1CE686F
:100BD00035434E6845EAC605066803EB0417F55130
:100BE0004FF4C275076805EB04150E697E51097D47
:100BF000012905D009E00E88CD6845EA4655EBE7A6
:100C000001684E5946F480764E511179D2F805505C
:100C10004FF4C67641EA0521056806EB0416A95192
:100C20001178D2F801204FF4C47541EA022102681C
:100C300005EB04155151006803EB0411425842F0D2
:100C4000010242500020F0BD416A41F400114162AE
:100C50000120F0BD10B590F82020012A09D090F8AD
:100C60002020022A05D0416A41F4802141620120FE
:100C700010BD3A48D0F8002242F00102C0F800222C
:100C8000D0F8002222F47C52C0F80022D0F80022D2
:100C90004B6A42EA0322C0F800220B7D01229A40EF
:100CA000D0F81C329343C0F81C32CB69B3B9D0F8EA
:100CB0000C329343C0F80C328C894B6864F31F43A9
:100CC0004C6900EBC404C4F840320C890B6864F32F
:100CD0001F434C6900EBC404C4F84432CB69012BB8
:100CE00016D1D0F80C321343C0F80C320C884B6884
:100CF00064F31F434C6900EBC404C4F840320C8910
:100D0000CB6864F31F434C6900EBC404C4F844325D
:100D10008B69002BD0F804320ED01343C0F8043294
:100D20000B69002BD0F8143208D01343C0F81432EA
:100D3000096A012904D008E09343EFE79343F5E7FC
:100D4000D0F81C121143C0F81C12D0F8001221F088
:100D50000101C0F80012002010BD00000064004036
:100D6000704730B590F82040012C07D090F8204013
:100D7000022C03D0416A41F4802109E011B101291C
:100D800009D00CE00468E46807E0416A41F400110E
:100D90004162012030BD04682469A407F5D04FF4F6
:100DA000D874056804EB01142D5915F004059560FD
:100DB00005682D5942D0ED08556005682C59C4F3DB
:100DC0004004D4604FF4DA74056804EB01142D5923
:100DD00005F00F05156105682D59C5F307259561C7
:100DE00005682C59240C54614FF4DC72046802EB42
:100DF0000112A4581C700468A458240A5C7004688A
:100E0000A458240C9C700468A258120EDA704FF497
:100E1000DE72046802EB0112A4581C710468A45825
:100E2000240A5C710468A458240C9C710468A258BC
:100E3000120EDA7129B1012909D00DE06D0D15608E
:100E4000BBE70068C16841F02001C16004E00068B0
:100E5000016941F020010161002030BD2DE9F05F02
:100E60000546006800244669D0F804908768D0F8E9
:100E70000CB0D0F810A0D0F81880F10748D0F907CE
:100E800014D001218160B80703D5284600F0F1F99C
:100E90000CE0780702D54FF4006407E0380702D56C
:100EA0004FF4805402E0284600F0E2F9F80516D528
:100EB00029684FF480708860B80503D5284600F093
:100EC000DAF90CE0780502D544F4005407E038055F
:100ED00002D544F4804402E0284600F0CBF9F80340
:100EE00016D529684FF480308860B80303D52846AA
:100EF00000F0C3F90CE0780302D544F4004407E0A5
:100F0000380302D544F4803402E0284600F0B4F9F6
:100F1000300707D55FEACB6004D52968102044F478
:100F20000074C86070074FF0080707D55FEA0B70C0
:100F300004D52868C760284600F050F9B00706D5E8
:100F40002868C068800702D0284600F049F970067A
:100F500007D55FEACA6004D52968102044F480648C
:100F60000861B00607D55FEA0A7004D528680761F2
:100F7000284600F04DF9F00606D52868006980077C
:100F800002D0284600F045F9B00308D55FEAC960F1
:100F900005D5296810204860284600F03BF9F00389
:100FA00007D55FEA097004D528684760284600F035
:100FB00065F9300446D55FEA497040D5F00504D59F
:100FC0005FEAC87001D044F00104B00504D55FEABF
:100FD000887001D544F00204700504D55FEA4870BA
:100FE00001D544F00404300529D518F0700F26D03F
:100FF00008F07000402815D006DC102809D0202801
:101000000AD0302816D10AE050280ED0602811D11D
:101010000EE044F008040DE044F010040AE044F04F
:10102000200407E044F0400404E044F0800401E0C0
:1010300044F480742868816921F070018161296815
:1010400004204860002C05D0686A20436862284666
:10105000FFF786FEBDE8F09F70B5040003D094F85A
:10106000200010B104E0012070BD204600F082F89D
:101070002068016821F00201016000F075FB05465F
:10108000052604E000F070FB401B0A2811D82068F8
:1010900040688007F6D42068016841F001010160D2
:1010A00000F062FB05460BE000F05EFB401B0A28E7
:1010B00006D9606A40F40030606284F82060D2E7AC
:1010C00020684068C007EFD0207E012820680168B2
:1010D0003DD021F080010160607E01282068016818
:1010E00038D021F040010160A07E0128206801680D
:1010F00033D021F020010160E07E012820680168E2
:101100002ED041F010010160207F01282068016885
:1011100029D021F008010160607F01282068016862
:1011200024D021F004010160D4E902010843D4E98C
:101130000412114308436168491E08432168C861CD
:1011400000206062012084F82000002070BD41F082
:101150008001C0E741F04001C5E741F02001CAE746
:1011600021F01001CFE741F00801D4E741F004017C
:10117000D9E7000000B50068154987B0884225D13D
:1011800014480021026842F00072026000680222E6
:1011900000F0007005900320CDE90210CDE90002B7
:1011A0000920049069460C4800F0F2F9002211462B
:1011B000132000F0B5FB132000F0A7FB0022012153
:1011C000142000F0ADFB142000F09FFB07B000BD21
:1011D0000064004040380240000C024070470000AC
:1011E00010B5084A016891420AD1074B074A00210D
:1011F000FFF7B7FDBDE8104003490448FFF7F6BA12
:1012000010BD00000064004014000020D400002045
:10121000704770477047000070B5044690F8200092
:10122000012804D0606A40F40020606218E00220C7
:1012300084F820002068016821F00101016000F0BD
:1012400093FA05460EE000BF00F08EFA401B0A2814
:1012500008D9606A40F400306062052084F82000FC
:10126000012070BD20684068C007EDD1606270BD8C
:10127000704770477047704770477047704790F8E5
:101280003510022903D080214165012070470521D6
:1012900080F835100068016821F00101016000202C
:1012A000704700002DE9F84304464FF00009CDF8DF
:1012B000009063484FF41651A56D0068B0FBF1F73C
:1012C0002E6894F85C10082000FA01F131420FD02A
:1012D00021680A6852070BD50A6822F004020A60E6
:1012E00094F85C108840A860606D40F00100606573
:1012F00094F85C104FF0010808FA01F0304208D071
:1013000021684969090604D5A860606D40F00200B3
:10131000606594F85C1004208840304208D0216851
:101320000968890704D5A860606D40F00400606515
:1013300094F85C1010208840304218D02168096869
:10134000090714D5A86020680168490304D500681E
:10135000000308D5A16C07E00168C90503D4016842
:1013600021F008010160216C09B12046884794F8FA
:101370005C1020208840304231D021680968C906BD
:101380002DD5A86094F8350005282068016806D09E
:10139000490347D5006800031DD4616C1CE021F0AF
:1013A000160101602068416921F080014161206CD3
:1013B00008B9A06C20B12068016821F00801016023
:1013C00094F85C103F208840A86084F8349084F83A
:1013D0003580216D1FE0E16B09B120468847606DC3
:1013E00000282BD0606DC00714D0052084F835008C
:1013F0002068016821F0010101600098401C009004
:10140000B84203D820680068C007F6D184F8349049
:1014100084F83580E16C002910D001B02046BDE889
:10142000F04308470168C905D5D4016821F01001CF
:10143000016084F8349084F83580CCE7BDE8F88307
:10144000380000202DE9F041044600F08DF90646F1
:101450005CB1002584F83450022084F835002068FF
:10146000016821F0010101600DE00120BDE8F0817B
:1014700000F07AF9801B052805D92020606503203B
:1014800084F83500F2E720680068C007F0D12268D0
:10149000116820480140D4E901031843D4E9033618
:1014A0003343184363691843A3691843E369184336
:1014B000236A18430843616A042903D1D4E90B1352
:1014C00019430843106020684069666A20F00701EC
:1014D00030460E43012704280CD1A06A0643E06A77
:1014E00040B12046FFF7CAFA20B14020606584F879
:1014F0003570BAE7206846612046FFF7ABFA94F8EA
:101500005C203F2191408160656584F83570002042
:10151000ACE700003F8010F02DE9F0410446866DF5
:1015200090F83400002501280DD0012084F8340003
:1015300094F835700020012F07D084F8340002257C
:101540002846BDE8F0810220FBE7022784F83570C9
:1015500060652046FFF7BCFA94F85C103F20884095
:10156000B0602068016841F016010160206841699F
:1015700041F080014161206C20B12068016841F098
:10158000080101602068016841F001010160D7E7AE
:101590002DE9F84FDFF890B100224FF001084FF02D
:1015A000030A4FF00F090BF1040E00BF0B6808FA95
:1015B00002F42340A3426ED14D68022D01D0122DBA
:1015C0000ED1D50800EB850CDCF820505607F70E3D
:1015D00009FA07F6B5430E69BE402E43CCF82060E9
:1015E000066855000F790AFA05FC07F0030726EA9A
:1015F0000C06AF40374307604E68012E05D0022E1F
:1016000003D0112E01D0122E0ED18768CE6827EAA2
:101610000C07AE403E4386604668A6430C79C4F38F
:101620000014944034434460C4688E6824EA0C0477
:10163000AE402643C6604C68E4006FD53B4C25683D
:1016400045F480452560246822F0030504F48044B5
:101650000094374C2E19D6F8084895072F0F09FA31
:1016600007F5AC43334DA84201D100252EE0324DA1
:10167000A84201D1012529E0304DA84201D102251F
:1016800024E02F4DA84201D103251FE02D4DA84293
:1016900002D104251AE041E02B4DA84201D10525D5
:1016A00014E02A4DA84201D106250FE0284DA8429A
:1016B00001D107250AE0274DA84201D1082505E000
:1016C000254DA84201D1092500E00A25BD4025434A
:1016D000C6F80858DBF800405D464E689C43F603A8
:1016E00000D51C432C60DEF8004075464E689C43D4
:1016F000B60300D51C432C600B4D08352C684E6892
:101700009C43F60200D51C432C60074D0C352C6819
:101710004E689C43B60200D51C432C60521C102A14
:10172000FFF444AFBDE8F88F003C0140443802406C
:101730000030014000000240000402400008024066
:10174000000C024000100240001402400018024049
:10175000001C024000200240002402400AB18161C6
:1017600070470904FBE700000148806870470000EB
:101770002C00002002488168027811448160704783
:101780002C0000200B4810B5016841F40071016085
:10179000016841F480610160016841F48071016079
:1017A000032000F0DDF8002000F006F800F024F837
:1017B000002010BD003C024070B50D4D04464FF4B2
:1017C0007A712878B1FBF0F00A490968B1FBF0F0B2
:1017D00000F09BFB48B9102C07D200222146501E76
:1017E00000F09EF800206C6070BD012070BD00000C
:1017F0002C000020380000201F4808B5016841F483
:1018000080410160006800F4804000901A48001F89
:10181000016841F080510160006800F08050009044
:10182000032000F09DF8002211466FF00B0000F03D
:1018300077F8002211466FF00A0000F071F80022DC
:1018400011466FF0090000F06BF800221146501F9E
:1018500000F066F800221146101F00F061F8002227
:101860001146901E00F05CF80022BDE808401146C9
:10187000501E00F055B80000443802402DE9F041F8
:1018800016460F46040004D094F83900002518B11C
:1018900007E00120BDE8F08184F83850204600F0D0
:1018A000A3FE242084F839002068C16821F4005187
:1018B000C160204602F0E8F92068016921F49041F6
:1018C00001612068416921F02A01416120680169B4
:1018D00021F00F010161206801693943016120682D
:1018E000C16821F40061C1602068C1683143C160F2
:1018F0002068C16841F40051C160E563202084F88C
:10190000390084F83A000020C4E700F01F020121EA
:1019100091404009800000F1E020C0F800117047BC
:10192000F0B40E4B1B680C46C3F30223C3F107054A
:10193000042D00D90425191D072901D2002300E038
:10194000DB1E012606FA05F1491E214099409E4002
:10195000761E16403143F0BC01F0FABD0CED00E0FC
:10196000064900F0070208684FF6FF03184040EAF6
:101970000220034A10430860704700000CED00E0AD
:101980000000FA052DE9F8431748016841F080513D
:1019900001600068154F00F08050012600903E6401
:1019A000FFF7E2FE05464FF47A78114C05E000BFE0
:1019B000FFF7DAFE401B40450DD86068C003F7D53D
:1019C0007E64FFF7D1FE0546464607E0FFF7CCFEF2
:1019D000401BB04202D90320BDE8F8836068800351
:1019E000F4D50020F8E700004038024000000E4225
:1019F000007000402DE9F0470E46050065D0DFF885
:101A00001481D8F80000F7B200F00F00B04207D2FE
:101A100088F80070D8F8000000F00F00B04254D1F0
:101A200028683D4C810712D5400703D5206840F453
:101A3000E05020602878000703D5206840F460401B
:101A400020602068A96820F0F00008432060287812
:101A5000C0072DD0304968680839012812D0022803
:101A600013D0032811D00968890700292DDA2168CD
:101A700021F0030101432160FFF776FE814641F228
:101A8000883A0EE009688903EFE709688901ECE705
:101A9000FFF76AFEA0EB0901514502D90320BDE81A
:101AA000F0872068696800F00C00B0EB810FEFD17F
:101AB000D8F80010404601F00F01B14207D9077075
:101AC000006800F00F00B04201D00120E7E728785D
:101AD000400705D52068E96820F4E05008432060FD
:101AE0002878000706D52068296920F4604040EA7C
:101AF000C100206000F03CF82168084AC1F30311DE
:101B0000515CC840064908600020FFF755FE0020E0
:101B1000C5E70000003C024008380240E44C0008E1
:101B2000380000200148006870470000380000209D
:101B30000448054900680968044AC1F38221515CE0
:101B4000C84070473800002008380240F44C0008B4
:101B50000448054900680968044AC1F34231515CF0
:101B6000C84070473800002008380240F44C000894
:101B7000154810B5006810F00C02144813D0144931
:101B8000042A0FD0082A0ED10F4C241F2268236884
:101B900002F03F025B0207D52068C0F38810A0FB6B
:101BA000010106E0084610BD2168C1F38811A1FBC0
:101BB00000010023FEF716FB2168C1F30141491C17
:101BC0004900B0FBF1F010BD083802400024F400D9
:101BD000001BB7002DE9F84F050076D02878DFF814
:101BE000F8B2BE4CC00749D0DBF800105846C1F32C
:101BF0008101012908D00068C0F3810002280AD1C0
:101C0000201D0068400206D52068800336D568682C
:101C10000028E2D032E06868B0F5803F10D0B0F51F
:101C2000A02F206810D020F480302060206820F49D
:101C3000802020606868A0B1FFF796FD06460CE0A2
:101C4000206840F48030F4E740F480202060F7E71B
:101C5000FFF78AFD801B642873D820688003F7D5BE
:101C60000CE0FFF781FD064605E000BFFFF77CFDB5
:101C7000801B6428F0D820688003F7D42878DFF828
:101C8000608280074FF000093ED5DBF8001058460F
:101C900011F00C0F09D00068C0F3810002280BD1AD
:101CA0008D48001F0068400206D42068800715D5C3
:101CB000E868012809D111E0E868B8B10120C8F846
:101CC0000000FFF751FD064605E002E1FFF74CFD7D
:101CD000801B0228C0D820688007F7D520682969B2
:101CE00020F0F80040EAC10020600DE0C8F8009044
:101CF000FFF73AFD064604E0FFF736FD801B022899
:101D00001FD820688007F7D42878000722D5724EA4
:101D1000744869696C3671B101210160FFF724FDD7
:101D2000074604E0FFF720FDC01B022809D83068F1
:101D30008007F7D50EE0C0F80090FFF715FD0746C5
:101D400005E083E0FFF710FDC01B02287ED8306855
:101D50008007F7D42878400768D5DFF87CA10027F2
:101D60000AF1380ADAF80000C0000BD4DAF80010E3
:101D700041F08051CAF80010DAF80000012700F0A5
:101D800080500090584E3068C00510D4306840F440
:101D900080703060FFF7E8FC009005E0FFF7E4FC9E
:101DA0000099401A022851D83068C005F6D54A4E2D
:101DB000A868683601280FD00528306810D020F0B8
:101DC00001003060306820F004003060A868B8B1CD
:101DD000FFF7CAFC00900FE0306840F00100F4E724
:101DE00040F004003060F7E7FFF7BEFC0099411AAD
:101DF00041F28830814264D830688007F4D50EE023
:101E0000FFF7B2FC009007E0FFF7AEFC0099411A23
:101E100041F28830814254D830688007F4D42FB121
:101E2000DAF8001021F08051CAF80010A869C0B398
:101E3000DBF80010C1F3810102294AD0022848468C
:101E400007D0C8F86000FFF78FFC00E039E00546D6
:101E50003AE04746C8F86000FFF786FC064604E013
:101E6000FFF782FC801B02282BD820688001F7D462
:101E7000D5E907010843A96A1C4A490802EB014158
:101E80006A6A41EA8211084395F82C1040EA016120
:101E90001148001F016001203866FFF765FC054608
:101EA00005E014E0FFF760FC401B022809D8206819
:101EB0008001F7D50BE000BFFFF756FC401B02285E
:101EC00002D90320BDE8F88F20688001F4D40020F7
:101ED000F8E70120F6E70000083802400038024029
:101EE00000004742800E4742007000400000FFFFA4
:101EF0004FF0E0210428086903D020F004000861B5
:101F0000704740F00400FAE7704710B5401EB0F18A
:101F1000807F01D3012010BD4FF0E02460610F21CC
:101F2000601701F015FB0020A06107202061002050
:101F300010BD10B5FFF7E8FF10BD7047704730B512
:101F400090F83820012A20D0012280F8382002237E
:101F500080F8393003685C6824F070045C600368C2
:101F60005C680D682C435C6003689C6824F0800406
:101F70009C6003689C6849680C439C6080F8392029
:101F8000002180F83810084630BD022030BD10B561
:101F9000040003D094F8390010B107E0012010BD0F
:101FA000002084F83800204600F00CF8022084F865
:101FB0003900211D206801F057FC012084F8390008
:101FC000002010BD08B5174A01681748914207D193
:101FD000016841F002010160006800F0020009E0C0
:101FE000124A914208D1016841F004010160006881
:101FF00000F00400009008BD0D4A914207D101682D
:1020000041F010010160006800F01000F2E7094A99
:102010009142F0D1016841F040010160006800F098
:102020004000E7E70004004040380240000800405C
:1020300000100040001800400168CA6842F0010228
:10204000CA600068016841F001010160002070472A
:1020500070B5044690F83800012817D0012584F89F
:102060003850022084F839002068826822F0770214
:1020700022F47F4282600868502837D00DDC202887
:1020800059D005DC88B3102841D151E0022070BD41
:10209000302853D040283AD13FE060282ED0702815
:1020A0000BD0B0F5805F03D0B0F5005F2FD110E00A
:1020B0002068816821F0070115E0CB68D1E9012192
:1020C000206801F031FC2168886840F07700886062
:1020D0001DE0CB68D1E90121206801F025FC2068D2
:1020E000816841F48041816011E01EE0CA6849685E
:1020F000206801F0E1FC5021206806E0CA684968C8
:10210000206801F0EAFC6021206801F017FC84F8E7
:102110003950002084F8380070BDCA6849682068CA
:1021200001F0CAFC40212068EFE700212068ECE7BD
:1021300010212068E9E720212068E6E730212068A7
:10214000E3E7704770B50446006801694FF0000589
:10215000C943890715D4C168C943890711D4E91E49
:10216000016101202076206880698007204602D026
:10217000FFF7E7FF04E000F0D5F8204600F057F93C
:10218000257620680169C943490717D4C168C94346
:10219000490713D46FF00401016102202076206802
:1021A000806910F4407F204602D0FFF7CAFF04E0A8
:1021B00000F0B8F8204600F03AF925762068016969
:1021C000C943090716D4C168C943090712D46FF07F
:1021D00008010161042020762068C069800720463C
:1021E00002D0FFF7AEFF04E000F09CF8204600F0BC
:1021F0001EF9257620680169C943C90617D4C1684C
:10220000C943C90613D46FF010010161082020767C
:102210002068C06910F4407F204602D0FFF791FF8C
:1022200004E000F07FF8204600F001F925762068F0
:102230000169C943C90708D1C168C943C90704D1A5
:10224000891E0161204600F0F3F820680169C94346
:10225000090609D4C168C943090605D46FF0800195
:1022600001612046FFF769FE20680169C9434906FC
:1022700009D4C168C943490605D46FF04001016122
:10228000204600F0EFF820680169C94389060BD4A5
:10229000C168C943890607D46FF020010161204657
:1022A000BDE87040FFF74ABE70BD000000B5174999
:1022B0000268022085B08A420AD11021CDE90010BF
:1022C000012102910321CDE90310694610480BE07A
:1022D000104B00219A420BD192140092CDE90101DA
:1022E000CDE9031069460C48FFF752F905B000BD6F
:1022F0000A4B9A42FAD14FF410720092CDE90101D3
:102300000920CDE9031069460548EDE700040040C7
:102310000004024000080040000C02400018004089
:10232000001C0240704770B5044690F838000D4616
:1023300001280DD0012684F83860022084F8390085
:1023400042B1042A18D0082A2AD00C2A4DD139E0EB
:10235000022070BD206801F0F9FA2068816941F01F
:10236000080181612068816921F004018161206890
:1023700081692A69114311E0206801F013FB20688C
:10238000816941F4006181612068816921F4806183
:102390008161206881692A6941EA0221816124E022
:1023A000206801F031FB2068C16941F00801C1617A
:1023B0002068C16921F00401C1612068C1692A69EE
:1023C000114311E0206801F04FFB2068C16941F41E
:1023D0000061C1612068C16921F48061C161206828
:1023E000C1692A6941EA0221C16184F8396000208B
:1023F00084F8380070BD10B5040003D094F839009B
:1024000010B107E0012010BD002084F838002046FC
:1024100000F00CF8022084F83900211D206801F03A
:1024200023FA012084F83900002010BD704770475E
:1024300010B50068094988420ED102F00FFC084827
:10244000B0F9CC35B0F95824B0F9E412B0F9700104
:10245000BDE81040FEF7D4BA10BD000000100040E7
:102460007C0300207047704710F8391F40780843FC
:102470007047000070B5026804461068D16853695F
:1024800010F00F0F50D003F0010501F490763543A2
:102490005DD0C20705D0CA0503D5E26B42F0010248
:1024A000E263420705D5DA0703D0E26B42F002028D
:1024B000E263820705D5DA0703D0E26B42F004023B
:1024C000E263020705D5DA0703D0E26B42F00802A7
:1024D000E263E26B002A33D0800604D5880602D579
:1024E000204601F08AFB20684069E16BC0F3801050
:1024F000090700D428B3204601F068FB2068416931
:1025000049061AD5416921F040014161606BA0B1D3
:102510001B490165606BFEF7B2FE002810D0606BAE
:10252000016DBDE870400847830610D58B060ED5B7
:102530002046BDE8704001F060BB2046FFF793FFE6
:1025400070BD2046FFF78FFF0020E06370BD0306DB
:1025500006D50B0604D52046BDE8704001F0EABC64
:102560004006F3D54806F1D5D168204621F0400158
:10257000D160202184F8391000F0BAFA70BD000053
:102580002D3B000870B5040004D094F839000025F4
:1025900010B106E0012070BD84F83850204600F0EC
:1025A00023F8242084F839002068C16821F4005100
:1025B000C160204601F068FB2068016921F4904168
:1025C00001612068416921F02A0141612068C168E8
:1025D00041F40051C160E563202084F8390084F89B
:1025E0003A00002070BD00002DE9F0430746026864
:1025F0004F4800244F4903250226DFF83CC187B02D
:102600004FF00808824218D1086840F400200860A2
:10261000086802AA00F400200590CDE900560120C8
:1026200082E8210169466046FEF7B2FF00220221DE
:102630003420FFF775F934205FE03E483F4B001D22
:102640004FF007099A4230D1016841F01001016052
:10265000006802AA00F010000590C020CDE9000635
:1026600082E8300269463648FEF792FF364D35481B
:1026700028604FF00060C5E901044014C5E903403B
:1026800080106C61C5E906404FF44030C5E908048C
:102690002846FEF7D7FE18B1C8212CA001F0DBFCBC
:1026A0007D63AF6307B0BDE8F0832C4B9A4227D11E
:1026B0000868274640F4003008600868CDE90265E4
:1026C00000F4003005900420CDE900066946644618
:1026D0006046CDF81090FEF75BFFCDE90275CDE9BD
:1026E000008669462046CDF81090FEF751FF002283
:1026F00003212620FFF714F92620FFF706F9D1E77A
:1027000017498A42CED1016841F02001016000687A
:1027100002AA00F0200005904FF48440CDE90006A5
:1027200082E8300169460F48FEF732FFBAE7000041
:10273000004C0040403802400000024000100140C0
:102740000004024040640240F40200202E2E2F5369
:1027500072632F75736172742E6300000044004031
:102760000014014000180240F8B5044690F83A0001
:1027700020283CD1C1B3BAB394F83800012836D030
:10278000012084F83800A162A2850025E56322209B
:1027900084F83A00636B1748D863636B1648186473
:1027A000636B1648D864606B134605650846666B14
:1027B000216802463046091DFEF7AEFE206801681A
:1027C0004168009184F83850C16841F48071C1605B
:1027D0002068416941F0010141612068416941F08F
:1027E000400141610020F8BDFFE70120FBE7022026
:1027F000F9E70000873B0008C33B00083D3B0008A9
:1028000090F83A30202B1DD1D1B1CAB190F83830B0
:10281000012B17D081628285C2850021C1632222EB
:1028200080F83A2080F8381001684A6942F00102C5
:102830004A610068C16841F49071C160002070472E
:10284000012070470220704770B5044600686B494C
:10285000884201D102F0C4F9694920680025884204
:1028600064D1684C6078092810D2DFE800F0050ACE
:10287000121B242F39424D002078262807D1012031
:1028800003E02078252802D10220607070BD6570B9
:1028900070BDA188207801EB0021A1804B3020720F
:1028A0000320F2E7A18820780144A180217A08441E
:1028B00020720420E9E720782D2802D1A18849421E
:1028C000A180217A084420720520DEE7E188207883
:1028D00001EB0021E180217A084420720620D4E730
:1028E000E18820780144E180217A084420720720A1
:1028F000CBE720782D2802D1E1884942E180217A76
:10290000084420720820C0E7207A21784FF47A73B7
:10291000884201D1522002E0A580E5805720A070B6
:102920000122A11C384800F086F8B0E737498842F8
:10293000AED13748374A04781178374801F07F0321
:10294000C4544B0602D10378242BA1D1491C117029
:1029500001F07F01314B082903D01878204418700A
:1029600070BD1978A14245D12D4C00214618F6784A
:102970006654491C0429F9DB46782A49642E1DD087
:10298000692E0ED0702E25D1096824680C608078DD
:102990002D281FD191ED000AB1EE400A81ED000A09
:1029A00018E0096824684C6080782D2812D191EDD8
:1029B000010AB1EE400A81ED010A0BE009682468C2
:1029C0008C6080782D2805D191ED020AB1EE400A85
:1029D00081ED020A14481D701570D0F80C01FDF746
:1029E000E0FDBDE8704041EC100B10A053EC102B43
:1029F00001F032BB1D70157070BD00000010014069
:102A000000440040420C002074020020004C0040B2
:102A10001E0000201C000020E00100201D000020FE
:102A20002800002024000020C00A0020252E326645
:102A3000200A000070472DE9F843044690F8390059
:102A40001F4616460D46202850D1A5B19EB194F8D8
:102A5000380001284AD0012084F838004FF00008DF
:102A6000C4F83C80212084F83900FEF77DFEA6845E
:102A70008146E68426E00120BDE8F883E08C401E14
:102A8000E084A0684B46B0F5805F4FF000024FF045
:102A900080012046009703D001F07DFAE8B90DE0EF
:102AA00001F079FAC8B928882168C0F308004860A5
:102AB000206908B16D1C05E0AD1C03E0216815F824
:102AC000010B4860E08C0028D8D14B460022402101
:102AD0002046009701F05FFA08B10320CCE72020E0
:102AE00084F8390084F838800020C5E70220C3E765
:102AF0007047000001A001F0AFFAFBE765727200B9
:102B000070B50D4C0025C4F894520C48016821F4AE
:102B100040710160016841F480710160C4F8905215
:102B2000022004F5247401F053FF012060600220AC
:102B300001F04EFF656070BD00004242001002408F
:102B400003480121C0F89412C0F8901270470000A9
:102B50000000424270B50D4C0025C4F894520C4858
:102B6000016821F440710160016841F480710160E5
:102B70000126C4F89062022004F5247401F028FFB5
:102B80006660022001F024FF656070BD00004242D3
:102B9000001002402DE9F0478146164800240168E4
:102BA00021F44071016001680160134E25462746FB
:102BB0004FF00108C6F89472022001F009FFC6F830
:102BC00094826006040ED6F8100208B1641CE4B2C8
:102BD000012001F0FDFE6D1CEDB2082DEAD3B9F124
:102BE000000F04D0FFF78CFF2046BDE8F087FFF709
:102BF000B1FFF9E700100240000042422DE9F04128
:102C000006461448016821F440710160016841F4EE
:102C100080710160104C0027C4F894723D464FF05B
:102C20000108F009C4F890027006060E022001F0B7
:102C3000CFFEC4F89482022001F0CAFEC4F8947258
:102C4000022001F0C5FE6D1CEDB2082DE9D3BDE8F0
:102C5000F0810000001002400000424270B50D48B3
:102C6000016821F440710160016841F480710160E4
:102C7000094C0120C4F89002C4F89402042004F521
:102C8000247401F0A5FE00252560042001F0A0FEBB
:102C9000656070BD00100240000042420E4810B551
:102CA000016821F440710160016841F480710160A4
:102CB0000A4C0020C4F89402C4F89002042004F5E1
:102CC000247401F085FE012060602060BDE81040A2
:102CD000042001F07DBE00000010024000004242CE
:102CE00070B512480024016821F440710160016848
:102CF00001600F4D0126C5F89062304601F068FE74
:102D0000C5F89462012001F063FE07E0641CE4B2A0
:102D1000FA2C03D9FFF7C2FF012070BDD5F81002CD
:102D20000028F3D1C5F8940270BD000000100240E5
:102D3000000042422DE9F0412E492D4800252DED9D
:102D4000028B4FF47A7608602B494FF448709FED60
:102D50002B8A488501F5BA714FF49670DFED288A09
:102D60004885A1F24478B700C5EB451000EB40015F
:102D700008EB810404F12C00B0EE481AF0EE480A8A
:102D8000B0EE480A33463A46032100F0D3FC04F182
:102D90009800B0EE481AF0EE480AB0EE680A3346E2
:102DA0003A46032100F0C6FC6D1C042DDCDB41F229
:102DB00088349FED158A9FED131AB1EE040AF0EEE8
:102DC000480A334622460321104800F0B3FCF0EED7
:102DD000480ABDEC028B33462246BDE8F0419FED28
:102DE0000C1AB1EE040A03210A4800F0A3BC00004B
:102DF00090060020240000204C0900200000000064
:102E00006666E63F6666A6BF0AD7233C500A0020E6
:102E1000CDCC2C40C40B002010B5FFF791FE8021D3
:102E20006B2000F0DAF8642001F0B8FD00216B207F
:102E300000F0D3F8032000F09CF8002000F094F894
:102E4000322000F0B3F80021382000F0C6F800214D
:102E50006A2000F0C2F80021232000F0BEF8802193
:102E6000372000F0BAF8752000F02AF8682801D061
:102E7000012010BD01216B2000F0AFF800216C2073
:102E800000F0ABF8322000F091F8002010BD7CB5C6
:102E900014460D4606466B4606224321682000F084
:102EA0002DF800280BD1BDF8001049BA3180BDF8CB
:102EB000021049BA2980BDF8041049BA21807CBDAE
:102EC00010B50446FFF7CAFED020FFF797FEFFF7C4
:102ED00007FF2046FFF792FEFFF702FFFFF7BEFE57
:102EE000D120FFF78BFEFFF7FBFE0020FFF752FE1D
:102EF0000446FFF7D3FE204610BD00002DE9F04147
:102F00001D4614460F460646FFF7A8FE7006000E43
:102F1000FFF774FEFFF7E4FE20B1FFF7BFFE0120CC
:102F2000BDE8F0813846FFF769FEFFF7D9FEFFF7ED
:102F300095FE012000EB4600C0B2FFF75FFEFFF7F1
:102F4000CFFE09E0012C0DD05FF00100FFF722FE5B
:102F5000641E05F8010BE4B2002CF3D1FFF79EFECE
:102F60000020DDE70020F1E7C006010E1C2000F084
:102F700034B8C006010E1B2000F02FB8BC2801D3C6
:102F8000012110E0622801D302210CE02A2801D39C
:102F9000032108E0142801D3042104E00A2801D306
:102FA000052100E006211A2000F017B810B50446EC
:102FB0004FF47A70844201D9044602E0042C00D216
:102FC0000424B0FBF4F0401EC1B2192000F005F853
:102FD0006008BDE81040FFF7D1BF70B50C4605464C
:102FE000FFF73CFED020FFF709FEFFF779FE50B94E
:102FF0002846FFF703FEFFF773FE2046FFF7FEFDAE
:10300000FFF76EFE18B1FFF749FE012070BDFFF714
:1030100045FE002070BD0000104810B50E4901604B
:103020000521416000214FF400328160C0E90312A4
:10303000520142610176012242768176C1760177A2
:103040004277FEF709F8002805D0BDE810404B2173
:1030500003A001F000B810BD00640040AC000020E7
:103060002E2E2F5372632F63616E2E6300000000BB
:10307000094808B5016841F4800101600068002238
:1030800000F48000009011463A20FEF749FCBDE8AC
:1030900008403A20FEF739BC303802402DE9F043B1
:1030A000404887B00025016841F040010160016897
:1030B00001F040010591016841F0020101600168E1
:1030C00001F002010591016841F010010160016801
:1030D00001F010010591016841F0080101600168EB
:1030E00001F008010591016841F08001016001686B
:1030F00001F080010591016841F001010160016862
:1031000001F001010591016841F0200101600068B2
:10311000254F00F020004FF4005405900022214676
:103120003846FEF71BFBDFF884900122B0214846A9
:10313000FEF714FB0122DFF8788096033146404603
:10314000FEF70CFB00940124694638460194CDE952
:103150000245FEF71DFA3020CDE900040320CDE939
:10316000024069464846FEF713FAA002CDE9000581
:10317000694602940F48FEF70BFACDE900646946F0
:103180004046CDE90245FEF703FA8020CDE9000470
:1031900069464846CDE90245FEF7FAF907B0BDE8B1
:1031A000F083000030380240001802400010024056
:1031B00000140240000C024010B524488CB0224993
:1031C000016059210024C0E9011440F6C311C0E98F
:1031D0000314FEF7DCFE18B1B5211DA000F03BFF83
:1031E0004FF48050079007A91848FEF731FF18B137
:1031F000BB2117A000F02FFF1448FFF7FCF818B10F
:10320000C02113A000F027FF602000904FF47A70D7
:10321000CDE90104002269460C480494FFF783F8C5
:1032200018B1C9210AA000F016FF04226946074818
:10323000FFF779F818B1CE2105A000F00CFF034884
:10324000FFF734F80CB010BD00180040A4010020B6
:103250002E2E2F5372632F74696D2E6300000000B1
:1032600010B525488EB023490160B3210024C0E980
:1032700001144FF47A71C0E90314FEF788FE18B107
:1032800042211EA000F0E7FE4FF48050079007A9EE
:103290001948FEF7DDFE18B1482118A000F0DBFE4A
:1032A0001548FFF7A8F818B14D2114A000F0D3FE7F
:1032B0000B940BA910480C94FEF741FE18B1542151
:1032C0000EA000F0C8FE602000904FF4FA70CDE927
:1032D00001040022694608480494FFF724F818B155
:1032E0005D2106A000F0B7FE0348FEF7DFFF0EB039
:1032F00010BD000000040040F00000202E2E2F53CF
:1033000072632F74696D2E630000000010B52548AC
:103310008EB02349016059210024C0E9011440F214
:10332000CF71C0E90314FEF732FE18B171211EA05F
:1033300000F091FE4FF48050079007A91948FEF75E
:1033400087FE18B1772118A000F085FE1548FFF719
:1033500052F818B17C2114A000F07DFE0B940BA94B
:1033600010480C94FEF7EBFD18B183210EA000F07D
:1033700072FE602000904FF4FA70CDE90104002243
:10338000694608480494FEF7CEFF18B18C2106A0C8
:1033900000F061FE0348FEF789FF0EB010BD00008B
:1033A000000800402C0100202E2E2F5372632F7432
:1033B000696D2E63000000001CB510480E49002402
:1033C00001605921C0E9011442F20F71C160FEF79A
:1033D000DEFD18B19D210AA000F03DFE0094694673
:1033E00006480194FEF7ABFD002803D0A42104A0F9
:1033F00000F031FE1CBD00000010004068010020FC
:103400002E2E2F5372632F74696D2E6300000000FF
:103410000D4810B50B4901604FF4E13141600021C6
:1034200081600C22C160C0E904128161C161FFF7B3
:10343000A9F8002805D0BDE810404B2103A000F0FA
:103440000ABE10BD004C0040F40100202E2E2F5368
:1034500072632F75736172742E6300000D4810B58E
:103460000B4901600C494160002181600C22C16060
:10347000C0E9041281610A46C161FEF7FFF9002824
:1034800005D0BDE810405E2104A000F0E4BD10BDF1
:103490000010014034020020A08601002E2E2F5380
:1034A00072632F75736172742E6300000E4810B53D
:1034B0000C4901604FF4E1314160002181600C2230
:1034C000C160C0E9041281610A46C161FEF7D6F904
:1034D000002805D0BDE81040712104A000F0BBBD5C
:1034E00010BD000000440040740200202E2E2F5317
:1034F00072632F75736172742E6300000E4810B5ED
:103500000C4901604FF4E1314160002181600C22DF
:10351000C160C0E9041281610A46C161FEF7AEF9DB
:10352000002805D0BDE81040842104A000F093BD20
:1035300010BD000000140140B40200202E2E2F53B5
:1035400072632F75736172742E630000FEE770471B
:103550000907090E002806DA00F00F0000F1E0204C
:1035600080F8141D704700F1E02080F800147047C7
:1035700000B530EEC01A80ED080AC0ED050A80EDF6
:103580000B1AD0ED141A01469FED692A30EEC00ADD
:10359000F5EEC01AB1EE400AF1EE10FA0ED0B5EE1B
:1035A000C01AF1EE10FA02DDF0EE410A01E0F0EE91
:1035B000400AF4EEE10AF1EE10FA12DCD1ED150A40
:1035C000F5EEC00AF1EE10FA0ED0B5EEC01AF1EE2B
:1035D00010FA01DDB0EE410AB4EEE00AF1EE10FAA5
:1035E00002D2B0EE420A00BD886D01F13402032818
:1035F00002D0042838D07AE091ED000A104620EE7F
:10360000010A81ED0C0A91ED0D0AD1ED010A00EEDF
:10361000810A81ED0D0A91ED0A0AD1ED020A31EE1F
:10362000400A20EE200A81ED0E0A91ED180AB8EE4C
:10363000400A01F08AF991ED0C0AD1ED0D0A01F171
:103640003C0030EE200AD1ED0E0A30EE200A81ED6A
:103650000F0A91ED170AB8EE400A01F076F991EDE4
:103660000F0A81ED100A42E091ED0A0AD1ED001A2D
:10367000104671EE400A60EEA10AC1ED0C0AD1EDD0
:10368000010A60EE810AC1ED0D0AF0EE000A00EEBB
:10369000601A91ED090AD1ED020A31EE000A20EE1E
:1036A000200A81ED0E0A91ED180AB8EE400A01F0E9
:1036B0004CF991ED0C0AD1ED0D0A01F1480030EE04
:1036C000200AD1ED0E0A30EE200A81ED110AD1ED6B
:1036D000130A30EE800A81ED120A91ED170AB8EE56
:1036E000400A01F032F991ED120A81ED130A91EDD1
:1036F0000A0A81ED090A91ED0B0A81ED0A0A91EDA2
:10370000070A81ED060A91ED080A81ED070A91ED9D
:10371000040A81ED030A91ED050A81ED040A886D22
:10372000032802D091ED120A00BD91ED0F0A00BDF1
:103730000000000030B4034C4466034C846630BC87
:1037400001F022BA894B0008974B00087047704778
:1037500010B5FEF70FF8BDE81040FEF7EABB000019
:1037600030B5274893B00025016841F080510160D1
:10377000006800F0805011902248016841F44041F7
:1037800001600068022400F4404011900120009084
:10379000000401908001CDE9064006200890B42085
:1037A000CDE9090404200B906846FEF713FA00B136
:1037B000FEE7FEF7E7F800B1FEE70CA90F2081E86D
:1037C00031004FF4A0500F904FF48050109005211D
:1037D0000CA8FEF70FF900B1FEE7FEF7A3F94FF4CE
:1037E0007A71B0FBF1F0FEF790FB0420FEF780FB4E
:1037F00000221146501EFEF793F813B030BD0000B2
:1038000040380240007000401048016841F47001E7
:1038100001600F48016841F0010101600C4A00217C
:103820000832116002680B4B1A400260031D0A4AFD
:103830001A60026822F48022026005480C300160A0
:1038400002495806803908607047000088ED00E0A2
:1038500000380240FFFFF6FE103000240148FEF75A
:1038600071BC000068010020F0B50268234B244DB4
:10387000244E254F254C4FF0804C984209D060458E
:1038800007D0A84205D0B04203D0B84201D0A04230
:1038900004D122F0700E4A6842EA0E0298421BD010
:1038A000604519D0A84217D0B04215D0B84213D005
:1038B000A04211D0164DA8420ED0164DA8420BD0F2
:1038C000154DA84208D0154DA84205D0144DA84268
:1038D00002D0144DA84203D122F44075CA682A438D
:1038E00002608A68C2620A688262984201D0A0427D
:1038F00001D10969016301214161F0BD000001406E
:103900000004004000080040000C0040000401409A
:1039100000400140004401400048014000180040C0
:10392000001C00400020004010B5846842EA0322D9
:1039300024F47F440A432243826010BD826822F04F
:1039400070020A4342F007018160704730B5026A95
:1039500022F001020262026A436884690D6824F061
:103960007304254322F002048A6822430B4CA042D0
:1039700002D00B4CA0420BD122F00804CA6823F4F9
:10398000407322434C6922F004021C438B69234399
:103990004360856149684163026230BD00000140B7
:1039A0000004014030B5026A22F010020262026A8D
:1039B000436884690D6824F4E64444EA05248D686C
:1039C00022F0200242EA05120D4DA84202D00D4D10
:1039D000A8420ED1CD6822F0800242EA05124D695C
:1039E00023F4406343EA85038D6922F0400243EAF1
:1039F00085034360846149688163026230BD0000D1
:103A0000000001400004014030B5026A22F48072D7
:103A10000262036A4268C46923F4007324F07305E8
:103A20000C682C438D6843EA05230D4DA84202D053
:103A30000C4DA8420ED1CD6823F4006343EA052360
:103A40004D6922F4405242EA05128D6923F48063E5
:103A500042EA05124260C4614968C163036230BD35
:103A6000000001400004014030B5026A22F4805297
:103A70000262046A4268C3690D6823F4E64343EABC
:103A800005238D6824F4005444EA0534084DA84207
:103A900002D0084DA84204D14D6922F4804242EA86
:103AA00085124260C36149680164046230BD000050
:103AB000000001400004014010B5036A046A24F0CC
:103AC00001040462846924F0F00444EA021423F03F
:103AD0000A020A438461026210BD10B5036A23F032
:103AE000100303628369046A23F4704343EA0232D9
:103AF00024F0A00343EA01118261016210BD0000BD
:103B000010B50848FEF7B6FC0648FEF7ADFC2028C5
:103B1000FAD1012204490348FEF772FE0028F8D1C9
:103B200010BD0000F40100201E00002010B5806BC5
:103B30000021C185C184FEF796FC10BD70B5846B71
:103B40002068406994F83910C0F3C010002521297D
:103B500004D118B1E584204600F046F82068406999
:103B600094F83A10C0F38010222904D118B1E585E9
:103B7000204600F02BF8E06B40F01000E063204698
:103B8000FEF771FC70BD10B50146806B09680968CD
:103B9000C90513D40021C1850168CA6822F4807266
:103BA000CA6001684A6922F001024A6101684A69F3
:103BB00022F040024A61202180F83A10FEF744FECC
:103BC00010BD10B5806BFEF735FF10BD0168CA68E7
:103BD00022F49072CA6001684A6922F001024A61C7
:103BE000202180F83A1070470168CA6822F0C002AC
:103BF000CA60202180F83910704710B590F83A104B
:103C0000222901D0022010BD8168B1F5805F11D05A
:103C10000169002901681FD0496801F07F03816AAA
:103C20004A1C82620B70C18D491E0904090CC185B2
:103C300018D026E00269816A002A0268526805D01D
:103C4000D2B20A80816A491C8162ECE7C2F30802A1
:103C50000A80816A891CF7E74A68816A4B1C836283
:103C60000A70E0E70168CA6822F49072CA600168CD
:103C70004A6922F001024A61202180F83A10FEF7D9
:103C8000E3FD002010BD00002DE9F041044600686E
:103C9000016921F44052E168114301612168C8685B
:103CA00049F20C6290432369A268E5691A4363698B
:103CB0002B431A430243CA602168486920F44072CA
:103CC000A06910434861E1696425B1F5004F974848
:103CD000974A21684FF032083FD0914201D081428B
:103CE0007CD1FDF735FF00EBC00101EB00106168EE
:103CF0008900B0FBF1F6FDF72BFF00EBC00101EBF3
:103D0000001061688900B0FBF1F0B0FBF5F06FF0D6
:103D10001801484306EB800108EB0110B0FBF5F0F9
:103D200000F0F006FDF714FF00EBC00101EB0010FE
:103D300061688900B0FBF1F0B0FBF5F006EB00160E
:103D4000FDF706FF00EBC00101EB00106168890080
:103D5000B0FBF1F7FDF7FCFED2E0914201D08142C9
:103D60003DD1FDF7F5FE00EBC00101EB00106168ED
:103D70004900B0FBF1F0B0FBF5F00601FDF7E8FEFD
:103D800000EBC00101EB001061684900B0FBF1F7E6
:103D9000FDF7DEFE00EBC00101EB00106168490099
:103DA000B0FBF1F0B0FBF5F06FF01801484307EB02
:103DB000800108EBC100B0FBF5F000F0F80006EB65
:103DC0004006FDF7C5FE00EBC00101EB0010616885
:103DD0004900B0FBF1F7FDF7BBFE3CE055E0FDF715
:103DE000A7FE00EBC00101EB001061684900B0FBC9
:103DF000F1F0B0FBF5F00601FDF79AFE00EBC00113
:103E000001EB001061684900B0FBF1F7FDF790FE8F
:103E100000EBC00101EB001061684900B0FBF1F05C
:103E2000B0FBF5F06FF01801484307EB800108EB99
:103E3000C100B0FBF5F000F0F80006EB4006FDF71E
:103E400077FE00EBC00101EB001061684900B0FB98
:103E5000F1F7FDF76DFE00EBC00101EB00106168AA
:103E60004900B0FBF1F0B0FBF5F06FF018014843EA
:103E700007EB800108EBC100B0FBF5F000F0070094
:103E8000216830448860BDE8F081FDF751FE00EB09
:103E9000C00101EB001061688900B0FBF1F6FDF78D
:103EA00047FE00EBC00101EB001061688900B0FB28
:103EB000F1F0B0FBF5F06FF01801484306EB80011C
:103EC00008EB0110B0FBF5F000F0F006FDF730FE56
:103ED00000EBC00101EB001061688900B0FBF1F05C
:103EE000B0FBF5F006EB0016FDF722FE00EBC0017B
:103EF00001EB001061688900B0FBF1F7FDF718FED7
:103F000000EBC00101EB001061688900B0FBF1F02B
:103F1000B0FBF5F06FF01801484307EB800108EBA8
:103F20000110B0FBF5F000F00F00A9E7001401400C
:103F30000010014090F83910212901D0022070476B
:103F40008168B1F5805F016A0BD04A1C0262026889
:103F500009785160C18C491E0904090CC1840ED036
:103F600017E009880268C1F308015160016900295E
:103F7000016A02D0491C0162ECE7891CFBE7016879
:103F8000CA6822F08002CA600068C16841F040013E
:103F9000C160002070472DE9F041984617460E4653
:103FA0000446069D1DE0681C1BD02DB1FDF7DCFB0F
:103FB000A0EB0800A84214D92068C16821F4D07190
:103FC000C1602068416921F001014161202084F82D
:103FD000390084F83A00002084F838000320BDE856
:103FE000F0812068006836EA000004D00020B84262
:103FF000D9D00020F3E70120F9E7000010B5084808
:10400000FEF738FA0648FEF72FFA2028FAD10122E7
:1040100004490348FEF7F4FB0028F8D110BD000066
:1040200074020020420C002010B50848FEF722FA66
:104030000648FEF719FA2028FAD10122044903485C
:10404000FEF7DEFB0028F8D110BD0000B40200200E
:104050001F000020FEE7FEE70FB4054B10B503A9D3
:10406000044A029800F0DAF810BC5DF814FB000076
:10407000394A00083C00002002E008C8121F08C1AD
:10408000002AFAD170477047002001E001C1121FD9
:10409000002AFBD1704700002DE9FF5F82B00021AC
:1040A000DDE90430020DDDF840B0034318D044F6DA
:1040B0001050A2F2FF3242431514119801281FD06C
:1040C000A5EB0B00401C5FEA000A4FF000064E4FC4
:1040D000DFF83891B046504615D5CAF1000413E018
:1040E000119801244AA3012801D16FEA0B0102981B
:1040F000119AC0E90031C0E9024206B0BDE8F09F64
:10410000CBF10000DFE704460021404A491842EBAA
:104110000450CDE9001012E0E00707D032463B46DC
:1041200040464946FCF736F98046894632463B46CA
:1041300010461946FCF72EF906460F466410002C6F
:10414000EAD1DDE90401DDE90023BAF1000F06DA66
:10415000FCF720F942464B46FCF71CF905E0FCF75A
:104160008BF942464B46FCF787F904460E4600227F
:10417000284BFCF7E5FA03D84FF0FF30014607E083
:104180000022254B20463146FCF75DF8FCF7C0FACB
:10419000102409E0002C0ADB0A220023FCF722F895
:1041A000039B30321A55641E50EA0102F2D1641C9E
:1041B000039AC4F111031444119A012A03D0012275
:1041C00008430DD10AE0084304D000204FF0110B42
:1041D000119072E7A3EB0B056D1E0DE05B4504DD4E
:1041E0004FF0000205F1010504E003DA4FF0000290
:1041F000A5F10105002AECD002981199C0E902311D
:10420000C0E9004579E70000000014400000F03FDD
:10421000300000000000F0430000E03F2DE9FF4FB8
:1042200095B09B468946064600250FE2252877D1A2
:1042300000242746F84A0121059400E0044316F8BB
:10424000013F203B01FA03F01042F7D130782A28D1
:1042500011D06FF02F033078A0F13002092A16D860
:10426000059A44F0020402EB820203EB420210447E
:10427000761C0590EFE759F8042B0592002A03DA23
:10428000504244F40054059044F00204761C307807
:104290002E2816D116F8010F44F004042A280DD058
:1042A0006FF02F023078A0F13003092B09D807EB0B
:1042B000870302EB4303C718761CF3E759F8047B26
:1042C000761C30786C280FD006DC4C2817D0682874
:1042D0000DD06A2814D104E0742810D07A280FD1A8
:1042E0000DE044F400140AE044F4801401E044F4C6
:1042F00040147278824202D104F58014761C761C38
:10430000307866280BD013DC582877D009DC0028D9
:1043100075D04528F6D04628F4D047281AD19DE11B
:1043200018E0632835D0642879D0652812D195E14A
:10433000702873D008DC6728F1D069286FD06E2808
:104340000DD06F2806D1B5E073282CD0752875D014
:10435000782874D05A46179990476D1C75E1C4F3BC
:104360000250022809D003280DD0D9F800100428E3
:104370000DD00D6009F1040967E1D9F80010EA17C2
:10438000C1E90052F6E7D9F800100D80F2E70D7090
:10439000F0E719F8041B8DF8001000208DF80100DB
:1043A000EA46012003E059F804AB4FF0FF30610703
:1043B0004FF0000102D40DE008F101018846B94236
:1043C0000FDA8045F8DB1AF808100029F4D108E06C
:1043D00008F1010188468142FADB1AF80810002929
:1043E000F6D105985B46A0EB080721463846179A98
:1043F00000F094FA284400EB080507E04DE029E1BD
:104400000DE01AF8010B5A4617999047B8F10108C8
:10441000F7D25B4621463846179A13E142E00A225A
:104420000092C4F302524FF0000A022A08D059F851
:1044300004CB032A4FEAEC710AD00DE029E02AE010
:1044400009F1070121F00702F2E802C1914609E0F3
:104450000FFA8CFC4FEAEC71042A03D14FFA8CFC62
:104460004FEAEC71002907DA0A460021DCF1000C62
:1044700061EB02012D2202E0220504D52B228DF8EA
:104480000420012203E0E20701D02022F7E7904652
:1044900059E00A2102E010220DE010214FF0000A3D
:1044A00000910BE010224FF0000A44F004040827AA
:1044B000009203E008224FF0000A0092C4F3025277
:1044C000022A05D059F804CB0021032A08D009E0BC
:1044D00009F1070121F00702F2E802C1914605E067
:1044E0001FFA8CFC042A01D10CF0FF0C4FF00008DD
:1044F000220728D5702806D0009B83F0100353EACA
:104500000A0305D00EE040228DF80420012208E0C5
:104510005CEA010206D030228DF804208DF80500F7
:1045200002229046009B83F0080353EA0A030AD153
:104530005CEA010201D1620705D530228DF8042022
:104540004FF001087F1E582804D034A003900EA815
:1045500002900DE036A0F9E753466046009AFBF75B
:1045600041FE84460398825C0298401E02900270CD
:104570005CEA0100F0D1029806A9081A00F1200AAD
:10458000600702D524F4803400E00127574502DD9E
:10459000A7EB0A0000E0002000EB0A01009005985C
:1045A0004144401A0590E00306D45B462146179A21
:1045B000059800F0B3F90544002706E001A85A4623
:1045C000C05D179990476D1C7F1C4745F6DBE003E3
:1045D0000CD55B462146179A059800F09FF90544D3
:1045E00004E030205A46179990476D1C0099481EE8
:1045F00000900029F5DC08E0029802995A460078FC
:10460000491C0291179990476D1CBAF10001AAF15B
:10461000010AF1DC65E10000092801003031323384
:1046200034353637383961626364656600000000EE
:1046300030313233343536373839414243444546D8
:104640000000000000F058F90544761C307800287E
:104650007FF4ECAD19B02846BDE8F08F620700D4B6
:10466000062709F1070222F0070CFCE80223E146C5
:1046700003F000485FEA080C02D00FF2702C0DE046
:104680005FEA045C02D50FF2682C07E05FEAC47CA5
:1046900002D00FF2602C01E0AFF2700C4FF0FF3847
:1046A00023F00043CDF850C065280CD006DC452827
:1046B00009D046281DD047283DD13DE0662818D0B6
:1046C00067287ED138E00021112F01DB112000E0A6
:1046D000781CCDE9000106A90EA8FFF7DDFCDDE995
:1046E0000F010E9A03910021009207F1010A049133
:1046F0004DE04FF000400097CDE9011006A90EA84B
:10470000FFF7CAFCDDE90F0203920E9B119900220C
:10471000DDF80CA00093049211B9791C00EB010A9A
:10472000B7EB0A0004D4C0F1FF3007F1010A04908E
:10473000AAEB0700019044E0012F00DA01270021D5
:10474000112F01DD112000E03846CDE9000106A956
:104750000EA8FFF7A1FCDDE90F010E9A03910021DD
:1047600004910092BA4621070CD40399514500DA0E
:104770008A46BAF1010F05DD009AAAF10101515CE8
:10478000302908D0B84202DA10F1040F06DA01210C
:10479000CDE9011015E0AAF10101E9E7002805DCE7
:1047A000049901440491AAEB000102E0411C514527
:1047B00000DD8A460499401A401C01904FF00040E9
:1047C0000290200704D40198504501DBCDF8048005
:1047D00000208DF84F0002980DF14F07B0F1004F07
:1047E00025D02B200E9002984FF0020800280CDAFA
:1047F000404202902D200E9007E00A210298FBF71C
:10480000E3FE3031029007F8011DB8F10001A8F174
:104810000108F2DC02980028EFD1791E0E9808708A
:10482000307800F0200040F0450007F8020D12A893
:10483000C01B00F107081498007800B1012000EBBC
:104840000A01019801EBE07105984144401A401EAD
:104850000590E00306D45B462146179A059800F0C0
:104860005DF805441498007818B15A461799904796
:104870006D1CE00324D55B462146179A059800F08D
:104880004DF805441CE00498002807DBDDE903012E
:10489000884203DD0098405C179901E017993020A9
:1048A0005A469047049805F10105401C0490019870
:1048B000401E019004D12E205A46179990476D1C36
:1048C000BAF10001AAF1010ADDDC05E017F8010BDD
:1048D0005A46179990476D1CB8F10001A8F10108DC
:1048E000F4DC5B462146179A0598ABE62D000000E4
:1048F0002B000000200000002DE9F04104460025B7
:104900001E461746880404D405E039462020B047E7
:104910006D1C641EF9D52846BDE8F0812DE9F041F3
:10492000044600251E469046C80301D5302700E006
:104930002027880404D505E041463846B0476D1C61
:10494000641EF9D52846BDE8F081D0ED000AF4EEEA
:10495000C00AF1EE10FA01DD80ED000AD0ED000A88
:10496000B1EE400AF4EEC00AF1EE10FA01D280ED89
:10497000000A704710B504460020FDF7B9FA064852
:10498000E10801EB41020170C2EBC1114FF6FF7269
:1049900002EAC101418010BD0000002070B54FF453
:1049A0000775B0FBF5F1CCB2B0FBF5F105FB1106D4
:1049B00004E0284600F026F8641EE4B2002CF8D18A
:1049C000002E04D03046BDE8704000F01BB870BD2A
:1049D0000B49097848434FF0E021486100228A6181
:1049E000086940F0010008610869C30701D0C003ED
:1049F000FAD5086920F0010008618A61704700005B
:104A0000000000200B49498848434FF0E0214861ED
:104A100000228A61086940F0010008610869C30743
:104A200001D0C003FAD5086920F0010008618A614D
:104A3000704700000000002004490A685206FCD5B7
:104A4000024AC1B2121D116070470000004C0040C4
:104A50002DED028BFCF796FEFEF782FEB420FFF7E9
:104A600089FFFEF71BFBFEF703FBFEF7D5FAFEF707
:104A70004DFCFEF7A1FCFEF79FFBFEF7C9FCFEF71D
:104A8000EDFCFEF73BFDFEF711FDFEF7E9FB002212
:104A900002213620FCF744FF3620FCF736FF0022C7
:104AA00004214720FCF73CFF4720FCF72EFF122291
:104AB00029492A48FDF758FE012229492948FDF7CE
:104AC0009FFEFEF7A9F9FCF719F8FBF765FE2648EB
:104AD000FDF7B2FAFEF72EF9244D0020C5F8B80212
:104AE0009FED238ADFF88C80234CDFED248A244F4E
:104AF000244E00BF94ED000A30EE080A10EE100AB2
:104B000084ED000A404501DDC4ED008AB7F9EC02EE
:104B10000C2100EE100AB8EEC00A86ED000AB7F9C3
:104B2000EA0200EE100AB8EEC00A86ED010AB7F9F3
:104B3000580400EE100A1348B8EEC00A86ED020AC7
:104B400000F02CF86420FFF729FFD5F8B802C04325
:104B5000C5F8B802CEE7000054030020340200205C
:104B60001E000020F4010020680100200080424265
:104B7000CDCCCC3DC3F5484004000020C3F548C06F
:104B80007C0300208800002000F1580C8CE80E0007
:104B900080EC030A704780EC030A704770B5064644
:104BA0000D460024242000F08BF82846FBF7D3FCA8
:104BB0009FED091B53EC112BFBF7ECFBFBF7D8FC2B
:104BC000C0B200F07DF804E0305D00F079F8641CBC
:104BD00064B2AC42F8DB70BD000000000000D03FC2
:104BE0001D480188C1F30A0200F11201A2F580629A
:104BF0000A804278D308827843EA4213C3F30A0357
:104C0000A3F580634B80C378920942EA830302795B
:104C100043EA8223C3F30A03A3F580638B8053081E
:104C2000427943EAC213C3F30A03A3F58063CB803E
:104C300093090B72C2F301124A72C2884A81028937
:104C40008A814289CA81027B0A74427B4A74C28982
:104C50004A82008A888270475403002070B5174C3E
:104C600000204FF4FA712085A4F89C01A4F81013D9
:104C7000A4F884045FF00205C5EB451000EB40008A
:104C800004EB8006B6F9280000EE100AB6F902001F
:104C9000F8EEC00A00EE100A06F12C00B8EEC00AC9
:104CA000FEF766FCBDEEC00A6D1CEDB210EE100AF8
:104CB000032DA6F87001DFD370BD00007C03002037
:104CC000044909680A68D2435206FBD402490860C5
:104CD00070470000F4010020044C0040000610164C
:104CE000000610160000000000000000010203048E
:104CF0000607080900000000010203041C4D00081B
:104D00000000002040000000784000085C4D0008D2
:104D10004000002010100000884000080000000043
:104D20000000000000000000000000000000000083
:104D30000000000000000000000000000000000073
:104D40000000000000000000010000001000000052
:0C4D5000000000000024F400000000003F
:04000005080001AD41
:00000001FF
