:020000040800F2
:10000000F8100020C101000857390008552C0008DD
:1000100055390008E90700084544000800000000C1
:10002000000000000000000000000000773A000817
:10003000450B000800000000753A0008793A0008F6
:10004000DB010008DB010008DB010008DB01000820
:10005000DB010008DB010008DB010008DB01000810
:10006000DB010008DB010008DB010008DB01000800
:10007000DB010008DB010008DB010008DB010008F0
:10008000DB010008DB010008DB010008350800087F
:1000900029080008DB010008DB010008DB0100087B
:1000A000DB010008DB010008DB010008DB010008C0
:1000B000DB010008DB010008DB010008DB010008B0
:1000C000DB010008DB010008DB010008DB010008A0
:1000D000DB010008DB010008ED430008DB0100083C
:1000E000DB010008DB010008DB010008DB01000880
:1000F000DB010008DB010008DB010008DB01000870
:10010000DB010008DB010008DB010008DB0100085F
:10011000A53E0008DB010008853B0008DB01000864
:10012000DB010008DB010008950A0008DB0100087C
:10013000DB010008DB010008DB010008DB0100082F
:10014000DB010008DB010008DB010008DB0100081F
:10015000DB010008DB010008DB010008194400088E
:10016000DB010008DB010008DB010008DB010008FF
:10017000DB010008DB010008DB01000800000000D3
:10018000DB010008DB010008DB010008DB010008DF
:10019000DB010008DB010008DB010008DB010008CF
:1001A0000000000000000000DB010008DFF80CD0B8
:1001B00000F008FB004800470D4C0008F810002034
:1001C0000648804706480047FEE7FEE7FEE7FEE7F1
:1001D000FEE7FEE7FEE7FEE7FEE7FEE7313B00084D
:1001E000AD0100082DE9F05F0546002092469B46D0
:1001F00088460646814640241BE02846414647463D
:10020000224600F029FA53465A46C01A914110D3AB
:1002100011461846224600F010FA2D1A67EB010825
:100220004F4622460120002100F007FA17EB000993
:100230004E41201EA4F10104DFDC484631462A4627
:100240004346BDE8F09F2DE9FE4F804681EA03005A
:10025000C00F0C46009021F0004123F00045B8EBA0
:100260000200A94105D24046214690461C460B4655
:10027000024623F00040104347D0270DC7F30A0081
:10028000C3F30A510290401A019040286BDAC3F37D
:10029000130040F4801B0098924620B10023D2EB5B
:1002A000030A63EB0B0B01985946C0F1400250461C
:1002B00000F0C3F906460D4650465946019A00F033
:1002C000DBF910EB08006141002487EA115284EA4F
:1002D000E7731A4340D0009A62B3019A012A4FEAA9
:1002E000075215DC001B61EB02014FF0004202EAED
:1002F0000752CDE90042001C41F5801132462B46E1
:1003000000F012FA03B0BDE8F08F40462146F9E74D
:10031000001B61EB0201001C41F5801300185B41DA
:100320002018A2F5001747EB030140EAD570B61973
:100330006D4111E06D084FEA360645EAC0754FEA97
:100340000752001B61EB0201001C41F580114908B6
:100350004FEA30000019514132462B4603B0BDE848
:10036000F04F00F0D2B90098012240000023D0EBFA
:10037000020263EBE073009821464FEAE074B8EBA9
:10038000000061EB0401E9E783F000435BE781F0E3
:10039000004158E72DE9FE4F81EA030404F00044D0
:1003A00021F0004100944FF0000B23F0004350EA8D
:1003B00001045ED052EA03045BD0C3F30A54C1F3D4
:1003C0000A552C44A4F2F3340194A0FB0254C1F367
:1003D000130141F48011C3F3130343F4801301FBB1
:1003E000024400FB034E840A970A44EA815447EA18
:1003F0008357A4FB076802958D0A05FB07854FEA22
:10040000932C04FB0C542705029D4FEA065847EA3B
:100410001637B5EB08056EEB070C870E920E47EA10
:10042000811742EA8312A7FB0201B6EB0B0164EBD2
:1004300000042B0D43EA0C335E1844EB1C50DA46E3
:100440005146E7FB0201C5F313044FEA0B3343EABD
:1004500014534FEA0432019C43EA0603A4F10C044E
:100460000294009CCDE900B400F05EF903B0BDE851
:10047000F08F00200146F9E72DE9F04D81EA0304F1
:1004800004F0004B21F0004514464FF0000A23F021
:10049000004150EA050220D054EA01021DD0C5F304
:1004A0000A570246C5F31303C1F31300C1F30A56FA
:1004B00040F4801543F48013A7EB0608101BD646C2
:1004C00008F2FD3873EB050002D308F1010801E0E2
:1004D00092185B41B8F1000F03DA00200146BDE835
:1004E000F08D00204FF48011064684460EE0171B65
:1004F00073EB050705D3121B63EB050306434CEAB8
:10050000010C49084FEA300092185B4150EA01079C
:10051000EDD152EA030012D082EA040083EA050119
:10052000084305D0101BAB4106D20122002306E090
:1005300000224FF0004302E06FF0010253101AEB6B
:1005400006004CEB085110EB0A0041EB0B01BDE833
:10055000F04D00F0DAB80EB5C10F80EAE070084443
:10056000CA07002140F233438DE80E000A460B46CD
:1005700000F0DAF803B000BD0EB540F2334102914D
:100580000021CDE900110A460B4600F0CDF803B07A
:1005900000BD70B5C1F30A5201F000450024C1F35B
:1005A000130140F2FF3341F480119A4201DA002036
:1005B00070BD40F233439A42A2F2334203DC52420E
:1005C00000F04AF800E090402C43F1D0404270BD6A
:1005D000C1F30A5210B5C1F3130140F2FF3341F4E5
:1005E00080119A4201DA002010BD40F233439A4252
:1005F000A2F2334203DC524200F02EF810BD9040CC
:1006000010BD01F0004330B421F0004150EA010276
:1006100006D00A0DA2F56072C1F31301002A02DCB4
:1006200030BC00207047440F44EAC104C100E01808
:1006300030BC00EBC25000F031B8202A04DB203A75
:1006400000FA02F1002070479140C2F1200320FA25
:1006500003F3194390407047202A04DB203A21FA23
:1006600002F00021704721FA02F3D040C2F12002CB
:100670009140084319467047202A06DBCB17203AE1
:1006800041FA02F043EAE07306E041FA02F3D04097
:10069000C2F1200291400843194670470029A8BFC3
:1006A0007047401C490008BF20F00100704710B49B
:1006B000B0FA80FC00FA0CF050EA010404BF10BC50
:1006C000704749B1CCF1200421FA04F411FA0CF17D
:1006D00018BF012121430843A3EB0C01CB1D4FEAB6
:1006E00000614FEA102042BF002010BC704700EBB1
:1006F000C35010440029A4BF10BC7047401C4900DF
:1007000008BF20F0010010BC704710B5141E73F133
:10071000000408DA401C41F1000192185B411A43C1
:1007200001D120F0010010BD2DE9F04D92469B460D
:1007300011B1B1FA81F202E0B0FA80F220329046B3
:10074000FFF77BFF04460F4640EA0A0041EA0B012F
:1007500053465A46084313D0114653EA010019D0B4
:10076000C8F140025046FFF777FF05460E46504657
:1007700059464246FFF761FF084305D0012004E0D7
:1007800020463946BDE8F08D0020054346EAE07674
:100790002C4337430A986305E40AA0EB08000022C3
:1007A000FD0A44EA47540A3002D500200146E9E731
:1007B000010510196941DDE9084500196941BDE8E5
:1007C000F04DA2E7064C074D06E0E06840F001035B
:1007D00094E8070098471034AC42F6D3FFF7EAFCE0
:1007E000704E0008904E0008FEE7000000B58BB088
:1007F00000200121CDE906010390089104900090AA
:100800000E2101900290099105906946054800F07B
:1008100047FA0221034800F0CBF9024800F022FD1C
:100820000BB000BD04010020014800F03DBB0000FA
:1008300004010020014800F037BB00000401002043
:10084000F0B50568002201230A247E48A5F201259F
:10085000072D2ED2DFE805F0042E67A0D9E4EE00C4
:100860000D886DBA05804D886DBA45808D886DBA4A
:100870002DB285808979C180416A4E1971494662DD
:1008800090F808C08F7FBCF1010F01EB470103D145
:10089000B1F90A70F61B46624D81817F491CC9B2CD
:1008A0008177092901D982770372416A91FBF4F1BA
:1008B0000184F0BD0D886DBAA0F880514D886DBAE5
:1008C000A0F882518D886DBA2DB2A0F88451897933
:1008D000A0F88611D0F8A4114E195A49C0F8A461A5
:1008E00090F888C191F89E71BCF1010F01EB4701AE
:1008F00004D1B1F98A71F61BC0F8A461A1F88A513C
:1009000090F89E11491CC9B280F89E11092903D99B
:1009100080F89E2180F88831D0F8A41191FBF4F181
:10092000A0F8A011F0BD0D886DBAA0F800534D8855
:100930006DBAA0F802538D886DBA2DB2A0F8045399
:100940008979A0F80613D0F824134E193D49C0F850
:10095000246390F808C391F81E73BCF1010F01EBFA
:10096000470104D1B1F90A73F61BC0F82463A1F85A
:100970000A5390F81E13491CC9B280F81E130929A6
:1009800003D980F81E2380F80833D0F8241391FB94
:10099000F4F1A0F82013F0BD0D882A4F6DBAA0F82D
:1009A00080544D886DBAA0F882548D886DBA2DB2EE
:1009B000A0F884548979A0F88614D0F8A4144E19AC
:1009C000C0F8A46490F888C497F89E14BCF1010F95
:1009D00007EB410104D1B1F98A74F61BC0F8A46495
:1009E000A1F88A5490F89E14491CC9B280F89E144C
:1009F000092903D980F89E2480F88834D0F8A414FB
:100A000091FBF4F1A0F8A014F0BD088842BA0E489A
:100A100002804A8852BA4280898849BA8180F0BDF2
:100A2000088842BA094802804A8852BA42808A88B5
:100A300052BA8280088842BA05480280498849BA79
:100A40004180F0BDC0030020C0090020400B002001
:100A5000C00C002030B40D4B40F2FF141C60002489
:100A60009C60DC6008241C61094B040A1C705870EF
:100A7000080A9870D970100A18715A7103491B1F1F
:100A800030BC1A1D01F1180000F0A6B8EC000020DF
:100A900050000020014800F02BBC0000380300206B
:100AA00001681823CAB2103AB2FBF3F2054B6FF398
:100AB0000901032A9B5CC36500D9091D81650846AD
:100AC00070470000B04D000810B5014600208B694A
:100AD0008A6A4FF0C07453B1B3F5005F15D072B19C
:100AE000012A0CD0022A0AD0032A09D104E01AB143
:100AF000012A06D0022A03D1C96AC90100D5012002
:100B000010BDC96AA142FAD010BD002AF7D0012A4F
:100B1000F2D0022AF3D0032AF3D010BD30B5046816
:100B2000256825F480252560046863608368402B70
:100B3000036803D099600068C26030BD9A600068A5
:100B4000C16030BD704700002DE9F05FDFF85C80C8
:100B5000142400273E463D4608F1340B08F1320AC2
:100B600008F1300910E05A465146484602F094FB1D
:100B7000B8F93010B8F934000F44B8F93210054410
:100B80000E44642003F0C8FF641EECD2142197FBCE
:100B9000F1F2404620F8422F96FBF1F295FBF1F17D
:100BA0004280A8F84610BDE8F09F00007C000020BD
:100BB00090F82020012A09D090F82020022A05D0A0
:100BC000416A41F480214162012070470068426916
:100BD0000A43426100207047F0B590F82040012C94
:100BE00007D090F82040022C03D0416A41F48021C4
:100BF00053E00468A5686D0105D4A5682D0102D4F1
:100C0000A568ED0046D5A4680125C4F30164A5409C
:100C10001D608D684FF4C0739DB1CE6835434E683A
:100C200045EAC605066803EB0417F5514FF4C27593
:100C3000076805EB04150E697E51097D012905D071
:100C400009E00E88CD6845EA4655EBE701684E5944
:100C500046F480764E511179D2F805504FF4C6769D
:100C600041EA0521056806EB0416A9511178D2F86E
:100C700001204FF4C47541EA0221026805EB041516
:100C80005151006803EB0411425842F001024250F6
:100C90000020F0BD416A41F4001141620120F0BD25
:100CA00010B590F82020012A09D090F82020022ABF
:100CB00005D0416A41F480214162012010BD3A48CB
:100CC000D0F8002242F00102C0F80022D0F8002241
:100CD00022F47C52C0F80022D0F800224B6A42EA8B
:100CE0000322C0F800220B7D01229A40D0F81C326A
:100CF0009343C0F81C32CB69B3B9D0F80C3293439C
:100D0000C0F80C328C894B6864F31F434C6900EBCC
:100D1000C404C4F840320C890B6864F31F434C6967
:100D200000EBC404C4F84432CB69012B16D1D0F8CF
:100D30000C321343C0F80C320C884B6864F31F4329
:100D40004C6900EBC404C4F840320C89CB6864F3EE
:100D50001F434C6900EBC404C4F844328B69002B78
:100D6000D0F804320ED01343C0F804320B69002BC4
:100D7000D0F8143208D01343C0F81432096A01299C
:100D800004D008E09343EFE79343F5E7D0F81C1253
:100D90001143C0F81C12D0F8001221F00101C0F874
:100DA0000012002010BD000000640040704730B504
:100DB00090F82040012C07D090F82040022C03D05E
:100DC000416A41F4802109E011B1012909D00CE008
:100DD0000468E46807E0416A41F4001141620120BF
:100DE00030BD04682469A407F5D04FF4D8740568B1
:100DF00004EB01142D5915F00405956005682D5973
:100E000042D0ED08556005682C59C4F34004D46005
:100E10004FF4DA74056804EB01142D5905F00F0541
:100E2000156105682D59C5F30725956105682C598D
:100E3000240C54614FF4DC72046802EB0112A458D4
:100E40001C700468A458240A5C700468A458240C1C
:100E50009C700468A258120EDA704FF4DE720468B7
:100E600002EB0112A4581C710468A458240A5C7196
:100E70000468A458240C9C710468A258120EDA71FC
:100E800029B1012909D00DE06D0D1560BBE700689F
:100E9000C16841F02001C16004E00068016941F0CF
:100EA00020010161002030BD2DE9F05F054600689A
:100EB00000244669D0F804908768D0F80CB0D0F8C8
:100EC00010A0D0F81880F10748D0F90714D00121FC
:100ED0008160B80703D5284600F0F1F90CE07807E7
:100EE00002D54FF4006407E0380702D54FF4805470
:100EF00002E0284600F0E2F9F80516D529684FF41B
:100F000080708860B80503D5284600F0DAF90CE057
:100F1000780502D544F4005407E0380502D544F4BE
:100F2000804402E0284600F0CBF9F80316D5296882
:100F30004FF480308860B80303D5284600F0C3F929
:100F40000CE0780302D544F4004407E0380302D5EE
:100F500044F4803402E0284600F0B4F9300707D5A5
:100F60005FEACB6004D52968102044F40074C8609F
:100F700070074FF0080707D55FEA0B7004D52868A3
:100F8000C760284600F050F9B00706D52868C06849
:100F9000800702D0284600F049F9700607D55FEABD
:100FA000CA6004D52968102044F480640861B00642
:100FB00007D55FEA0A7004D528680761284600F063
:100FC0004DF9F00606D528680069800702D028464A
:100FD00000F045F9B00308D55FEAC96005D5296876
:100FE00010204860284600F03BF9F00307D55FEA7F
:100FF000097004D528684760284600F065F9300478
:1010000046D55FEA497040D5F00504D55FEAC8705F
:1010100001D044F00104B00504D55FEA887001D521
:1010200044F00204700504D55FEA487001D544F02D
:101030000404300529D518F0700F26D008F0700090
:10104000402815D006DC102809D020280AD03028E6
:1010500016D10AE050280ED0602811D10EE044F0DD
:1010600008040DE044F010040AE044F0200407E016
:1010700044F0400404E044F0800401E044F480744F
:101080002868816921F07001816129680420486025
:10109000002C05D0686A204368622846FFF786FE68
:1010A000BDE8F09F70B5040003D094F8200010B1A3
:1010B00004E0012070BD204600F082F8206801683D
:1010C00021F00201016000F087FB0546052604E0DF
:1010D00000F082FB401B0A2811D820684068800776
:1010E000F6D42068016841F00101016000F074FB52
:1010F00005460BE000F070FB401B0A2806D9606A29
:1011000040F40030606284F82060D2E720684068D4
:10111000C007EFD0207E0128206801683DD021F073
:1011200080010160607E01282068016838D021F0CC
:1011300040010160A07E01282068016833D021F0C1
:1011400020010160E07E0128206801682ED041F076
:1011500010010160207F01282068016829D021F05A
:1011600008010160607F01282068016824D021F017
:1011700004010160D4E902010843D4E904121143D7
:1011800008436168491E08432168C8610020606205
:10119000012084F82000002070BD41F08001C0E7EC
:1011A00041F04001C5E741F02001CAE721F01001FC
:1011B000CFE741F00801D4E741F00401D9E700008E
:1011C00000B50068154987B0884225D11448002130
:1011D000026842F0007202600068022200F00070B3
:1011E00005900320CDE90210CDE90002092004900A
:1011F00069460C4800F004FA00221146132000F062
:10120000C7FB132000F0B9FB00220121142000F0DD
:10121000BFFB142000F0B1FB07B000BD006400402C
:1012200040380240000C02407047000010B5084AE8
:10123000016891420AD1074B074A0021FFF7B7FD29
:10124000BDE8104003490448FFF7FABA10BD00009A
:1012500000640040580000202C01002070477047B7
:101260007047000070B5044690F82000012804D0B3
:10127000606A40F40020606218E0022084F82000D8
:101280002068016821F00101016000F0A5FA05461F
:101290000EE000BF00F0A0FA401B0A2808D9606ADF
:1012A00040F400306062052084F82000012070BD09
:1012B00020684068C007EDD1606270BD704770471C
:1012C0007047704770477047704790F83510022993
:1012D00003D08021416501207047052180F8351039
:1012E0000068016821F001010160002070470000E2
:1012F0002DE9F84304464FF00009CDF8009063480B
:101300004FF41651A56D0068B0FBF1F72E6894F804
:101310005C10082000FA01F131420FD021680A6800
:1013200052070BD50A6822F004020A6094F85C1098
:101330008840A860606D40F00100606594F85C1022
:101340004FF0010808FA01F0304208D021684969DD
:10135000090604D5A860606D40F00200606594F84D
:101360005C1004208840304208D021680968890751
:1013700004D5A860606D40F00400606594F85C10CE
:1013800010208840304218D021680968090714D518
:10139000A86020680168490304D50068000308D5E7
:1013A000A16C07E00168C90503D4016821F00801B8
:1013B0000160216C09B12046884794F85C10202018
:1013C0008840304231D021680968C9062DD5A8600F
:1013D00094F8350005282068016806D0490347D5F0
:1013E000006800031DD4616C1CE021F0160101604F
:1013F0002068416921F080014161206C08B9A06C2E
:1014000020B12068016821F00801016094F85C10A7
:101410003F208840A86084F8349084F83580216D9E
:101420001FE0E16B09B120468847606D00282BD092
:10143000606DC00714D0052084F83500206801686D
:1014400021F0010101600098401C0090B84203D8CF
:1014500020680068C007F6D184F8349084F835809D
:10146000E16C002910D001B02046BDE8F0430847E8
:101470000168C905D5D4016821F01001016084F824
:10148000349084F83580CCE7BDE8F8837400002000
:101490002DE9F041044600F09FF906465CB10025B5
:1014A00084F83450022084F835002068016821F067
:1014B000010101600DE00120BDE8F08100F08CF930
:1014C000801B052805D920206065032084F835009D
:1014D000F2E720680068C007F0D122681168204850
:1014E0000140D4E901031843D4E9033633431843D8
:1014F00063691843A3691843E3691843236A1843CF
:101500000843616A042903D1D4E90B131943084342
:10151000106020684069666A20F0070130460E437B
:10152000012704280CD1A06A0643E06A40B1204696
:10153000FFF7CAFA20B14020606584F83570BAE739
:10154000206846612046FFF7ABFA94F85C203F2103
:1015500091408160656584F835700020ACE700003B
:101560003F8010F02DE9F0410446866D90F834007C
:10157000002501280DD0012084F8340094F835703E
:101580000020012F07D084F8340002252846BDE84A
:10159000F0810220FBE7022784F835706065204661
:1015A000FFF7BCFA94F85C103F208840B0602068D8
:1015B000016841F0160101602068416941F0800135
:1015C0004161206C20B12068016841F00801016090
:1015D0002068016841F001010160D7E770B5044659
:1015E00000F0FAF80546601C02D004480078044474
:1015F00000F0F2F8401BA042FAD370BD6800002052
:101600002DE9F84FDFF890B100224FF001084FF0BC
:10161000030A4FF00F090BF1040E00BF0B6808FA24
:1016200002F42340A3426ED14D68022D01D0122D49
:101630000ED1D50800EB850CDCF820505607F70ECC
:1016400009FA07F6B5430E69BE402E43CCF8206078
:10165000066855000F790AFA05FC07F0030726EA29
:101660000C06AF40374307604E68012E05D0022EAE
:1016700003D0112E01D0122E0ED18768CE6827EA32
:101680000C07AE403E4386604668A6430C79C4F31F
:101690000014944034434460C4688E6824EA0C0407
:1016A000AE402643C6604C68E4006FD53B4C2568CD
:1016B00045F480452560246822F0030504F4804445
:1016C0000094374C2E19D6F8084895072F0F09FAC1
:1016D00007F5AC43334DA84201D100252EE0324D31
:1016E000A84201D1012529E0304DA84201D10225AF
:1016F00024E02F4DA84201D103251FE02D4DA84223
:1017000002D104251AE041E02B4DA84201D1052564
:1017100014E02A4DA84201D106250FE0284DA84229
:1017200001D107250AE0274DA84201D1082505E08F
:10173000254DA84201D1092500E00A25BD402543D9
:10174000C6F80858DBF800405D464E689C43F60337
:1017500000D51C432C60DEF8004075464E689C4363
:10176000B60300D51C432C600B4D08352C684E6821
:101770009C43F60200D51C432C60074D0C352C68A9
:101780004E689C43B60200D51C432C60521C102AA4
:10179000FFF444AFBDE8F88F003C014044380240FC
:1017A00000300140000002400004024000080240F6
:1017B000000C0240001002400014024000180240D9
:1017C000001C024000200240002402400AB1816156
:1017D00070470904FBE7000001488068704700007B
:1017E00068000020024881680278114481607047D7
:1017F000680000200B4810B5016841F400710160D9
:10180000016841F480610160016841F48071016008
:10181000032000F0DDF8002000F006F800F024F8C6
:10182000002010BD003C024070B50D4D04464FF441
:101830007A712878B1FBF0F00A490968B1FBF0F041
:1018400000F09BFB48B9102C07D200222146501E05
:1018500000F09EF800206C6070BD012070BD00009B
:1018600068000020740000201F4808B5016841F49A
:1018700080410160006800F4804000901A48001F19
:10188000016841F080510160006800F080500090D4
:10189000032000F09DF8002211466FF00B0000F0CD
:1018A00077F8002211466FF00A0000F071F800226C
:1018B00011466FF0090000F06BF800221146501F2E
:1018C00000F066F800221146101F00F061F80022B7
:1018D0001146901E00F05CF80022BDE80840114659
:1018E000501E00F055B80000443802402DE9F04188
:1018F00016460F46040004D094F83900002518B1AC
:1019000007E00120BDE8F08184F83850204600F05F
:1019100033FF242084F839002068C16821F4005185
:10192000C160204602F0A8FB2068016921F49041C3
:1019300001612068416921F02A0141612068016943
:1019400021F00F01016120680169394301612068BC
:10195000C16821F40061C1602068C1683143C16081
:101960002068C16841F40051C160E563202084F81B
:10197000390084F83A000020C4E700F01F0201217A
:1019800091404009800000F1E020C0F8001170474C
:10199000F0B40E4B1B680C46C3F30223C3F10705DA
:1019A000042D00D90425191D072901D2002300E0C8
:1019B000DB1E012606FA05F1491E214099409E4092
:1019C000761E16403143F0BC01F0C6BF0CED00E0BE
:1019D000064900F0070208684FF6FF03184040EA86
:1019E0000220034A10430860704700000CED00E03D
:1019F0000000FA052DE9F8431748016841F08051CD
:101A000001600068154F00F08050012600903E6490
:101A1000FFF7E2FE05464FF47A78114C05E000BF6F
:101A2000FFF7DAFE401B40450DD86068C003F7D5CC
:101A30007E64FFF7D1FE0546464607E0FFF7CCFE81
:101A4000401BB04202D90320BDE8F88360688003E0
:101A5000F4D50020F8E700004038024000000E42B4
:101A6000007000402DE9F0470E46050065D0DFF814
:101A70001481D8F80000F7B200F00F00B04207D28E
:101A800088F80070D8F8000000F00F00B04254D180
:101A900028683D4C810712D5400703D5206840F4E3
:101AA000E05020602878000703D5206840F46040AB
:101AB00020602068A96820F0F000084320602878A2
:101AC000C0072DD0304968680839012812D0022893
:101AD00013D0032811D00968890700292DDA21685D
:101AE00021F0030101432160FFF776FE814641F2B8
:101AF000883A0EE009688903EFE709688901ECE795
:101B0000FFF76AFEA0EB0901514502D90320BDE8A9
:101B1000F0872068696800F00C00B0EB810FEFD10E
:101B2000D8F80010404601F00F01B14207D9077004
:101B3000006800F00F00B04201D00120E7E72878EC
:101B4000400705D52068E96820F4E050084320608C
:101B50002878000706D52068296920F4604040EA0B
:101B6000C100206000F03CF82168084AC1F303116D
:101B7000515CC840064908600020FFF755FE002070
:101B8000C5E70000003C024008380240B84D00089C
:101B900074000020014800687047000074000020B5
:101BA0000448054900680968044AC1F38221515C70
:101BB000C84070477400002008380240C84D000833
:101BC0000448054900680968044AC1F34231515C80
:101BD000C84070477400002008380240C84D000813
:101BE000154810B5006810F00C02144813D01449C1
:101BF000042A0FD0082A0ED10F4C241F2268236814
:101C000002F03F025B0207D52068C0F38810A0FBFA
:101C1000010106E0084610BD2168C1F38811A1FB4F
:101C200000010023FEF7DEFA2168C1F30141491CDF
:101C30004900B0FBF1F010BD083802400024F40068
:101C4000001BB7002DE9F84F050076D02878DFF8A3
:101C5000F8B2BE4CC00749D0DBF800105846C1F3BB
:101C60008101012908D00068C0F3810002280AD14F
:101C7000201D0068400206D52068800336D56868BC
:101C80000028E2D032E06868B0F5803F10D0B0F5AF
:101C9000A02F206810D020F480302060206820F42D
:101CA000802020606868A0B1FFF796FD06460CE032
:101CB000206840F48030F4E740F480202060F7E7AB
:101CC000FFF78AFD801B642873D820688003F7D54E
:101CD0000CE0FFF781FD064605E000BFFFF77CFD45
:101CE000801B6428F0D820688003F7D42878DFF8B8
:101CF000608280074FF000093ED5DBF8001058469F
:101D000011F00C0F09D00068C0F3810002280BD13C
:101D10008D48001F0068400206D42068800715D552
:101D2000E868012809D111E0E868B8B10120C8F8D5
:101D30000000FFF751FD064605E002E1FFF74CFD0C
:101D4000801B0228C0D820688007F7D52068296941
:101D500020F0F80040EAC10020600DE0C8F80090D3
:101D6000FFF73AFD064604E0FFF736FD801B022828
:101D70001FD820688007F7D42878000722D5724E34
:101D8000744869696C3671B101210160FFF724FD67
:101D9000074604E0FFF720FDC01B022809D8306881
:101DA0008007F7D50EE0C0F80090FFF715FD074655
:101DB00005E083E0FFF710FDC01B02287ED83068E5
:101DC0008007F7D42878400768D5DFF87CA1002782
:101DD0000AF1380ADAF80000C0000BD4DAF8001073
:101DE00041F08051CAF80010DAF80000012700F035
:101DF00080500090584E3068C00510D4306840F4D0
:101E000080703060FFF7E8FC009005E0FFF7E4FC2D
:101E10000099401A022851D83068C005F6D54A4EBC
:101E2000A868683601280FD00528306810D020F047
:101E300001003060306820F004003060A868B8B15C
:101E4000FFF7CAFC00900FE0306840F00100F4E7B3
:101E500040F004003060F7E7FFF7BEFC0099411A3C
:101E600041F28830814264D830688007F4D50EE0B2
:101E7000FFF7B2FC009007E0FFF7AEFC0099411AB3
:101E800041F28830814254D830688007F4D42FB1B1
:101E9000DAF8001021F08051CAF80010A869C0B328
:101EA000DBF80010C1F3810102294AD0022848461C
:101EB00007D0C8F86000FFF78FFC00E039E0054666
:101EC0003AE04746C8F86000FFF786FC064604E0A3
:101ED000FFF782FC801B02282BD820688001F7D4F2
:101EE000D5E907010843A96A1C4A490802EB0141E8
:101EF0006A6A41EA8211084395F82C1040EA0161B0
:101F00001148001F016001203866FFF765FC054697
:101F100005E014E0FFF760FC401B022809D82068A8
:101F20008001F7D50BE000BFFFF756FC401B0228ED
:101F300002D90320BDE8F88F20688001F4D4002086
:101F4000F8E70120F6E700000838024000380240B8
:101F500000004742800E4742007000400000FFFF33
:101F60004FF0E0210428086903D020F00400086144
:101F7000704740F00400FAE7704710B5401EB0F11A
:101F8000807F01D3012010BD4FF0E02460610F215C
:101F9000601701F0E1FC0020A06107202061002013
:101FA00010BD10B5FFF7E8FF10BD7047704730B5A2
:101FB00090F83820012A20D0012280F8382002230E
:101FC00080F8393003685C6824F070045C60036852
:101FD0005C680D682C435C6003689C6824F0800496
:101FE0009C6003689C6849680C439C6080F83920B9
:101FF000002180F83810084630BD022030BD10B5F1
:10200000040003D094F8390010B107E0012010BD9E
:10201000002084F83800204600F00CF8022084F8F4
:102020003900211D206801F0B3FD012084F839003A
:10203000002010BD08B5174A01681748914207D122
:10204000016841F002010160006800F0020009E04F
:10205000124A914208D1016841F004010160006810
:1020600000F00400009008BD0D4A914207D10168BC
:1020700041F010010160006800F01000F2E7094A29
:102080009142F0D1016841F040010160006800F028
:102090004000E7E7000400404038024000080040EC
:1020A00000100040001800400168CA6842F00102B8
:1020B000CA600068016841F00101016000207047BA
:1020C00070B5044690F83800012817D0012584F82F
:1020D0003850022084F839002068826822F07702A4
:1020E00022F47F4282600868502837D00DDC202817
:1020F00059D005DC88B3102841D151E0022070BDD1
:10210000302853D040283AD13FE060282ED07028A4
:102110000BD0B0F5805F03D0B0F5005F2FD110E099
:102120002068816821F0070115E0CB68D1E9012121
:10213000206801F08DFD2168886840F07700886094
:102140001DE0CB68D1E90121206801F081FD206804
:10215000816841F48041816011E01EE0CA684968ED
:10216000206801F03DFE5021206806E0CA684968F9
:10217000206801F046FE6021206801F073FD84F8BC
:102180003950002084F8380070BDCA68496820685A
:1021900001F026FE40212068EFE700212068ECE7EF
:1021A00010212068E9E720212068E6E73021206837
:1021B000E3E7704770B50446006801694FF0000519
:1021C000C943890715D4C168C943890711D4E91ED9
:1021D000016101202076206880698007204602D0B6
:1021E000FFF7E7FF04E000F0D5F8204600F057F9CC
:1021F000257620680169C943490717D4C168C943D6
:10220000490713D46FF00401016102202076206891
:10221000806910F4407F204602D0FFF7CAFF04E037
:1022200000F0B8F8204600F03AF9257620680169F8
:10223000C943090716D4C168C943090712D46FF00E
:1022400008010161042020762068C06980072046CB
:1022500002D0FFF7AEFF04E000F09CF8204600F04B
:102260001EF9257620680169C943C90617D4C168DB
:10227000C943C90613D46FF010010161082020760C
:102280002068C06910F4407F204602D0FFF791FF1C
:1022900004E000F07FF8204600F001F92576206880
:1022A0000169C943C90708D1C168C943C90704D135
:1022B000891E0161204600F0F3F820680169C943D6
:1022C000090609D4C168C943090605D46FF0800125
:1022D00001612046FFF769FE20680169C94349068C
:1022E00009D4C168C943490605D46FF040010161B2
:1022F000204600F07FF920680169C94389060BD4A4
:10230000C168C943890607D46FF0200101612046E6
:10231000BDE87040FFF74ABE70BD000000B5174928
:102320000268022085B08A420AD11021CDE900104E
:10233000012102910321CDE90310694610480BE009
:10234000104B00219A420BD192140092CDE9010169
:10235000CDE9031069460C48FFF752F905B000BDFE
:102360000A4B9A42FAD14FF410720092CDE9010162
:102370000920CDE9031069460548EDE70004004057
:102380000004024000080040000C02400018004019
:10239000001C0240704770B5044690F838000D46A6
:1023A00001280DD0012684F83860022084F8390015
:1023B00042B1042A18D0082A2AD00C2A4DD139E07B
:1023C000022070BD206801F055FC2068816941F051
:1023D000080181612068816921F004018161206820
:1023E00081692A69114311E0206801F06FFC2068BF
:1023F000816941F4006181612068816921F4806113
:102400008161206881692A6941EA0221816124E0B1
:10241000206801F08DFC2068C16941F00801C161AC
:102420002068C16921F00401C1612068C1692A697D
:10243000114311E0206801F0ABFC2068C16941F450
:102440000061C1612068C16921F48061C1612068B7
:10245000C1692A6941EA0221C16184F8396000201A
:1024600084F8380070BD10B5040003D094F839002A
:1024700010B107E0012010BD002084F8380020468C
:1024800000F00CF8022084F83900211D206801F0CA
:102490007FFB012084F83900002010BD7047704791
:1024A00010B549492DED0A8B006888427ED1474915
:1024B000087800287BD00020454C08709FED45CB64
:1024C0009FED46AB9FED47BB90B302F065FBB4F9BF
:1024D00032004042FEF73FF853EC1C2BFDF7CCFFD7
:1024E000FEF78FF808EE100AB4F91000FEF733F883
:1024F00041EC190BB4F90C00FEF72DF841EC100B70
:10250000B0EE491AF0EE691A02F02AF953EC1A2BD0
:1025100051EC100BFDF73EFF53EC1B2BFDF7ACFF0E
:10252000FEF76FF800EE100AF0EE480A00F0B2FC79
:1025300002F032FBB4F932004042FEF70CF853ECE3
:102540001C2BFDF799FFFEF75CF808EE100AB4F9B2
:102550001000FEF700F841EC190BB4F90C00FDF780
:10256000FAFF41EC100BB0EE491AF0EE691A02F0D6
:10257000F7F853EC1A2B51EC100BFDF70BFF53EC53
:102580001B2BFDF779FFFEF73CF800EE100AF0EE8A
:10259000480A00F07FFC00F0F1FC00F05BFD1348FE
:1025A000B0F97C111248B0F97C0101E009E006E0C5
:1025B000BDEC0A8B0022BDE81040FEF74BBA0120AB
:1025C0007AE7BDEC0A8B10BD0010004063000020CC
:1025D0007C0000206666666666663040000000008B
:1025E0000080664000000040FB210940400B0020B5
:1025F000C00900207047704710F8391F4078084321
:102600007047000070B5026804461068D1685369CD
:1026100010F00F0F50D003F0010501F49076354310
:102620005DD0C20705D0CA0503D5E26B42F00102B6
:10263000E263420705D5DA0703D0E26B42F00202FB
:10264000E263820705D5DA0703D0E26B42F00402A9
:10265000E263020705D5DA0703D0E26B42F0080215
:10266000E263E26B002A33D0800604D5880602D5E7
:10267000204601F094FC20684069E16BC0F38010B3
:10268000090700D428B3204601F072FC2068416994
:1026900049061AD5416921F040014161606BA0B142
:1026A0001B490165606BFEF710FE002810D0606BBF
:1026B000016DBDE870400847830610D58B060ED526
:1026C0002046BDE8704001F06ABC2046FFF793FF4A
:1026D00070BD2046FFF78FFF0020E06370BD03064A
:1026E00006D50B0604D52046BDE8704001F01ABEA1
:1026F0004006F3D54806F1D5D168204621F04001C7
:10270000D160202184F8391000F0A2FA70BD0000D9
:10271000D13E000870B5040004D094F839000025BB
:1027200010B106E0012070BD84F83850204600F05A
:1027300023F8242084F839002068C16821F400516E
:10274000C160204601F098FC2068016921F49041A5
:1027500001612068416921F02A0141612068C16856
:1027600041F40051C160E563202084F8390084F809
:102770003A00002070BD00002DE9F04307460268D2
:102780004F4800244F4903250226DFF83CC187B09B
:102790004FF00808824218D1086840F40020086011
:1027A000086802AA00F400200590CDE90056012037
:1027B00082E8210169466046FEF722FF00220221DD
:1027C0003420FFF7E5F834205FE03E483F4B001D22
:1027D0004FF007099A4230D1016841F010010160C1
:1027E000006802AA00F010000590C020CDE90006A4
:1027F00082E8300269463648FEF702FF364D35481A
:1028000028604FF00060C5E901044014C5E90340A9
:1028100080106C61C5E906404FF44030C5E90804FA
:102820002846FEF735FE18B1C8212CA001F00BFE9A
:102830007D63AF6307B0BDE8F0832C4B9A4227D18C
:102840000868274640F4003008600868CDE9026552
:1028500000F4003005900420CDE900066946644686
:102860006046CDF81090FEF7CBFECDE90275CDE9BC
:10287000008669462046CDF81090FEF7C1FE002282
:1028800003212620FFF784F82620FFF776F8D1E70A
:1028900017498A42CED1016841F0200101600068E9
:1028A00002AA00F0200005904FF48440CDE9000614
:1028B00082E8300169460F48FEF7A2FEBAE7000041
:1028C000004C00404038024000000240001001402F
:1028D0000004024040640240380300202E2E2F5393
:1028E00072632F75736172742E63000000440040A0
:1028F0000014014000180240F8B5044690F83A0070
:1029000020283CD1C1B3BAB394F83800012836D09E
:10291000012084F83800A162A2850025E563222009
:1029200084F83A00636B1748D863636B16481864E1
:10293000636B1648D864606B134605650846666B82
:10294000216802463046091DFEF70CFE206801682A
:102950004168009184F83850C16841F48071C160C9
:102960002068416941F0010141612068416941F0FD
:10297000400141610020F8BDFFE70120FBE7022094
:10298000F9E700002B3F0008673F0008E13E000820
:1029900090F83A30202B1DD1D1B1CAB190F838301F
:1029A000012B17D081628285C2850021C16322225A
:1029B00080F83A2080F8381001684A6942F0010234
:1029C0004A610068C16841F49071C160002070479D
:1029D000012070470220704770B5044600686649C0
:1029E000884201D101F020FA64492068002588421C
:1029F00064D1634C6078092810D2DFE800F0050A42
:102A0000121B242F39424D002078262807D101209F
:102A100003E02078252802D10220607070BD657027
:102A200070BDA188207801EB0021A1804B3020727D
:102A30000320F2E7A18820780144A180217A08448C
:102A400020720420E9E720782D2802D1A18849428C
:102A5000A180217A084420720520DEE7E1882078F1
:102A600001EB0021E180217A084420720620D4E79E
:102A7000E18820780144E180217A0844207207200F
:102A8000CBE720782D2802D1E1884942E180217AE4
:102A9000084420720820C0E7207A21784FF47A7326
:102AA000884201D1522002E0A580E5805720A07025
:102AB0000122A11C334800F06EF8B0E73249884289
:102AC000AED132480278817D02F07F02024451701B
:102AD00001784A0602D14278242AA1D1491C01700A
:102AE00001F07F010829417D827D02D011444175AA
:102AF00070BD91423CD1264A002143181B795354A2
:102B0000491C0429F9DB22498278491E642A21D014
:102B1000692A10D0702A2BD18269D1F80110116076
:102B2000C1782D2924D1816991ED000AB1EE400AC6
:102B300081ED000A1CE08269D1F801105160C17872
:102B40002D2915D1816991ED010AB1EE400A81ED7F
:102B5000010A0DE08269D1F80110D160C1782D29F8
:102B600006D1816991ED030AB1EE400A81ED030AB5
:102B70004575057070BD0000001001400044004024
:102B8000CE0C0020B8020020004C0040D80C0020E1
:102B90006400002070472DE9F843044690F839009E
:102BA0001F4616460D46202850D1A5B19EB194F877
:102BB000380001284AD0012084F838004FF000087E
:102BC000C4F83C80212084F83900FEF705FEA68475
:102BD0008146E68426E00120BDE8F883E08C401EB3
:102BE000E084A0684B46B0F5805F4FF000024FF0E4
:102BF00080012046009703D001F0C5FBE8B90DE045
:102C000001F0C1FBC8B928882168C0F308004860FA
:102C1000206908B16D1C05E0AD1C03E0216815F8C2
:102C2000010B4860E08C0028D8D14B46002240219F
:102C30002046009701F0A7FB08B10320CCE7202035
:102C400084F8390084F838800020C5E70220C3E703
:102C50007047000001A001F0F7FBFBE7657272000E
:102C600070B50D4C0025C4F894520C48016821F44D
:102C700040710160016841F480710160C4F89052B4
:102C8000022004F5247401F055FF01206060022049
:102C900001F050FF656070BD00004242001002402C
:102CA00003480121C0F89412C0F890127047000048
:102CB0000000424270B50D4C0025C4F894520C48F7
:102CC000016821F440710160016841F48071016084
:102CD0000126C4F89062022004F5247401F02AFF52
:102CE0006660022001F026FF656070BD0000424270
:102CF000001002402DE9F047814616480024016883
:102D000021F44071016001680160134E2546274699
:102D10004FF00108C6F89472022001F00BFFC6F8CC
:102D200094826006040ED6F8100208B1641CE4B266
:102D3000012001F0FFFE6D1CEDB2082DEAD3B9F1C0
:102D4000000F04D0FFF78CFF2046BDE8F087FFF7A7
:102D5000B1FFF9E700100240000042422DE9F041C6
:102D600006461448016821F440710160016841F48D
:102D700080710160104C0027C4F894723D464FF0FA
:102D80000108F009C4F890027006060E022001F056
:102D9000D1FEC4F89482022001F0CCFEC4F89472F3
:102DA000022001F0C7FE6D1CEDB2082DE9D3BDE88D
:102DB000F0810000001002400000424270B50D4852
:102DC000016821F440710160016841F48071016083
:102DD000094C0120C4F89002C4F89402042004F5C0
:102DE000247401F0A7FE00252560042001F0A2FE56
:102DF000656070BD00100240000042420E4810B5F0
:102E0000016821F440710160016841F48071016042
:102E10000A4C0020C4F89402C4F89002042004F57F
:102E2000247401F087FE012060602060BDE810403E
:102E3000042001F07FBE000000100240000042426A
:102E400070B512480024016821F4407101600168E6
:102E500001600F4D0126C5F89062304601F06AFE10
:102E6000C5F89462012001F065FE07E0641CE4B23D
:102E7000FA2C03D9FFF7C2FF012070BDD5F810026C
:102E80000028F3D1C5F8940270BD00000010024084
:102E9000000042423648374A00F13401D0ED063A8C
:102EA00090ED034A90ED042A30EEE31AD1ED012AA9
:102EB000D1ED021A9FED305A01EE042AB1EE621AEA
:102EC00031EE611A82ED001AD1ED034AB1EE643A97
:102ED00082ED013A82ED023A82ED035AD1ED005AB9
:102EE00045EE044A43EE041A41EE045A90ED001AEE
:102EF00043EE042A90ED013A35EE811A34EE835AFE
:102F000080ED081AC0ED091A90ED023A71EE034AFD
:102F1000C0ED0A4A81EEA43A81EE244A70EE424A9C
:102F2000B0EE420A43EE243A70EEE30A80ED0B4A1B
:102F300004EE240A80ED0C3AC0ED074A80ED040A45
:102F4000C0ED063AC0ED050AF0EE410A44EE410A32
:102F5000B0EE621A04EE621A43EE601AC1EC020A85
:102F600003EE415AC1ED021A81ED035A7047000089
:102F700004000020C40000200000000070B52B48B1
:102F8000B0F90200FDF7E7FA9FED291B53EC112B76
:102F9000FDF759F9FDF7FDFA274C00B241F62C2157
:102FA0006085884200DA6185B4F92A1041F6DC6058
:102FB000814200DD608520880546A0F5E050843818
:102FC000002803DC41F6844028444042C0F51670D6
:102FD000FDF7C1FA9FED191B53EC112BFDF7DAF940
:102FE0009FED181B53EC112BFDF746FAFDF709FB7B
:102FF000C4F810011548B0F9320000EE100AB4F917
:103000002A00B8EEC01A00EE100A1148F8EEC00A05
:1030100000EE105AB8EE400A00F0AEFCBDEEC00A59
:1030200010EE100AA4F87C0170BD0000AA03002075
:10303000000000000084BC40C00900207B14AE47A3
:10304000E17A94BF0000000000C082407C000020B4
:10305000CC0A00201B4810B5B0F90000FDF77BFA40
:103060009FED191B53EC112BFDF791F9FDF791FA28
:10307000174C00B28228608501DA82206085B4F99D
:103080002A1040F2C260814200DD60851148B0F92B
:10309000300000EE100AB4F92A00B8EEC01A00EEB3
:1030A000100A2088F8EEC00A00EE100A0A48B8EEAE
:1030B000400A00F061FCBDEEC00A10EE100AA4F850
:1030C0007C0110BDAA0300200000000000108D400C
:1030D000400B00207C0000204C0C00202DE9F0412A
:1030E000384941F684402DED048B00254FF47A7663
:1030F000488501F5C07140F2A2309FED338ADFEDC3
:10310000338A9FED339A4885A1F5F068B70000BF78
:1031100005EB450108EBC11404F12C00B0EE481A90
:10312000F0EE680AB7EE080A33463A46032100F08B
:1031300095FC04F19C00B0EE481AF0EE480AB0EE9F
:10314000490A33463A46032100F088FC6D1C042DE1
:10315000DEDBB0EE481AF0EE480AB0EE480A33461D
:103160003A4603211B4800F079FC41F288349FED78
:103170001A1ADFED1A0A9FED1A0A33462246032176
:10318000184800F06BFC0F48B0EE481AF0EE480A01
:103190009FED150A4FF4FA73324603212C3000F0EC
:1031A0005DFCB0EE481AF0EE480AB0EE480ABDECFD
:1031B000048B33462246BDE8F04103210B4800F062
:1031C0004DBC0000C009002000000000CDCCCC3D6B
:1031D0006666E63FCC0700201F85EB3ECDCCCCBD1C
:1031E0009A99A9C0CC0A00203333A3C14C0C00200B
:1031F00010B5FFF755FD80216B2000F0F2F8642038
:1032000001F08AFC00216B2000F0EBF8032000F0B5
:10321000B4F8002000F0ACF8322000F0CBF8002128
:10322000382000F0DEF800216A2000F0DAF80021F2
:10323000232000F0D6F88021372000F0D2F8752046
:1032400000F043F8682801D0012010BD01216B2057
:1032500000F0C7F800216C2000F0C3F8322000F025
:10326000A9F8002010BD7CB514460D4606466B46F5
:1032700006223B21682000F045F800280BD1BDF85C
:10328000001049BA3180BDF8021049BA2980BDF852
:10329000041049BA21807CBD7CB514460D46064613
:1032A0006B4606224321682000F02CF800280BD141
:1032B000BDF8001049BA3180BDF8021049BA298022
:1032C000BDF8041049BA21807CBD10B50446FFF753
:1032D00075FDD020FFF742FDFFF7B2FD2046FFF756
:1032E0003DFDFFF7ADFDFFF769FDD120FFF736FD8E
:1032F000FFF7A6FD0020FFF7FDFC0446FFF77EFD6B
:10330000204610BD2DE9F0411D4614460F460646E5
:10331000FFF754FD7006000EFFF720FDFFF790FD4C
:1033200020B1FFF76BFD0120BDE8F0813846FFF7C3
:1033300015FDFFF785FDFFF741FD012000EB46007D
:10334000C0B2FFF70BFDFFF77BFD09E0012C0DD0AC
:103350005FF00100FFF7CEFC641E05F8010BE4B23C
:10336000002CF3D1FFF74AFD0020DDE70020F1E754
:10337000C006010E1C2000F034B8C006010E1B2050
:1033800000F02FB8BC2801D3012110E0622801D33E
:1033900002210CE02A2801D3032108E0142801D3DC
:1033A000042104E00A2801D3052100E006211A20A7
:1033B00000F017B810B504464FF47A70844201D972
:1033C000044602E0042C00D20424B0FBF4F0401EBA
:1033D000C1B2192000F005F86008BDE81040FFF701
:1033E000D1BF70B50C460546FFF7E8FCD020FFF7CB
:1033F000B5FCFFF725FD50B92846FFF7AFFCFFF7F6
:103400001FFD2046FFF7AAFCFFF71AFD18B1FFF7D2
:10341000F5FC012070BDFFF7F1FC002070BD00003D
:10342000104810B50E4901600521416000214FF49C
:1034300000328160C0E9031252014261017601222B
:1034400042768176C17601774277FDF72BFE002820
:1034500005D0BDE810404B2103A000F0F4BF10BD23
:1034600000640040040100202E2E2F5372632F634E
:10347000616E2E6300000000094808B5016841F440
:10348000800101600068002200F480000090114675
:103490003A20FEF77DFABDE808403A20FEF76DBA03
:1034A000303802402DE9F043404887B000250168DC
:1034B00041F040010160016801F04001059101689F
:1034C00041F002010160016801F00201059101680B
:1034D00041F010010160016801F0100105910168DF
:1034E00041F008010160016801F0080105910168DF
:1034F00041F080010160016801F0800105910168DF
:1035000041F001010160016801F0010105910168CC
:1035100041F0200101600068254F00F020004FF4C9
:1035200000540590002221463846FEF74FF9DFF897
:1035300084900122B0214846FEF748F90122DFF8C5
:103540007880960331464046FEF740F90094012406
:10355000694638460194CDE90245FEF751F830201E
:10356000CDE900040320CDE9024069464846FEF754
:1035700047F8A002CDE90005694602940F48FEF71E
:103580003FF8CDE9006469464046CDE90245FEF7C3
:1035900037F88020CDE9000469464846CDE9024568
:1035A000FEF72EF807B0BDE8F08300003038024087
:1035B000001802400010024000140240000C0240BB
:1035C00010B524488CB02249016059210024C0E97B
:1035D000011440F6C311C0E90314FEF710FD18B141
:1035E000B5211DA000F02FFF4FF48050079007A9D0
:1035F0001848FEF765FD18B1BB2117A000F023FFA6
:103600001448FEF730FF18B1C02113A000F01BFFD3
:10361000602000904FF47A70CDE9010400226946E1
:103620000C480494FEF7B7FE18B1C9210AA000F0B7
:103630000AFF042269460748FEF7ADFE18B1CE2105
:1036400005A000F000FF0348FEF768FE0CB010BDB7
:1036500000180040FC0100202E2E2F5372632F749F
:10366000696D2E630000000010B525488EB0234917
:103670000160B3210024C0E901144FF47A71C0E95C
:103680000314FEF7BCFC18B142211EA000F0DBFEC3
:103690004FF48050079007A91948FEF711FD18B1A3
:1036A000482118A000F0CFFE1548FEF7DCFE18B147
:1036B0004D2114A000F0C7FE0B940BA910480C94E8
:1036C000FEF775FC18B154210EA000F0BCFE60207E
:1036D00000904FF4FA70CDE90104002269460848D1
:1036E0000494FEF758FE18B15D2106A000F0ABFE71
:1036F0000348FEF713FE0EB010BD000000040040AA
:10370000480100202E2E2F5372632F74696D2E6393
:103710000000000010B525488EB0234901605921F2
:103720000024C0E9011440F2CF71C0E90314FEF790
:1037300066FC18B171211EA000F085FE4FF4805088
:10374000079007A91948FEF7BBFC18B1772118A00C
:1037500000F079FE1548FEF786FE18B17C2114A012
:1037600000F071FE0B940BA910480C94FEF71FFC9F
:1037700018B183210EA000F066FE602000904FF487
:10378000FA70CDE901040022694608480494FEF766
:1037900002FE18B18C2106A000F055FE0348FEF78A
:1037A000BDFD0EB010BD00000008004084010020E7
:1037B0002E2E2F5372632F74696D2E63000000004C
:1037C0001CB510480E49002401605921C0E90114BC
:1037D00041F28731C160FEF712FC18B19D210AA0A9
:1037E00000F031FE0094694606480194FEF7DFFBC5
:1037F000002803D0A42104A000F025FE1CBD000079
:1038000000100040C00100202E2E2F5372632F7431
:10381000696D2E63000000000D4810B50B49016072
:103820004FF4E1314160002181600C22C160C0E9A8
:1038300004128161C161FEF76DFF002805D0BDE86B
:1038400010404B2103A000F0FEBD10BD004C004015
:10385000380200202E2E2F5372632F7573617274FD
:103860002E6300000D4810B50B4901600C49416002
:10387000002181600C22C160C0E9041281610A4606
:10388000C161FEF733F8002805D0BDE810405E2185
:1038900004A000F0D8BD10BD001001407802002047
:1038A000A08601002E2E2F5372632F7573617274E0
:1038B0002E6300000E4810B50C4901604FF4E13151
:1038C0004160002181600C22C160C0E90412816165
:1038D0000A46C161FEF70AF8002805D0BDE810408D
:1038E000712104A000F0AFBD10BD000000440040F5
:1038F000B80200202E2E2F5372632F7573617274DD
:103900002E6300000E4810B50C4901604FF4E13100
:103910004160002181600C22C160C0E90412816114
:103920000A46C161FDF7E2FF002805D0BDE810405E
:10393000842104A000F087BD10BD000000140140E8
:10394000F80200202E2E2F5372632F75736172744C
:103950002E630000FEE770470907090E002806DA0B
:1039600000F00F0000F1E02080F8141D704700F116
:10397000E02080F80014704700B580ED090A30EEB1
:10398000C00AC0ED060A014680ED0C0AC06D03288E
:103990003FD1D1ED000A2F4A60EE800AC1ED0D0A39
:1039A000D1ED010AF0EEE01A11EE900A904206DB2A
:1039B000D1ED0E1A40EE801AC1ED0E1A03E09FED14
:1039C000260A81ED0E0A91ED030A01F1380020EE7E
:1039D000410A81ED0F0A91ED190AB8EE400A01F093
:1039E00077F891ED0D0AD1ED0E0A01F1400030EEAD
:1039F000200AD1ED0F0A30EE200A81ED100A91ED78
:103A0000180AB8EE400A01F063F891ED100A81ED52
:103A1000110A91ED0B0A81ED0A0A91ED0C0A81ED74
:103A20000B0A91ED080A81ED070A91ED090A81ED73
:103A3000080A91ED050A81ED040A91ED060A81ED6F
:103A4000050AC86D032802D091ED130A00BD91ED5F
:103A5000100A00BD6F12833A0000000030B4034C1E
:103A60008466034CC46630BC01F086B9794D000809
:103A70008B4D00087047704710B5FDF7B3FEBDE8E9
:103A80001040FEF78EBA000030B5274893B00025ED
:103A9000016841F080510160006800F08050119091
:103AA0002248016841F4404101600068022400F4AA
:103AB0004040119001200090000401908001CDE968
:103AC000064006200890B420CDE9090404200B909C
:103AD0006846FEF7B7F800B1FEE7FDF78BFF00B1CF
:103AE000FEE70CA90F2081E831004FF4A0500F90A1
:103AF0004FF48050109005210CA8FDF7B3FF00B1E2
:103B0000FEE7FEF747F84FF47A71B0FBF1F0FEF7ED
:103B100034FA0420FEF724FA00221146501EFDF765
:103B200037FF13B030BD0000403802400070004045
:103B30001048016841F4700101600F48016841F0CC
:103B4000010101600C4A00210832116002680B4B30
:103B50001A400260031D0A4A1A60026822F4802299
:103B6000026005480C30016002495806803908603F
:103B70007047000088ED00E000380240FFFFF6FECD
:103B8000103000240148FEF715BB0000C0010020E2
:103B9000F0B50268234B244D244E254F254C4FF0A1
:103BA000804C984209D0604507D0A84205D0B04269
:103BB00003D0B84201D0A04204D122F0700E4A686E
:103BC00042EA0E0298421BD0604519D0A84217D095
:103BD000B04215D0B84213D0A04211D0164DA84221
:103BE0000ED0164DA8420BD0154DA84208D0154D49
:103BF000A84205D0144DA84202D0144DA84203D1CA
:103C000022F44075CA682A4302608A68C2620A6860
:103C10008262984201D0A04201D109690163012169
:103C20004161F0BD00000140000400400008004078
:103C3000000C0040000401400040014000440140ED
:103C40000048014000180040001C004000200040D7
:103C500010B5846842EA032224F47F440A432243D5
:103C6000826010BD826822F070020A4342F00701B0
:103C70008160704730B5026A22F001020262026A76
:103C8000436884690D6824F07304254322F002041C
:103C90008A6822430B4CA04202D00B4CA0420BD1AD
:103CA00022F00804CA6823F4407322434C6922F0CE
:103CB00004021C438B692343436085614968416367
:103CC000026230BD000001400004014030B5026ACC
:103CD00022F010020262026A436884690D6824F4CB
:103CE000E64444EA05248D6822F0200242EA0512E7
:103CF0000D4DA84202D00D4DA8420ED1CD6822F044
:103D0000800242EA05124D6923F4406343EA8503C9
:103D10008D6922F0400243EA85034360846149686B
:103D20008163026230BD00000000014000040140D8
:103D300030B5026A22F480720262036A4268C46982
:103D400023F4007324F073050C682C438D6843EA58
:103D500005230D4DA84202D00C4DA8420ED1CD68CE
:103D600023F4006343EA05234D6922F4405242EAFA
:103D700005128D6923F4806342EA05124260C46132
:103D80004968C163036230BD000001400004014086
:103D900030B5026A22F480520262046A4268C36942
:103DA0000D6823F4E64343EA05238D6824F40054A8
:103DB00044EA0534084DA84202D0084DA84204D177
:103DC0004D6922F4804242EA85124260C36149682B
:103DD0000164046230BD00000000014000040140A5
:103DE00010B5036A046A24F001040462846924F0B3
:103DF000F00444EA021423F00A020A4384610262D6
:103E000010BD10B5036A23F0100303628369046ACE
:103E100023F4704343EA023224F0A00343EA011181
:103E20008261016210BD00001D480188C1F30A02D1
:103E300000F11201A2F580620A804278D3088278EC
:103E400043EA4213C3F30A03A3F580634B80C378AC
:103E5000920942EA8303027943EA8223C3F30A0305
:103E6000A3F580638B805308427943EAC213C3F3FE
:103E70000A03A3F58063CB8093090B72C2F301128E
:103E80004A72C2884A8102898A814289CA81027B38
:103E90000A74427B4A74C2894A82008A88827047C7
:103EA0009803002010B50848FEF7ACFB0648FEF763
:103EB000A3FB2028FAD1054C012221460248FEF737
:103EC00067FD0028F8D110BD38020020EE0C00205C
:103ED00010B5806B0021C185C184FEF78CFB10BD3D
:103EE00070B5846B2068406994F83910C0F3C01035
:103EF0000025212904D118B1E584204600F046F8B8
:103F00002068406994F83A10C0F38010222904D147
:103F100018B1E585204600F02BF8E06B40F010006A
:103F2000E0632046FEF767FB70BD10B50146806B6D
:103F300009680968C90513D40021C1850168CA68E8
:103F400022F48072CA6001684A6922F001024A6163
:103F500001684A6922F040024A61202180F83A1043
:103F6000FEF73AFD10BD10B5806BFEF713FE10BDD5
:103F70000168CA6822F49072CA6001684A6922F036
:103F800001024A61202180F83A1070470168CA682E
:103F900022F0C002CA60202180F83910704710B5A5
:103FA00090F83A10222901D0022010BD8168B1F5A5
:103FB000805F11D00169002901681FD0496801F0B4
:103FC0007F03816A4A1C82620B70C18D491E0904FD
:103FD000090CC18518D026E00269816A002A0268AE
:103FE000526805D0D2B20A80816A491C8162ECE72E
:103FF000C2F308020A80816A891CF7E74A68816A6D
:104000004B1C83620A70E0E70168CA6822F4907270
:10401000CA6001684A6922F001024A61202180F8E1
:104020003A10FEF7D9FC002010BD000070B5002446
:104030000D460646182900D91825242000F0AAFEAE
:104040002846FCF799FA9FED0A1B53EC112BFCF75D
:10405000A1F9FCF7BDFAC0B200F09CFE04E0305DAF
:1040600000F098FE641C64B2AC42F8DB70BD000046
:10407000000000000000D03F2DE9F0410446006838
:10408000016921F44052E168114301612168C86867
:1040900049F20C6290432369A268E5691A43636997
:1040A0002B431A430243CA602168486920F44072D6
:1040B000A06910434861E1696425B1F5004F974854
:1040C000974A21684FF032083FD0914201D0814297
:1040D0007CD1FDF775FD00EBC00101EB00106168BC
:1040E0008900B0FBF1F6FDF76BFD00EBC00101EBC1
:1040F000001061688900B0FBF1F0B0FBF5F06FF0E3
:104100001801484306EB800108EB0110B0FBF5F005
:1041100000F0F006FDF754FD00EBC00101EB0010CC
:1041200061688900B0FBF1F0B0FBF5F006EB00161A
:10413000FDF746FD00EBC00101EB0010616889004E
:10414000B0FBF1F7FDF73CFDD2E0914201D0814296
:104150003DD1FDF735FD00EBC00101EB00106168BA
:104160004900B0FBF1F0B0FBF5F00601FDF728FDCA
:1041700000EBC00101EB001061684900B0FBF1F7F2
:10418000FDF71EFD00EBC00101EB00106168490066
:10419000B0FBF1F0B0FBF5F06FF01801484307EB0E
:1041A000800108EBC100B0FBF5F000F0F80006EB71
:1041B0004006FDF705FD00EBC00101EB0010616852
:1041C0004900B0FBF1F7FDF7FBFC3CE055E0FDF7E3
:1041D000E7FC00EBC00101EB001061684900B0FB97
:1041E000F1F0B0FBF5F00601FDF7DAFC00EBC001E1
:1041F00001EB001061684900B0FBF1F7FDF7D0FC5E
:1042000000EBC00101EB001061684900B0FBF1F068
:10421000B0FBF5F06FF01801484307EB800108EBA5
:10422000C100B0FBF5F000F0F80006EB4006FDF72A
:10423000B7FC00EBC00101EB001061684900B0FB66
:10424000F1F7FDF7ADFC00EBC00101EB0010616878
:104250004900B0FBF1F0B0FBF5F06FF018014843F6
:1042600007EB800108EBC100B0FBF5F000F00700A0
:10427000216830448860BDE8F081FDF791FC00EBD7
:10428000C00101EB001061688900B0FBF1F6FDF799
:1042900087FC00EBC00101EB001061688900B0FBF6
:1042A000F1F0B0FBF5F06FF01801484306EB800128
:1042B00008EB0110B0FBF5F000F0F006FDF770FC24
:1042C00000EBC00101EB001061688900B0FBF1F068
:1042D000B0FBF5F006EB0016FDF762FC00EBC00149
:1042E00001EB001061688900B0FBF1F7FDF758FCA5
:1042F00000EBC00101EB001061688900B0FBF1F038
:10430000B0FBF5F06FF01801484307EB800108EBB4
:104310000110B0FBF5F000F00F00A9E70014014018
:104320000010014090F83910212901D00220704777
:104330008168B1F5805F016A0BD04A1C0262026895
:1043400009785160C18C491E0904090CC1840ED042
:1043500017E009880268C1F308015160016900296A
:10436000016A02D0491C0162ECE7891CFBE7016885
:10437000CA6822F08002CA600068C16841F040014A
:10438000C160002070472DE9F041984617460E465F
:104390000446069D1DE0681C1BD02DB1FDF71CFADC
:1043A000A0EB0800A84214D92068C16821F4D0719C
:1043B000C1602068416921F001014161202084F839
:1043C000390084F83A00002084F838000320BDE862
:1043D000F0812068006836EA000004D00020B8426E
:1043E000D9D00020F3E70120F9E7000010B5084814
:1043F000FEF708F90648FEF7FFF82028FAD1012257
:1044000004490348FEF7C4FA0028F8D110BD0000A3
:10441000B8020020CE0C002010B50848FEF7F2F8D4
:104420000648FEF7E9F82028FAD10122044903489A
:10443000FEF7AEFA0028F8D110BD0000F802002007
:1044400060000020FEE7FEE7014A024900F02FBBB2
:10445000814B00087800002003B4019841000098C7
:1044600050EAC12018BF04204A0D18BF40F00100D7
:1044700040F2FF72B2EB515F08BF40F0020001282A
:1044800008BF052002B0704770B59B482DED020BA8
:104490002DED068B079D25F00044A04218DC9748BF
:1044A000844202DC0AD1069840B19DED060BBDECBA
:1044B000068B02B0BDE8704000F0C6BA002DCCBF3C
:1044C0009FED8F0B9FED900BBDEC068B02B070BD86
:1044D0008F48A04215DD8F48A042D8BF4FF0FF346F
:1044E00058DD9DED060B51EC100BFFF7B5FF0428CE
:1044F00008BF00F0BDFA9DED060BBDEC068B02B0C7
:1045000070BD9DED060B51EC100B00F02DFBCDE9BD
:10451000060181489FED828BA0423CDD8248A0428B
:104520001FDD00249FED82AB9DED060B53EC1A2B93
:1045300051EC100BFBF787FE9DED060B41EC190BC0
:1045400053EC1A2B51EC100BFBF724FF53EC182BF8
:10455000FBF71AFF53EC192BFBF78EFFCDE9060191
:1045600049E09DED060B012453EC182B51EC100B88
:10457000FBF769FE9DED060B41EC190B53EC182B74
:1045800051EC100BFBF700FF53EC192BFBF774FFFA
:10459000CDE906012FE06848A0421FDD02249FED0F
:1045A000689B9DED060B53EC192B51EC100BFBF7A0
:1045B000F1FE53EC182BFBF746FE9DED060B41EC8C
:1045C000180B53EC192B51EC100BFBF7DDFE53ECE1
:1045D000182BFBF751FFCDE906010CE09DED060B12
:1045E000032453EC102B9FED580B51EC100BFBF7F1
:1045F00043FFCDE906019DED060B53EC102B51EC6A
:10460000100BFBF7C7FE41EC180B53EC182BFBF714
:10461000C1FE41EC190B4E480621B0EE490AF0EEFE
:10462000690A784400F094F953EC182B51EC100B04
:10463000FBF7B0FE41EC180B4648B0EE490AF0EE2D
:10464000690A0521784400F083F953EC192B51ECE9
:10465000100BFBF79FFE41EC100B51EC180B53ECC9
:10466000102B002C0EDAFBF7EEFD9DED061B53EC34
:10467000112BFBF78FFE9DED061B53EC112BFBF767
:1046800086FE35E0FBF7DFFD9DED061B53EC112B9D
:10469000FBF780FE41EC100B2F48784400EBC40080
:1046A00090ED001B51EC100B53EC112BFBF76CFE43
:1046B0009DED061B53EC112BFBF766FE41EC100B36
:1046C0002648784400EBC40090ED001B51EC100B21
:1046D00053EC112BFBF75BFE41EC100B002DA2BF3E
:1046E000BDEC068B02B070BD51EC100B81F00041A7
:1046F00041EC100B01E70000000010440000F07FC7
:10470000182D4454FB21F93F182D4454FB21F9BFC7
:104710000000DC3F0000203E0000F33F00000000EE
:10472000000000000000F03F0000E63F0000000035
:104730000000000000000040008003400000000076
:10474000000000000000F83F000000000000F0BF83
:1047500012080000C8070000520700000A07000006
:1047600070B56B4E2DED040B2DED028B82B0DDF894
:104770001CC0DDE905235C422CF000411C4341EAEA
:10478000D474049D22F00040B44205D86C422C43FE
:1047900040EAD474B4420BD99DED061B9DED040B89
:1047A00002B0BDEC028B04B0BDE8704000F056B919
:1047B000ACF14054A4F17F641C430BD0022404EA02
:1047C000AC7444EAD27405439FED538B9FED542B98
:1047D00007D015E09DED040B51EC100B00F08DF9A6
:1047E00042E0002C11BF012C9DED040B02B0BDEC8A
:1047F000028B04BF04B070BD022C38D0032C3BD018
:104800000B439FED491B9FED4A0B0AD0B14218D1D3
:10481000B04209D121F0804120F0804007910590FD
:104820000FE0002A15DA10E0434B7B44002C08BF50
:1048300093ED000B0DD0012C10D0022C17D0032CBF
:104840001AD0B0421DD1002A03DAB0EE410AF0EED0
:10485000610A02B0BDEC028B04B070BD93ED000B99
:1048600051EC100B81F0004141EC100BF1E7B0EE80
:10487000480AF0EE680AECE7B0EE420AF0EE620A8F
:10488000E7E7401A00153C28C8BF8DED000B19DC86
:10489000BCF1000FBEBF10F13C0F9FED290B8DED59
:1048A000000B0FDB9DED060B53EC102B9DED040B65
:1048B00051EC100BFBF7E0FD00F056F900F01DF98C
:1048C000CDE90001002C08BF9DED000BC1D0012CEB
:1048D00010D0022C9FED1C0B53EC102B9DED000B08
:1048E00051EC100B0DD0FBF74FFD53EC182BFBF7E1
:1048F0004BFDB9E7019880F0004001909DED000B61
:10490000A7E7FBF741FD53EC182BFBF740FDABE7A6
:104910000000F07F00000000182D4454FB210940E6
:10492000182D4454FB2109C0182D4454FB21F9BF14
:10493000182D4454FB21F93F3A0600000000000006
:104940000000000000000000075C143326A6A13C14
:1049500070B504462DED028B4D1E00EBC500B0EE88
:10496000408AF0EE608A90ED000B35F0060017D01B
:1049700053EC182B51EC100BFBF70CFD41EC100B1A
:104980006D1E04EBC50090ED001B51EC100B53ECB9
:10499000112BFBF758FC41EC100B35F00600E7D16A
:1049A000022D36D0042D1CD0062D1CBFBDEC028B71
:1049B00070BD53EC182B51EC100BFBF7EBFC94ED96
:1049C0000A1B53EC112BFBF73EFC53EC182BFBF7A7
:1049D000E1FC94ED081B53EC112BFBF734FC41EC8C
:1049E000100B53EC182B51EC100BFBF7D3FC94ED90
:1049F000061B53EC112BFBF726FC53EC182BFBF793
:104A0000C9FC94ED040B53EC102BFBF71CFC41ECA0
:104A1000100B53EC182B51EC100BFBF7BBFC94ED77
:104A2000021B53EC112BFBF70EFC53EC182BFBF77E
:104A3000B1FC94ED001B53EC112BFBF704FCBDEC17
:104A4000028B41EC100B70BD10B553EC102B51ECE8
:104A5000100BFBF7F8FB41EC100B10BD10B553EC3D
:104A6000112B51EC100BFBF7EEFB41EC100B10BDC2
:104A70009FED050B10B553EC102B51EC100BFBF711
:104A800089FC41EC100B10BD00000000000000107C
:104A900002E008C8121F08C1002AFAD17047704707
:104AA000002001E001C1121F002AFBD170472DE94F
:104AB000F04116460F460446002503E03946B0474C
:104AC000641C6D1C20780028F8D12846BDE8F081D0
:104AD000D0ED000AF4EEC00AF1EE10FA01DD80ED2F
:104AE000000AD0ED000AB1EE400AF4EEC00AF1EE81
:104AF00010FA01D280ED000A704710B541EC100B9E
:104B0000FFF7C2FC51EC100B10BD0000014908700A
:104B1000704700000000002070B5054600244FF4E7
:104B20007A7603E0304600F005F8641CAC42F9D315
:104B300070BD000070B54FF0E0240022656909499E
:104B4000A36909784843A1699942FCD002D2A3EB3A
:104B5000010302E0A5EB010633441A440B468242EE
:104B6000F1D370BD0000002082B0CDE9000121F03A
:104B7000004001909DED000B02B051EC100B70470E
:104B800004490A685206FCD5024AC1B2121D1160DE
:104B900070470000004C00401B4A10B5911E881E53
:104BA000FEF77AFB184A243A911E881EFEF75BFB3B
:104BB0001548343830F9301FB0F91220891A4FF4F3
:104BC0007A725143C91300EE101AB8EEC00A00ED14
:104BD000030AB0F90210B0F91420891A4FF47A725E
:104BE0005143C91300EE101AB8EEC00A00ED020AD4
:104BF000B0F90410B0F91620891A00EE101AB8EEB8
:104C0000C00A00ED010A10BDB00000202DED028B9E
:104C1000FCF7F0FDFEF738FFB420FFF777FFFEF753
:104C200041FCFEF729FCFEF7FBFBFEF773FDFEF7E8
:104C3000C7FDFEF7C5FCFEF7EFFDFEF713FEFEF71E
:104C400061FEFEF737FEFEF70FFD0022022136203F
:104C5000FCF79EFE3620FCF790FE00220421472040
:104C6000FCF796FE4720FCF788FEFEF7C1FAFBF73B
:104C70006BFF122230493148FDF73EFE01223049D8
:104C80003048FDF785FEFBF7B1FD2F48FDF70CFA24
:104C9000FEF724FA2D4E0020C6F8B80228492C4809
:104CA00016399FED2C8ADFF8B0B02C4DDFF8B090AC
:104CB0002C4CDFF8B4A02D4FDFED2D8AA0F58678BF
:104CC000C1F8180095ED000A30EE080A10EE100A3F
:104CD00085ED000A584503DD9FED260A85ED000AA3
:104CE00099ED000A182184ED000ABAF9320000EEAD
:104CF000100AB8EEC00A84ED010A97ED520A84ED5D
:104D0000020AB8F8000000EE100A1648B8EE400A91
:104D100084ED040A97ED440A20EE280A84ED050A82
:104D2000FFF784F93220FCF759FCD6F8B802C043EB
:104D3000C6F8B802C6E700009803002078020020F9
:104D4000EE0C002038020020C0010020008042420A
:104D50004C0C0020CDCCCC3DC3F548404800002091
:104D600018000020D40000207C000020C009002092
:104D70000000C842C3F548C000F15C0C8CE80E008E
:104D800080ED031A80EC020A704780ED031A80EC74
:104D9000020A7047044909680A68D2435206FBD4E4
:104DA000024908607047000038020020044C0040AF
:104DB000000610160006101600000000000000009B
:104DC00001020304060708090000000001020304B1
:104DD0004FBB610567ACDD3F182D4454FB21E93F13
:104DE0009BF681D20B73EF3F182D4454FB21F93F02
:104DF000E2652F227F2B7A3C075C143326A6813C88
:104E0000BDCBF07A8807703C075C143326A6913C32
:104E1000C4EB98999999C9BF711623FEC671BCBF9E
:104E20006D9A74AFF2B0B3BF9AFDDE522DDEADBF06
:104E30002F6C6A2C44B4A2BF0D5555555555D53F1E
:104E4000FF8300922449C23F6E204CC5CD45B73F39
:104E5000513DD0A0660DB13FEB0D76244B7BA93FB1
:104E600011DA22E33AAD903F00000000000000009C
:104E7000904E0008000000207C000000904A0008CE
:104E80000C4F00087C0000207C100000A04A0008A5
:104E9000000000006F12833AA69B443B3333333F3C
:104EA0000AD7A33B00000000000000000000000043
:104EB00000000000000000000000000000000000F2
:104EC00000000000000000000000803F0000000023
:104ED000000000000000803F000000000000000013
:104EE00000000000000000000000000000000000C2
:104EF00000000000000000000100000010000000A1
:0C4F0000000000000024F400000000008D
:04000005080001AD41
:00000001FF
